:020000040800F2
:10000000482A00209D01000867190008931800087D
:1000100063190008B9070008A323000800000000C6
:10002000000000000000000000000000411B00086C
:10003000E509000800000000F5190008311C00085F
:10004000B7010008B7010008B7010008B7010008B0
:10005000B7010008B7010008B7010008B7010008A0
:10006000B7010008B7010008B7010008B701000890
:10007000B7010008B7010008B7010008B701000880
:10008000B7010008B7010008B7010008B701000870
:10009000B7010008B7010008B7010008B701000860
:1000A000B7010008B7010008B7010008B701000850
:1000B000B7010008E91C0008B7010008B7010008F3
:1000C000B7010008B7010008B7010008B701000830
:1000D000B70100085D200008C92000083921000888
:1000E000B7010008B7010008B7010008B701000810
:1000F000B7010008B7010008B7010008B701000800
:10010000B7010008B7010008B7010008B7010008EF
:10011000B7010008B7010008B7010008B7010008DF
:10012000B7010008B7010008B7010008B7010008CF
:10013000B7010008B7010008B7010008B7010008BF
:10014000B7010008B7010008B7010008B7010008AF
:10015000B7010008B7010008B7010008B70100089F
:10016000B7010008B7010008B7010008B70100088F
:10017000B7010008B7010008B7010008B70100087F
:10018000B7010008B7010008DFF80CD000F0E2FA70
:1001900000480047912D0008482A00200648804763
:1001A00006480047FEE7FEE7FEE7FEE7FEE7FEE75C
:1001B000FEE7FEE7FEE7FEE7811C00088901000874
:1001C00040EA01039B0703D009E008C9121F08C0D9
:1001D000042AFAD203E011F8013B00F8013B521E59
:1001E000F9D27047D2B201E000F8012B491EFBD2D0
:1001F00070470022F6E710B513460A460446194632
:10020000FFF7F0FF204610BD30B505462A460B46E5
:1002100012F8010B13F8014B08B1A042F8D01CB141
:10022000002802D06D1CF1E7284630BD421C10F8B2
:10023000011B0029FBD1801A70472DE9FE4F804633
:1002400081EA0300C00F0C46009021F0004123F02A
:100250000045B8EB0200A94105D240462146904630
:100260001C460B46024623F00040104347D0270DA2
:10027000C7F30A00C3F30A510290401A01904028C4
:100280006BDAC3F3130040F4801B0098924620B150
:100290000023D2EB030A63EB0B0B01985946C0F124
:1002A0004002504600F041F906460D465046594678
:1002B000019A00F059F910EB08006141002487EA27
:1002C000115284EAE7731A4340D0009A62B3019A4C
:1002D000012A4FEA075215DC001B61EB02014FF0C7
:1002E000004202EA0752CDE90042001C41F58011AC
:1002F00032462B4600F059F903B0BDE8F08F404676
:100300002146F9E7001B61EB0201001C41F5801357
:1003100000185B412018A2F5001747EB030140EAE3
:10032000D570B6196D4111E06D084FEA360645EA01
:10033000C0754FEA0752001B61EB0201001C41F53A
:10034000801149084FEA30000019514132462B46CE
:1003500003B0BDE8F04F00F019B900980122400049
:100360000023D0EB020263EBE073009821464FEAD2
:10037000E074B8EB000061EB0401E9E783F00043AF
:100380005BE781F0004158E72DE9FE4F81EA030465
:1003900004F0004421F0004100944FF0000B23F0E2
:1003A000004350EA01045ED052EA03045BD0C3F379
:1003B0000A54C1F30A552C44A4F2F3340194A0FB6F
:1003C0000254C1F3130141F48011C3F3130343F446
:1003D000801301FB024400FB034E840A970A44EA9F
:1003E000815447EA8357A4FB076802958D0A05FBF1
:1003F00007854FEA932C04FB0C542705029D4FEA16
:10040000065847EA1637B5EB08056EEB070C870E62
:10041000920E47EA811742EA8312A7FB0201B6EB6C
:100420000B0164EB00042B0D43EA0C335E1844EB24
:100430001C50DA465146E7FB0201C5F313044FEAAC
:100440000B3343EA14534FEA0432019C43EA060398
:10045000A4F10C040294009CCDE900B400F0A5F8CE
:1004600003B0BDE8F08F00200146F9E730B5041E67
:1004700071F1000404DB4FF00044404264EB0101E1
:10048000141E73F1000405DB1C464FF0004352427A
:1004900063EB0403994208BF904230BD30B50B4670
:1004A000014600202022012409E021FA02F59D42A4
:1004B00005D303FA02F5491B04FA02F52844151E78
:1004C000A2F10102F1DC30BD2DE9F05F054600200C
:1004D00092469B4688460646814640241BE02846B5
:1004E00041464746224600F02FF853465A46C01A66
:1004F000914110D311461846224600F016F82D1AE5
:1005000067EB01084F4622460120002100F00DF85C
:1005100017EB00094E41201EA4F10104DFDC484620
:1005200031462A464346BDE8F09F202A04DB203AA4
:1005300000FA02F1002070479140C2F1200320FA36
:1005400003F3194390407047202A04DB203A21FA34
:1005500002F00021704721FA02F3D040C2F12002DC
:100560009140084319467047202A06DBCB17203AF2
:1005700041FA02F043EAE07306E041FA02F3D040A8
:10058000C2F12002914008431946704710B5141E6D
:1005900073F1000408DA401C41F1000192185B413C
:1005A0001A4301D120F0010010BD2DE9F04D924613
:1005B0009B4611B1B1FA81F202E0B0FA80F220322A
:1005C0009046FFF7B2FF04460F4640EA0A0041EAB0
:1005D0000B0153465A46084313D0114653EA010013
:1005E00019D0C8F140025046FFF7AEFF05460E464F
:1005F000504659464246FFF798FF084305D0012070
:1006000004E020463946BDE8F08D0020054346EA67
:10061000E0762C4337430A986305E40AA0EB080010
:100620000022FD0A44EA47540A3002D50020014660
:10063000E9E7010510196941DDE90845001969413B
:10064000BDE8F04DA2E72DE9F04D81EA030404F086
:10065000004B21F0004514464FF0000A23F0004102
:1006600050EA050220D054EA01021DD0C5F30A5712
:100670000246C5F31303C1F31300C1F30A5640F455
:10068000801543F48013A7EB0608101BD64608F22A
:10069000FD3873EB050002D308F1010801E0921860
:1006A0005B41B8F1000F03DA00200146BDE8F08D90
:1006B00000204FF48011064684460EE0171B73EBB2
:1006C000050705D3121B63EB050306434CEA010C37
:1006D00049084FEA300092185B4150EA0107EDD11A
:1006E00052EA030012D082EA040083EA05010843BB
:1006F00005D0101BAB4106D20122002306E00022E8
:100700004FF0004302E06FF0010253101AEB0600B5
:100710004CEB085110EB0A0041EB0B01BDE8F04D2A
:10072000FFF734BFC1F30A52C1F3130140F2FF33A4
:1007300041F480119A4202DA00200146704740F2EB
:1007400033439A42A2F2334202DC5242FFF7FCBE2C
:10075000FFF7EBBE064C074D06E0E06840F00103F2
:1007600094E8070098471034AC42F6D3FFF710FD29
:1007700008300008283000081CB50121202001F0B5
:100780003BF94FF48070009001208DF804000320A5
:100790008DF8050000208DF807008DF806006946E9
:1007A000034801F00BF80020024908601CBD00005E
:1007B00000140240A082424200BFFEE70146A82981
:1007C00008D10D4A10700D480D4A106005200D4AE1
:1007D00010700FE015290AD11520074A107045F254
:1007E0000820074A10600120064A107002E04FF00E
:1007F000FF3070470020FCE714000020409002000A
:10080000180000201C0000202DE9F04705460024B8
:100810000027A046A146012000F0BEF800204C4968
:100820000860142002F042FA01204A49C1F8A402EB
:100830001E2002F06BFA002000F0AEF800BF0CE0C2
:10084000601C84B2012002F061FA41F294108442EB
:1008500003DD4FF0FF30BDE8F0873D488038006889
:100860000128EDD0002409E0601C84B2012002F0D0
:100870004DFA642C02DD6FF00100ECE7344880385B
:1008800000680028F0D0002409E0601C84B2012038
:1008900002F03CFA642C02DD6FF00200DBE72C482A
:1008A000803800680128F0D000263AE04FF00008B8
:1008B000072730E0002409E0601C84B2012002F028
:1008C00025FA3C2C02DD6FF00300C4E72048803895
:1008D00000680028F0D0282002F018FA1C48803860
:1008E0000068012815D1B84040EA080000F0FF0870
:1008F000002409E0601C84B2012002F007FA282CD1
:1009000002DD6FF00400A6E7114880380068012876
:10091000F0D0781E47B2002FCCDA05F80680701CA4
:1009200046B2052EC2DB287869780844A9780844C5
:10093000E97800EB010909F0FF002979884202D02B
:100940006FF0050087E7642002F0E0F9002082E7FD
:10095000A4024342000043421CB50121402001F0A3
:100960004BF84FF40070009001208DF80400032034
:100970008DF8050000208DF807008DF80600694607
:10098000034800F01BFF0120024908601CBD000065
:1009900000180240A40243421CB504464FF4007004
:1009A0000090012C0BD101208DF8040003208DF85C
:1009B000050000208DF807008DF8060009E02CB92D
:1009C00000208DF804008DF8070002E04FF0FF30A2
:1009D0001CBD6946024800F0F1FE0020F8E7000067
:1009E00000180240704700002DE9FE4306460F46FE
:1009F00015463046FFF71AFC02903846FFF716FC02
:100A000001902846FFF712FC00904FF002084FF0CB
:100A1000000900209449086010219348026800688A
:100A2000401C914B186091488154029800F10C04CD
:100A300000BF04F07F00E4090CB140F080008A4957
:100A40000A680968491C884B196088498854002C39
:100A5000EFD10022184601680068401C18608348E6
:100A600042540421184602680068401C18607F4800
:100A700081544D21184602680068401C18607B486C
:100A800081545121184602680068401C186077485C
:100A900081545421184602680068401C186073484D
:100AA0008154184602680068401C18606F488154E1
:100AB0000421184602680068401C18606B48815485
:100AC0000221184602680068401C1860674881547B
:100AD0000021184602680068401C18606348815471
:100AE0003C21184602680068401C18605F48815429
:100AF0009DF80920184601680068401C18605B4892
:100B000042549DF80810184602680068401C18609E
:100B10005648815401461A46126888183146029A8E
:100B2000FFF74EFB50480068029908444E490860A0
:100B3000019800B39DF805104B4802680068401CFE
:100B4000494B1860494881549DF8041018460268C2
:100B50000068401C18604548815401461A461268D6
:100B600088183946019AFFF72BFB3F480068019926
:100B700008443D490860009800B39DF801103A48C8
:100B800002680068401C384B1860384881549DF852
:100B90000010184602680068401C186033488154F1
:100BA00001461A46126888182946009AFFF708FB82
:100BB0002D480068009908442B4908604DE04FF427
:100BC00080612B48FFF715FB00202A490880264842
:100BD0000168264800F09EFB40F6B83938E0012055
:100BE00002F064F822480078202831D1204840786B
:100BF00002282DD11E48C07828B91FA001F0D4FBCF
:100C00000020BDE8FE831A48C078062818D2DFE825
:100C100000F01703070B0F1321A001F0C5FB13E031
:100C200027A001F0C1FB0FE02EA001F0BDFB0BE0FF
:100C300033A001F0B9FB07E039A001F0B5FB03E0F8
:100C40003DA001F0B1FB00BF00BF4FF0FF30D8E77F
:100C50005FEA0900A9F10109C1D15FEA0800A8F122
:100C60000108ACD1401ECCE704000020480600205B
:100C70004802002028000020C1ACBDD3D2D1B1BBB6
:100C8000B7FECEF1C6F7B6CBBDD3CADCA3ACC1ACC0
:100C9000BDD3C8B7C8CFB3C9B9A60D0A00000000BC
:100CA000C1ACBDD3D2D1BEDCBEF8A3ACB2BBD6A71B
:100CB000B3D6B5C4D0ADD2E9B0E6B1BE0D0A0000DE
:100CC000C1ACBDD3D2D1BEDCBEF8A3ACB2BBBACFEF
:100CD000B8F1B5C4BFCDBBA7B6CBB1EACAB6B7FBB6
:100CE0000D0A0000C1ACBDD3D2D1BEDCBEF8A3ACAE
:100CF000B7FECEF1B6CBB2BBBFC9D3C30D0A00005D
:100D0000C1ACBDD3D2D1BEDCBEF8A3ACCEDED0A781
:100D1000B5C4D3C3BBA7BBF2C3DCC2EB0D0A000052
:100D2000C1ACBDD3D2D1BEDCBEF8A3ACCEB4CADA5E
:100D3000C8A80D0A00000000CEB4D6AACFECD3A6F6
:100D40000D0A000010B5002442F21D5224A127A074
:100D500000F058F90446002C05DA25A001F024FB28
:100D60004FF0FF3010BD4FF4FA7001F09FFF27A045
:100D700001F01AFB00F0C2F90446002C05DA2BA0A2
:100D800001F012FB6FF00100ECE74FF4FA7001F094
:100D90008DFF2BA001F008FB2FA22FA12FA0FFF7A2
:100DA00023FE28B136A001F0FFFA6FF00200D9E768
:100DB0004FF4FA7001F07AFF38A001F0F5FA012241
:100DC00000213EA000F0E6FA28B140A001F0ECFAC4
:100DD0006FF00300C6E741A001F0E6FA0020C1E78A
:100DE00062656D66612E636F6D00000054435000B4
:100DF000D3EBD4C6CEEFC1AACDF8D5BEBDA8C1A253
:100E0000C1ACBDD3CAA7B0DC0D0A00003031A3BA13
:100E1000D3EBD4C6CEEFC1AACDF8D5BEBDA8C1A232
:100E2000C1ACBDD3B3C9B9A6210D0A00BFAAC6F48F
:100E3000CDB8B4ABC4A3CABDCAA7B0DC0D0A0000CC
:100E40003032A3BABFAAC6F4CDB8B4ABC4A3CABDEE
:100E5000B3C9B9A6210D0A000000000032363838A7
:100E600063656338653037363464656639633531B8
:100E7000353238373330336666316635000000006E
:100E8000C1ACBDD3D4C6CEEFC1AACDF8B5C44D51C7
:100E90005454CAA7B0DC0D0A000000003033A3BAD6
:100EA000C1ACBDD3D4C6CEEFC1AACDF8B5C44D51A7
:100EB0005454B3C9B9A6210D0A00000062757A7AAC
:100EC00065726D7174743030320000004D515454AD
:100ED000B6A9D4C4CAA7B0DC210D0A003034A3BA25
:100EE0004D515454B6A9D4C4B3C9B9A6210D0A00B2
:100EF0002DE9F04105460C462E460A4F03E001203D
:100F000001F0D4FE641E31463846FFF77DF908B97A
:100F1000002CF4DC002C02DD0020BDE8F0814FF055
:100F2000FF30FAE74802002070B505460C4624A0C1
:100F300000F02AFC41F2883125A0FFF7D9FF401CC0
:100F400010B94FF0FF3070BD22A000F01DFC41F23F
:100F500088311FA0FFF7CCFF401C10B96FF00100D3
:100F6000F1E71FA000F010FC20A000F00DFC2846C7
:100F700000F00AFC1DA000F007FC1DA000F004FC1E
:100F80001AA000F001FC204600F0FEFB17A000F0C4
:100F9000FBFB18A000F0F8FB41F2883116A0FFF728
:100FA000A7FF401C48B941F2883109A0FFF7A0FF14
:100FB000401C10B94FF0FF30C5E70020C3E7000028
:100FC00041542B43574D4F44453D310D0A0000001D
:100FD0004F4B000041542B5253540D0A00000000A7
:100FE00041542B43574A41503D000000220000006D
:100FF0002C0000000D0A00005749464920474F5475
:10100000204950007FB505460C461646002000904A
:101010000190029003901DA000F0B6FB1FA000F00D
:10102000B3FB284600F0B0FB1CA000F0ADFB1CA0F9
:1010300000F0AAFB19A000F0A7FB204600F0A4FBDB
:1010400016A000F0A1FB16A000F09EFB324615A1F1
:10105000684601F0B9F9684600F096FB12A000F06E
:1010600093FB41F2883111A0FFF742FF401C50B9B9
:1010700041F288310FA0FFF73BFF401C18B94FF039
:10108000FF3004B070BD0020FBE7000041542B434B
:10109000495053544152543D0000000022000000CA
:1010A0002C000000256400000D0A0000434F4E4E46
:1010B000454354004F4B000010B50446012C03D1AA
:1010C00009A000F061FB02E009A000F05DFB41F225
:1010D000883109A0FFF70CFF401C10B94FF0FF301A
:1010E00010BD0020FCE70000415445310D0A00000E
:1010F000415445300D0A00004F4B000010B513A0BD
:1011000000F042FB41F2883114A0FFF7F1FE401CD1
:1011100010B94FF0FF3010BD4FF4FA7001F0C6FD6A
:101120000FA000F031FB41F288310CA0FFF7E0FE88
:10113000401C10B96FF00200EDE74FF4FA7001F0B7
:10114000B5FD01200A4908600020E4E741542B4323
:1011500049504D4F44453D310D0A00004F4B0000B2
:1011600041542B43495053454E440D0A00000000A2
:101170000000002010B517A000F006FB4FF4FA7035
:1011800001F094FD14A000F0FFFA4FF47A7116A05C
:10119000FFF7AEFE401C10B94FF0FF3010BD4FF40A
:1011A000FA7001F083FD11A000F0EEFA41F28831EF
:1011B0000DA0FFF79DFE401C10B94FF0FF30EDE78A
:1011C0004FF4FA7001F072FD00200B49086000BF77
:1011D000E4E700002B2B2B0041542B4349504D4F8B
:1011E00044453D300D0A00004F4B000041542B5246
:1011F00053540D0A000000000000002010B5044602
:10120000204600F093FE10BD2DE9F84307468846BE
:1012100014463846FFF70AF800904046FFF706F8F4
:10122000054600260020394908603022084601683A
:101230000068401C354B186035484254002C04DDD2
:10124000007840EA4400324908700098001D4619B1
:1012500000BF06F07F00F6090EB140F080002B4978
:101260000A680968491C294B196029498854002ECD
:10127000EFD19DF80110184602680068401C186004
:10128000234881549DF80010184602680068401CED
:1012900018601F48815401461A461268881839465A
:1012A000009AFEF78DFF1948006800990844174915
:1012B0000860002C10DD0021144802680068401C02
:1012C000124B1860124881540121184602680068C8
:1012D000401C18600E4881540D490C4A1268881849
:1012E0002A464146FEF76CFF084800682844074933
:1012F000086008460168064800F00CF84FF4FA70E0
:1013000001F0D4FC01480068BDE8F8830400002027
:101310004806002070B504460D46012004490870B7
:101320002946204600F068FE00200149087070BD83
:101330000800002010B500200F490860C0210E48A9
:1013400002680068401C0C4B18600C488154002156
:10135000184602680068401C18600848815408A0BC
:1013600001F022F8044801680448FFF7D3FF642025
:1013700001F09CFC002010BD040000204806002065
:10138000B7A2CBCD4D515454D0C4CCF8B0FC0D0A0B
:10139000000000002DE9FE4F06460F4614460220CD
:1013A00002900020019000253046FEF73FFF00909C
:1013B0000020744908604CB18221724802680068BC
:1013C000401C704B18607048815408E0A2216D48A1
:1013D00002680068401C6B4B18606B488154009891
:1013E000001D0CB1012100E00021451800BF05F0EF
:1013F0007F00ED090DB140F0800062490A6809687C
:10140000491C604B196060498854002DEFD10022BF
:10141000184601680068401C18605B48425401226D
:10142000184601680068401C1860574842549DF8EF
:101430000110184602680068401C18605248815428
:101440009DF80010184602680068401C18604E485D
:10145000815401461A46126888183146009AFEF7F0
:10146000AFFE4848006800990844464908603CB10E
:10147000084601680068401C424A106042484754D0
:1014800074E04FF480614148FEF7B3FE002040490C
:1014900008803C4801683C48FFF73CFF40F6B83004
:1014A00001905EE0012001F001FC3A48007818B993
:1014B00037480088002854DD3648007810B1364897
:1014C000008801E032480088804630480078902843
:1014D00041D132A000F068FFB8F1040F34DB2B4893
:1014E00090F802A090F803B05A46514630A000F0A0
:1014F0005BFFB8F1040F26DD244890F80490B9F1A1
:10150000000F09D0B9F1010F0AD0B9F1020F0BD0C9
:10151000B9F1800F10D10BE02CA000F045FF10E0D6
:101520002FA000F041FF0CE032A000F03DFF08E0EA
:1015300035A000F039FF04E0494636A000F034FF42
:1015400000BF00BF00BF00BF002012490870104953
:101550000880BDE8FE8F00200E4908700C49088005
:1015600000BF0198411E019100289BD10298411EA5
:101570000291002885D12EA000F016FF4FF0FF3019
:10158000E7E7000004000020480600204802002091
:10159000280000202C0000202A000020B6A9D4C476
:1015A000D6F7CCE2C8B7C8CFB3C9B9A60D0A0000B8
:1015B000B1A8CEC4B1EACAB6B7FB3A20307825301C
:1015C0003258253032580D0A00000000B6A9D4C4A4
:1015D000B3C9B9A6A3AC516F533A20300D0A00002D
:1015E000B6A9D4C4B3C9B9A6A3AC516F533A20313C
:1015F0000D0A0000B6A9D4C4B3C9B9A6A3AC516FF3
:10160000533A20320D0A0000B6A9D4C4CAA7B0DCF0
:101610000D0A0000B6A9D4C4B7B5BBD8CEB4D6AABB
:10162000B4FAC2EB3A203078253032580D0A000067
:10163000B6A9D4C4B3ACCAB1A3ACCEB4CAD5B5BDF7
:10164000B7FECEF1C6F7C8B7C8CF0D0A000000003C
:1016500010B50024FFF78EFD0446002C05DA1BA010
:1016600000F0A2FE4FF0FF3010BD20A000F09CFE65
:101670004FF4FA7001F01AFB0020FFF71DFD04463D
:10168000002C05DA20A000F08FFE4FF0FF30EBE7D2
:1016900024A000F089FE4FF47A7001F007FB26A128
:1016A00029A0FFF741FC0446002C05DA2AA000F02F
:1016B0007BFE4FF0FF30D7E72EA000F075FE4FF411
:1016C0007A7001F0F3FA0020CEE700002A2A2A2AD5
:1016D0002ABDF8C8EBB7C7CDB8B4ABC4A3CABDCA5E
:1016E000A7B0DC212A2A2A2A2A0D0A003031A3BAFF
:1016F000BDF8C8EBB7C7CDB8B4ABC4A3CABDB3C9B6
:10170000B9A6210D0A0000002A2A2A2A2AB9D8B12E
:10171000D5BBD8CFD4CAA7B0DC212A2A2A2A2A0DC1
:101720000A0000003032A3BAB9D8B1D5BBD8CFD4A3
:10173000B3C9B9A6210D0A00667A657463313233E4
:10174000343536373800000066616E67676F6E6744
:10175000776F61696E6900002A2A2A2A2AC1ACBD06
:10176000D3C8C8B5E3CAA7B0DC212A2A2A2A2A0D81
:101770000A0000003033A3BAC1ACBDD3C8C8B5E37A
:10178000B3C9B9A6210D0A0010B504464FF4806113
:10179000064800F0DBF8002005490880054908806C
:1017A00005490870204600F043FC10BD48020020A7
:1017B000280000202A0000202C000020F0B50A4656
:1017C00000210023002400BF3DE0012505FA01F3BC
:1017D000156805EA03049C4234D105684F000326CE
:1017E000BE40B543056015794E00B54006683543E7
:1017F00005601579012D02D01579022D16D1856865
:101800004F000326BE40B543856055794E00B54074
:10181000866835438560456801268E40B54345603E
:10182000456896798E40B6B235434560C5684F002D
:101830000326BE40B543C560D5794E00B540C668A5
:101840003543C560491C1029BFD3F0BDF0B5002356
:1018500000244D07ED0E02FA05F3CE1000F120052D
:1018600055F826504E07F70E0F26BE40B543CF1051
:1018700000F1200646F82750CE1000F1200555F85B
:10188000265045EA0304CE1000F1200545F8264015
:10189000F0BD00BFFEE700001CB50121084600F0C6
:1018A000ABF80121102000F0A7F8012000900020E3
:1018B0008DF804008DF8070069460548FFF77EFFA4
:1018C0001C20009069460348FFF778FF1CBD00000C
:1018D00000000240001002401CB50121102000F061
:1018E0008BF80121202000F087F84FF4C0600090B1
:1018F00001208DF8040003208DF8050000208DF8EC
:1019000007008DF8060069460A48FFF757FF4FF4B5
:10191000C040009069460848FFF750FF0120074982
:1019200008600749C1F8A802064908600649C1F8DD
:10193000B8021CBD0014024000100240A4824242C2
:1019400000804242B402424200004242024600206D
:1019500000BF03E000231354431C18B28842F9DB94
:10196000704700BFFEE7704770B5002100230F22CB
:10197000C4781CB3174C246804F4E064C4F5E06434
:10198000C4F30721C1F10404E3B20A4144789C4046
:10199000E1B28478144021430C07210E0E4C0578E7
:1019A0006155047804F01F050124AC4005786D11E1
:1019B000AD0005F1E025C5F8004109E0047804F028
:1019C0001F050124AC40054D0678761145F82640E8
:1019D00070BD00000CED00E000E400E080E100E0FC
:1019E00002490143024A1160704700000000FA05F5
:1019F0000CED00E07047000029B1064A126802436E
:101A0000044B1A6004E0034A12688243014B1A60D7
:101A1000704700003038024029B1064A126802437C
:101A2000044B1A6004E0034A12688243014B1A60B7
:101A3000704700004038024029B1064A126802434C
:101A4000044B1A6004E0034A12688243014B1A6097
:101A50007047000044380240F0B500210022002405
:101A6000022500260223324F3F6807F00C0121B106
:101A7000042905D0082937D105E02E4F076036E04C
:101A80002D4F076033E02A4F3F1F3F68C7F3805652
:101A9000274F3F1F3F6807F03F036EB1264FB7FB4C
:101AA000F3F7DFF88CC0ACF1040CDCF800C0CCF329
:101AB000881C07FB0CF40CE01E4FB7FBF3F7DFF8B4
:101AC00070C0ACF1040CDCF800C0CCF3881C07FB40
:101AD0000CF4174F3F1F3F68C7F301477F1C7D0081
:101AE000B4FBF5F7076002E0124F076000BF00BFCC
:101AF0000F4F3F6807F0F0010909104F7A5C076843
:101B0000D74047600A4F3F6807F4E051890A0B4FFE
:101B10007A5C4768D7408760054F3F6807F46041AB
:101B2000490B064F7A5C4768D740C760F0BD00009C
:101B3000083802400024F40000127A003800002027
:101B4000704700000CB500200190009034480068F8
:101B500040F480303249086000BF3148006800F42A
:101B6000003000900198401C0190009818B901982D
:101B7000B0F5A04FF1D12A48006800F4003010B150
:101B80000120009001E0002000900098012846D13B
:101B900023484030006840F08050214940310860BF
:101BA0002048006840F440401E4908601C48083046
:101BB00000681B49083108600846006840F400408E
:101BC00008600846006840F4A05008601648091FE5
:101BD0000860081F006840F08070091F086000BF9F
:101BE0000F48006800F000700028F9D040F205703E
:101BF0000E4908600A480830006820F003000849D0
:101C0000083108600846006840F00200086000BF24
:101C100003480830006800F00C000828F8D10CBD1B
:101C2000003802400070004008544007003C024069
:101C300010480088401C00B20E4908800846B0F9E0
:101C40000000B0F5FA7F14D10B48007808B90120E4
:101C500000E00020084908700846007818B101200B
:101C60000649086002E0002004490860002001499C
:101C7000088070471E00002020000020A082424201
:101C800010B51548006840F4700013490860134807
:101C9000006840F001001149086000200F49083138
:101CA00008600E4800680E4908400C4908600D485D
:101CB000091D0860081F006820F48020091F0860C3
:101CC000002006490C310860FFF73CFF4FF0006030
:101CD00001498039086010BD88ED00E000380240FD
:101CE000FFFFF6FE1030002410B501210E4800F071
:101CF00060F8012816D10D480078401C40B20B490D
:101D00000870084600783C2808D109480068012876
:101D100004D1FFF70FFB002004490870012102489D
:101D200000F038F810BD0000000400401000002052
:101D3000000000201FB501210220FFF76DFE1D20CD
:101D40008DF8000000208DF801008DF802000120C0
:101D50008DF803006846FFF707FE42F2CF00ADF8AA
:101D6000040042F20F7002900020ADF80C00ADF8B4
:101D7000060001A9064800F037F801221146044880
:101D800000F028F80121024800F007F81FBD00000C
:101D900000040040CA430282704721B1028842F029
:101DA0000102028004E002884FF6FE731A400280AE
:101DB000704730B50246002000230024158A05EA4A
:101DC0000103958905EA010413B10CB1012000E07B
:101DD000002030BD1AB183890B43838102E08389DF
:101DE0008B4383817047000000220288184B984281
:101DF0000ED0184B98420BD0B0F1804F08D0164B44
:101E0000984205D0154B984202D0154B984204D108
:101E10004FF68F731A404B881A43124B984207D0E3
:101E2000114B984204D04FF6FF431A400B891A43D6
:101E300002804B68C3620B880385054B984202D031
:101E4000044B984201D18B7A038601238382704729
:101E50000000014000040140000400400008004070
:101E6000000C0040001000400014004010B588B085
:101E7000044601210846FFF7BFFD01211020FFF7AE
:101E8000DBFD072209212748FFF7E0FC07220A2192
:101E90002448FFF7DBFC4FF40070069002208DF819
:101EA0001C008DF81D0000208DF81E0001208DF80B
:101EB0001F0006A91B48FFF781FC4FF480600690C5
:101EC00000208DF81F0006A91648FFF777FC029442
:101ED0000020ADF80C00ADF80E00ADF81000ADF824
:101EE00014000C20ADF8120002A90F4800F0E6F92A
:101EF00025208DF8040000208DF805008DF80600DF
:101F000001208DF8070001A8FFF72EFD012240F205
:101F10002551054800F0ADF90121034800F066F9AC
:101F200008B010BD000002400010014010B588B09C
:101F3000044601210220FFF75FFD01218804FFF71D
:101F40006BFD07220A212A48FFF780FC07220B219C
:101F50002748FFF77BFC4FF48060069002208DF845
:101F60001C008DF81D0000208DF81E0001208DF84A
:101F70001F0006A91E48FFF721FC4FF400600690E1
:101F800000208DF81F0006A91948FFF717FC0294DE
:101F90000020ADF80C00ADF80E00ADF81000ADF863
:101FA00014000C20ADF8120002A9124800F086F9C6
:101FB00027208DF8040000208DF805008DF806001C
:101FC00001208DF8070001A8FFF7CEFC012240F2A6
:101FD0002551084800F04DF9012240F224410548FE
:101FE00000F047F90121034800F000F908B010BDE6
:101FF000000402400048004070B504460D462646E5
:102000000FE03178094800F0C8F9761C00BF802144
:10201000064800F0F7F80028F9D08021034800F0C6
:10202000CDF82800A5F10105EBD170BD00480040B6
:1020300010B504460BE014F8011B074800F0ADF999
:1020400000BF8021044800F0DDF80028F9D0207896
:102050000028F0D110BD00000048004010B5002459
:1020600040F22551144800F0DAF8012822D1124834
:1020700000F08EF9C4B21148114909784454232C58
:1020800003D101200F49087004E00D480078401C7E
:102090000B4908702146084800F07FF900BF8021F5
:1020A000054800F0AFF80028F9D040F22551024869
:1020B00000F08DF810BD0000001001404800002025
:1020C000240000202500002010B5002440F22551F6
:1020D000144800F0A4F8012822D1124800F058F961
:1020E000C4B21148114909784454232C03D101206A
:1020F0000F49087004E00D480078401C0B49087037
:1021000021460C4800F049F900BF8021094800F041
:1021100079F80028F9D040F22551024800F057F82C
:1021200010BD0000004400404801002026000020AF
:10213000270000200010014010B5002440F2255176
:10214000194800F06CF8012816D1174800F020F962
:10215000C4B216480088B0F5806F08DA14481349F5
:102160000988445411480088401C1049088040F2F6
:1021700025510D4800F02BF840F224410A4800F0A8
:102180004EF801280ED101210A4A11700749098829
:10219000094A11800021054A118003490888091D58
:1021A000088800BF10BD0000004800402800002043
:1021B000480200202C0000202A00002001F40072B8
:1021C000B2F5007F00D100BFCA430280704710B54E
:1021D0000022002340F66A14A14200D100BF0A1277
:1021E00001249440A3B2DC43048010BD21B1828954
:1021F00042F40052828104E082894DF6FF731A4056
:102200008281704702460020B1F5007F00D100BFF7
:1022100013880B400BB1012000E00020704770B51F
:102220000246002400230025002040F66A16B14231
:1022300000D100BFC1F3421501F01F03012606FAC9
:1022400003F3012D02D19689334006E0022D02D11D
:10225000168A334001E0968A33400C12012606FAB2
:1022600004F41688344013B10CB1012000E00020C2
:1022700070BDF0B50346002400260025002040F67E
:102280006A17B94200D100BF1846C1F3421401F0E9
:102290001F06012707FA06F5012C01D10C3004E0D6
:1022A000022C01D1103000E014301AB107682F431E
:1022B000076002E00768AF430760F0BD2DE9FF4704
:1022C00005460E460024A14600BFA046B08900B1D5
:1022D00000BF2C8A24F44054F08804432C82AC893B
:1022E00041F20C608443B088318908437189084306
:1022F0000443AC81AC8A24F44074B0890443AC82BA
:102300006846FFF7A9FB2048854202D01F48854256
:1023100002D1DDF80C9001E0DDF80890A88900F406
:10232000004040B109EBC90000EB091031684900D9
:10233000B0FBF1F707E009EBC90000EB09103168C9
:102340008900B0FBF1F76420B7FBF0F0040120092D
:10235000642101FB1078A88900F4004040B13220CC
:1023600000EBC800B0FBF1F000F00700044308E008
:10237000322000EB08106421B0FBF1F000F00F00F8
:1023800004432C81BDE8FF87001001400014014088
:1023900001468888C0F308007047C1F308028280B4
:1023A000704700BFFEE700000FB4054B10B503A94E
:1023B000044A029800F0DEF810BC5DF814FB00003F
:1023C0006D2D0008300000200FB4084B10B504A993
:1023D00002AA039800F0CEF8044602A9002000F0FB
:1023E00060FC204610BC5DF814FB0000A32C000824
:1023F00002E008C8121F08C1002AFAD170477047CE
:10240000002001E001C1121F002AFBD1704700002B
:102410002DE9FF5FDDE90220010DDDF838B0024350
:1024200018D044F61050A1F2FF3141430D140F981B
:10243000012820D0A5EB0B00401C5FEA000A4FF0FA
:102440000004474EDFF81C91A046504616D5CAF14D
:10245000000728E00F98012443A2012808D000219A
:1024600000980F9BC0E90021C0E90243BDE8FF9F2F
:102470006FEA0B01F4E7CBF10000DEE7074612E05C
:10248000F80707D02246334640464946FDF77CFF11
:10249000804689462246334610461946FDF774FFAA
:1024A00004460E467F10002FEAD1DDE90201BAF1A1
:1024B000000F42464B4602DAFDF766FF01E0FEF7E9
:1024C000C2F804460E460022284BFDF7CFFF03D882
:1024D0004FF0FF30014607E00022254B20463146F1
:1024E000FDF7ABFEFEF71EF9102409E0002C0ADB15
:1024F0000A220023FDF7E8FF019B30321A55641EC3
:1025000050EA0102F2D1641C019AC4F1110314448F
:102510000F9A012A03D0012208430DD10AE0084393
:1025200004D000204FF0110B0F9080E7A3EB0B05B8
:102530006D1E0DE05B4504DD4FF0000205F1010565
:1025400004E003DA4FF00002A5F10105002AECD007
:1025500000980F99C0E90231C0E9004586E7000004
:10256000000024400000F03F300000000000F04375
:102570000000E03F2DE9FF4F95B09B468946064697
:1025800000250FE2252877D100242746F84A0121AB
:10259000059400E0044316F8013F203B01FA03F0E4
:1025A0001042F7D130782A2811D06FF02F033078FD
:1025B000A0F13002092A16D8059A44F0020402EB71
:1025C000820203EB42021044761C0590EFE759F8B3
:1025D000042B0592002A03DA504244F4005405907B
:1025E00044F00204761C30782E2816D116F8010F1C
:1025F00044F004042A280DD06FF02F023078A0F1A7
:102600003003092B09D807EB870302EB4303C718F4
:10261000761CF3E759F8047B761C30786C280FD0D1
:1026200006DC4C2817D068280DD06A2814D104E0A5
:10263000742810D07A280FD10DE044F400140AE079
:1026400044F4801401E044F440147278824202D1D0
:1026500004F58014761C761C307866280BD013DCC9
:10266000582877D009DC002875D04528F6D04628B0
:10267000F4D047281AD19DE118E0632835D06428AA
:1026800079D0652812D195E1702873D008DC6728CD
:10269000F1D069286FD06E280DD06F2806D1B5E033
:1026A00073282CD0752875D0782874D05A4617997D
:1026B00090476D1C75E1C4F30250022809D003282D
:1026C0000DD0D9F8001004280DD00D6009F10409CF
:1026D00067E1D9F80010EA17C1E90052F6E7D9F826
:1026E00000100D80F2E70D70F0E719F8041B8DF86B
:1026F000001000208DF80100EA46012003E059F89F
:1027000004AB4FF0FF3061074FF0000102D40DE041
:1027100008F101018846B9420FDA8045F8DB1AF862
:1027200008100029F4D108E008F10101884681422F
:10273000FADB1AF808100029F6D105985B46A0EBE1
:10274000080721463846179A00F094FA284400EB0F
:10275000080507E04DE029E10DE01AF8010B5A46A3
:1027600017999047B8F10108F7D25B4621463846E1
:10277000179A13E142E00A220092C4F302524FF08A
:10278000000A022A08D059F804CB032A4FEAEC7158
:102790000AD00DE029E02AE009F1070121F0070243
:1027A000F2E802C1914609E00FFA8CFC4FEAEC71A5
:1027B000042A03D14FFA8CFC4FEAEC71002907DAA6
:1027C0000A460021DCF1000C61EB02012D2202E03F
:1027D000220504D52B228DF80420012203E0E20714
:1027E00001D02022F7E7904659E00A2102E01022AA
:1027F0000DE010214FF0000A00910BE010224FF085
:10280000000A44F004040827009203E008224FF075
:10281000000A0092C4F30252022A05D059F804CBF0
:102820000021032A08D009E009F1070121F007027D
:10283000F2E802C1914605E01FFA8CFC042A01D19E
:102840000CF0FF0C4FF00008220728D5702806D0A6
:10285000009B83F0100353EA0A0305D00EE04022E8
:102860008DF80420012208E05CEA010206D0302243
:102870008DF804208DF8050002229046009B83F01D
:10288000080353EA0A030AD15CEA010201D1620794
:1028900005D530228DF804204FF001087F1E5828FE
:1028A00004D034A003900EA802900DE036A0F9E702
:1028B00053466046009AFDF707FE84460398825C03
:1028C0000298401E029002705CEA0100F0D102986A
:1028D00006A9081A00F1200A600702D524F4803402
:1028E00000E00127574502DDA7EB0A0000E00020C9
:1028F00000EB0A01009005984144401A0590E0035E
:1029000006D45B462146179A059800F0B3F90544B2
:10291000002706E001A85A46C05D179990476D1C34
:102920007F1C4745F6DBE0030CD55B462146179A32
:10293000059800F09FF9054404E030205A461799A5
:1029400090476D1C0099481E00900029F5DC08E0B6
:10295000029802995A460078491C029117999047AB
:102960006D1CBAF10001AAF1010AF1DC65E1000079
:102970000928010030313233343536373839616255
:102980006364656600000000303132333435363719
:1029900038394142434445460000000000F058F9F0
:1029A0000544761C307800287FF4ECAD19B0284639
:1029B000BDE8F08F620700D4062709F1070222F074
:1029C000070CFCE80223E14603F000485FEA080C2C
:1029D00002D00FF2702C0DE05FEA045C02D50FF21A
:1029E000682C07E05FEAC47C02D00FF2602C01E0A3
:1029F000AFF2700C4FF0FF3823F00043CDF850C019
:102A000065280CD006DC452809D046281DD047286B
:102A10003DD13DE0662818D067287ED138E00021FE
:102A2000112F01DB112000E0781CCDE9000106A97F
:102A30000EA8FFF7EDFCDDE90F010E9A03910021CE
:102A4000009207F1010A04914DE04FF00040009719
:102A5000CDE9011006A90EA8FFF7DAFCDDE90F02A7
:102A600003920E9B11990022DDF80CA000930492B2
:102A700011B9791C00EB010AB7EB0A0004D4C0F1CC
:102A8000FF3007F1010A0490AAEB0700019044E02F
:102A9000012F00DA01270021112F01DD112000E0B4
:102AA0003846CDE9000106A90EA8FFF7B1FCDDE923
:102AB0000F010E9A0391002104910092BA4621075A
:102AC0000CD40399514500DA8A46BAF1010F05DDAD
:102AD000009AAAF10101515C302908D0B84202DA0B
:102AE00010F1040F06DA0121CDE9011015E0AAF179
:102AF0000101E9E7002805DC049901440491AAEBEF
:102B0000000102E0411C514500DD8A460499401A4B
:102B1000401C01904FF000400290200704D401981F
:102B2000504501DBCDF8048000208DF84F0002985D
:102B30000DF14F07B0F1004F25D02B200E900298D9
:102B40004FF0020800280CDA404202902D200E902F
:102B500007E00A210298FDF7A1FC3031029007F846
:102B6000011DB8F10001A8F10108F2DC029800286B
:102B7000EFD1791E0E980870307800F0200040F0F8
:102B8000450007F8020D12A8C01B00F107081498B1
:102B9000007800B1012000EB0A01019801EBE0711F
:102BA00005984144401A401E0590E00306D45B4658
:102BB0002146179A059800F05DF8054414980078AE
:102BC00018B15A46179990476D1CE00324D55B460F
:102BD0002146179A059800F04DF805441CE004982A
:102BE000002807DBDDE90301884203DD0098405C33
:102BF000179901E0179930205A469047049805F13B
:102C00000105401C04900198401E019004D12E2023
:102C10005A46179990476D1CBAF10001AAF1010AB2
:102C2000DDDC05E017F8010B5A46179990476D1C3B
:102C3000B8F10001A8F10108F4DC5B462146179ABF
:102C40000598ABE62D0000002B00000020000000DE
:102C50002DE9F041044600251E461746880404D499
:102C600005E039462020B0476D1C641EF9D5284682
:102C7000BDE8F0812DE9F041044600251E4690464E
:102C8000C80301D5302700E02027880404D505E0DB
:102C900041463846B0476D1C641EF9D52846BDE84C
:102CA000F0810A68531C0B601070704710B5014624
:102CB0000B46002220E000204FF0E0242061114864
:102CC0000068401E60610020A0610F48007820610C
:102CD0000CE04FF0E020026902F4803000B106E021
:102CE00002F0010010B94FF0FF3010BDF1E700BF56
:102CF00000204FF0E02420611800A3F10103DAD195
:102D000000BFF2E7180000201C00002010B50146AB
:102D10000B46002220E000204FF0E0242061114803
:102D20000078401E60610020A0610F48007820619B
:102D30000CE04FF0E020026902F4803000B106E0C0
:102D400002F0010010B94FF0FF3010BDF1E700BFF5
:102D500000204FF0E02420611800A3F10103DAD134
:102D600000BFF2E7140000201C00002070B50446EC
:102D70000D46A1B20548FFF710FB00BF80210348B4
:102D8000FFF740FA0028F9D0204670BD001001403E
:102D90008CB00024002500200A900B90202102A86E
:102DA000FDF727FA4FF4A060FEF71AFEA820FDF702
:102DB00005FD4FF4E130FFF759F8FEF78DFDFEF702
:102DC0006BFDFDF7D9FCFDF7C7FDFEF7B3FF4FF430
:102DD000E130FEF713FA4FF47A70FFF767FF38A07F
:102DE000FFF7E2FA3DA0FFF7DFFA06E044A0FFF7A5
:102DF000DBFA4FF47A70FFF759FFFEF729FC002841
:102E0000F4D148A0FFF7D0FA50A0FFF7CDFAFDF7B4
:102E100099FF5AA0FFF7C8FA51E0634800780128EB
:102E20001ED16248006801281AD161A16148FDF7EE
:102E3000EBF910B101206049086060A15D48FDF721
:102E4000E3F910B100205C4908604FF40071594863
:102E5000401FFEF77BFD0020594908805249087049
:102E6000601C84B20120FFF721FFB4F5FA6F26D170
:102E70000AA8FDF7C9FC054605BB9DF82B209DF867
:102E80002A1050A0FFF790FA9DF829209DF82810ED
:102E900050A0FFF789FA9DF829009DF82810CDE988
:102EA00000109DF82B309DF82A204FA102A8FFF7B3
:102EB0008BFA012202A950A0FEF7A6F90024ACE784
:102EC000546869732069732045535038323636C4CC
:102ED000A3BFE920746573740D0A00002323232324
:102EE000232045535038323636C4A3BFE9C1ACBDA8
:102EF000D3CDF8C2E7D6D02023232323230D0A0005
:102F000045535038323636C4A3BFE9C1ACBDD3CD2A
:102F1000F8C2E7D6D02E2E2E2E2E2E2E0D0A0D0AFA
:102F2000000000002323232323204553503832364A
:102F300036C4A3BFE9C1ACBDD3CDF8C2E7B3C9B9AC
:102F4000A62023232323230D0A0000002323232369
:102F50002320C1ACBDD3B0CDB7A8D4C6CEEFC1AA93
:102F6000CDF8B7FECEF1C6F7D6D02E2E2E2E2E2EB1
:102F70002023232323230D0A0000000023232323DF
:102F80002320C1ACBDD3B0CDB7A8D4C6CEEFC1AA63
:102F9000CDF8B7FECEF1C6F7B3C9B9A620232323D7
:102FA00023230D0A000000002C0000200000002058
:102FB0006F6E00004D020020A08242426F666600E4
:102FC00028000020CEC2B6C8A3BA25642E2564A16D
:102FD000E60D0A00CAAAB6C8A3BA25642E25642540
:102FE0002552480D0A0000002325642E2564232560
:102FF000642E25642500000064687431316D71749D
:103000007430303400000000283000080000002038
:1030100048000000F023000870300008480000203D
:10302000002A00000024000800000000000000004A
:103030000000000000000000000000000000000090
:103040000000000000000000000000000000000080
:103050000000000000000000000000000000000070
:10306000000000000102030401020304060708092E
:040000050800018965
:00000001FF
