:020000040800F2
:10000000F82200105D020008A50D0008E90C0008A8
:10001000A10D0008D90800080B140008000000001A
:100020000000000000000000000000009D0100082A
:10003000E10A000800000000F9010008491000086A
:1000400077020008770200087702000877020008AC
:10005000770200087702000877020008770200089C
:10006000770200087702000877020008770200088C
:10007000770200087702000877020008770200087C
:10008000770200087702000877020008770200086C
:10009000770200087702000877020008770200085C
:1000A000770200087702000877020008770200084C
:1000B000770200087702000877020008770200083C
:1000C000770200087702000877020008770200082C
:1000D00077020008A91100087702000877020008DB
:1000E000770200087702000877020008770200080C
:1000F00077020008770200087702000877020008FC
:1001000077020008770200087702000877020008EB
:1001100077020008770200087702000877020008DB
:1001200077020008770200087702000877020008CB
:1001300077020008770200087702000877020008BB
:1001400077020008770200087702000877020008AB
:10015000770200087702000877020008770200089B
:10016000770200087702000877020008770200088B
:10017000770200087702000877020008770200087B
:100180007702000877020008DFF80CD000F056FB79
:1001900000480047BD200008F82200102C4B1968C9
:1001A0000868B0E8F04F80F30988BFF36F8F4FF015
:1001B000000080F3118870470000000008480068C4
:1001C000006880F308884FF0000080F3148862B65E
:1001D00061B6BFF34F8FBFF36F8F00DF00BF00BF6B
:1001E00008ED00E0DFF80C00016841F470010160E7
:1001F000704700BF88ED00E0EFF30980BFF36F8F19
:10020000134B1A681EF0100F08BF20ED108A20E96A
:10021000F04F106009B44FF0500080F31188BFF325
:100220004F8FBFF36F8F03F03FF84FF0000080F364
:10023000118809BC19680868B0E8F04F1EF0100F6B
:1002400008BFB0EC108A80F30988BFF36F8F704746
:1002500054000010EFF30580704700000648804707
:1002600006480047FEE7FEE7FEE7FEE7FEE7FEE79B
:10027000FEE7FEE7FEE7FEE77D10000889010008C3
:1002800040EA01039B0703D009E008C9121F08C018
:10029000042AFAD203E011F8013B00F8013B521E98
:1002A000F9D27047D2B201E000F8012B491EFBD20F
:1002B00070470022F6E710B513460A460446194671
:1002C000FFF7F0FF204610BD2DE9FE4F804681EA82
:1002D0000300C00F0C46009021F0004123F00045C0
:1002E000B8EB0200A94105D24046214690461C4683
:1002F0000B46024623F00040104347D0270DC7F3BA
:100300000A00C3F30A510290401A019040286BDAA8
:10031000C3F3130040F4801B0098924620B10023E1
:10032000D2EB030A63EB0B0B01985946C0F1400274
:10033000504600F0DCF906460D4650465946019AF3
:1003400000F0F4F910EB08006141002487EA115233
:1003500084EAE7731A4340D0009A62B3019A012AF3
:100360004FEA075215DC001B61EB02014FF000421F
:1003700002EA0752CDE90042001C41F580113246E5
:100380002B4600F0F4F903B0BDE8F08F404621465B
:10039000F9E7001B61EB0201001C41F58013001816
:1003A0005B412018A2F5001747EB030140EAD57026
:1003B000B6196D4111E06D084FEA360645EAC07581
:1003C0004FEA0752001B61EB0201001C41F580114E
:1003D00049084FEA30000019514132462B4603B01C
:1003E000BDE8F04F00F0B4B90098012240000023AE
:1003F000D0EB020263EBE073009821464FEAE07411
:10040000B8EB000061EB0401E9E783F000435BE730
:1004100081F0004158E72DE9FE4F81EA030404F022
:10042000004421F0004100944FF0000B23F0004302
:1004300050EA01045ED052EA03045BD0C3F30A54CD
:10044000C1F30A552C44A4F2F3340194A0FB0254E6
:10045000C1F3130141F48011C3F3130343F4801378
:1004600001FB024400FB034E840A970A44EA8154CC
:1004700047EA8357A4FB076802958D0A05FB0785A9
:100480004FEA932C04FB0C542705029D4FEA0658B3
:1004900047EA1637B5EB08056EEB070C870E920E90
:1004A00047EA811742EA8312A7FB0201B6EB0B0170
:1004B00064EB00042B0D43EA0C335E1844EB1C5034
:1004C000DA465146E7FB0201C5F313044FEA0B334A
:1004D00043EA14534FEA0432019C43EA0603A4F1B1
:1004E0000C040294009CCDE900B400F040F903B084
:1004F000BDE8F08F00200146F9E72DE9F04D81EAD3
:10050000030404F0004B21F0004514464FF0000AAC
:1005100023F0004150EA050220D054EA01021DD028
:10052000C5F30A570246C5F31303C1F31300C1F321
:100530000A5640F4801543F48013A7EB0608101BFD
:10054000D64608F2FD3873EB050002D308F1010826
:1005500001E092185B41B8F1000F03DA0020014678
:10056000BDE8F08D00204FF48011064684460EE071
:10057000171B73EB050705D3121B63EB050306433B
:100580004CEA010C49084FEA300092185B4150EAEE
:100590000107EDD152EA030012D082EA040083EA97
:1005A0000501084305D0101BAB4106D201220023F0
:1005B00006E000224FF0004302E06FF0010253100A
:1005C0001AEB06004CEB085110EB0A0041EB0B0153
:1005D000BDE8F04D00F0BCB800F0004230F0004043
:1005E0000AD0C10D01F56071C0F3160042EA015155
:1005F000C2084007114370470020014670470000C1
:1006000030B5041E71F1000404DB4FF00044404299
:1006100064EB0101141E73F1000405DB1C464FF06E
:100620000043524263EB04038B4208BF824230BD59
:1006300030B5041E71F1000404DB4FF00044404269
:1006400064EB0101141E73F1000405DB1C464FF03E
:100650000043524263EB0403994208BF904230BD0D
:1006600030B50B46014600202022012409E021FA82
:1006700002F59D4205D303FA02F5491B04FA02F57F
:100680002844151EA2F10102F1DC30BD2DE9F05F16
:100690000546002092469B468846064681464024F1
:1006A0001BE0284641464746224600F02FF85346B5
:1006B0005A46C01A914110D311461846224600F0FE
:1006C00016F82D1A67EB01084F462246012000213B
:1006D00000F00DF817EB00094E41201EA4F10104B3
:1006E000DFDC484631462A464346BDE8F09F202AD3
:1006F00004DB203A00FA02F1002070479140C2F179
:10070000200320FA03F3194390407047202A04DBAA
:10071000203A21FA02F00021704721FA02F3D0407A
:10072000C2F120029140084319467047202A06DB97
:10073000CB17203A41FA02F043EAE07306E041FAAF
:1007400002F3D040C2F1200291400843194670479D
:1007500010B5141E73F1000408DA401C41F10001C9
:1007600092185B411A4301D120F0010010BD2DE920
:10077000F04D92469B4611B1B1FA81F202E0B0FA17
:1007800080F220329046FFF7B2FF04460F4640EA5F
:100790000A0041EA0B0153465A46084313D011465A
:1007A00053EA010019D0C8F140025046FFF7AEFFEE
:1007B00005460E46504659464246FFF798FF084305
:1007C00005D0012004E020463946BDE8F08D002028
:1007D000054346EAE0762C4337430A986305E40A6A
:1007E000A0EB08000022FD0A44EA47540A3002D573
:1007F00000200146E9E7010510196941DDE90845D6
:1008000000196941BDE8F04DA2E7C1F30A52C1F3F6
:10081000130140F2FF3341F480119A4202DA0020C2
:100820000146704740F233439A42A2F2334202DC5F
:100830005242FFF76BBFFFF75ABF0000064C074D4F
:1008400006E0E06840F0010394E8070098471034A0
:10085000AC42F6D3FFF79CFC144200084442000867
:100860001CB50121202000F0E5FA4FF480700090C3
:1008700001208DF8040003208DF8050000208DF87C
:1008800007008DF806006946034800F02AF90020A9
:10089000024908601CBD000000140240A0824242D0
:1008A00070B506460C46002500BF0EE00120084941
:1008B0000860304600F012F800200649C1F8A00296
:1008C000304600F00BF8681C85B2A542EEDB70BD27
:1008D000A08242420080424200BFFEE7002106E0C3
:1008E00042F6E06100BF0A00A1F10101FBD1020064
:1008F000A0F1010398B2F3D1704700002DE9F04751
:100900000546002400260027A046A146012000F04D
:10091000BFF800204C490860142001F063FB01205F
:100920004A49C1F8A4021E2001F07CFB002000F01F
:10093000AFF800BF0CE0601C84B2012001F072FB34
:1009400041F29410844203DD4FF0FF30BDE8F087A0
:100950003D48803800680128EDD0002409E0601C83
:1009600084B2012001F05EFB642C02DD6FF0010017
:10097000ECE73548803800680028F0D0002409E012
:10098000601C84B2012001F04DFB642C02DD6FF08D
:100990000200DBE72C48803800680128F0D00026F0
:1009A0003AE04FF00008072730E0002409E0601C1F
:1009B00084B2012001F036FB3C2C02DD6FF0030015
:1009C000C4E72148803800680028F0D0282001F0D2
:1009D00029FB1D4880380068012815D1B84040EA3D
:1009E000080000F0FF08002409E0601C84B2012028
:1009F00001F018FB282C02DD6FF00400A6E7124876
:100A0000803800680128F0D0781E47B2002FCCDA79
:100A100005F80680701C46B2052EC2DB287869787E
:100A20000844A9780844E97800EB010909F0FF00BF
:100A30002979884202D06FF0050087E7642001F031
:100A4000F1FA002082E70000A40243420000434282
:100A50001CB50121402000F0EDF94FF4007000902A
:100A600001208DF8040003208DF8050001208DF889
:100A7000070000208DF806006946034800F031F8B1
:100A80000120024908601CBD00180240A402434234
:100A90001CB504464FF400700090012C0CD10120CD
:100AA0008DF8040003208DF8050001208DF8070063
:100AB00000208DF806000AE034B900208DF804000B
:100AC00001208DF8070002E04FF0FF301CBD6946A1
:100AD000024800F006F80020F8E700000018024085
:100AE0007047F0B50A4600210023002400BF3DE016
:100AF000012505FA01F3156805EA03049C4234D187
:100B000005684F000326BE40B543056015794E00C9
:100B1000B5400668354305601579012D02D0157979
:100B2000022D16D185684F000326BE40B54385606F
:100B300055794E00B5408668354385604568012685
:100B40008E40B5434560456896798E40B6B23543D0
:100B50004560C5684F000326BE40B543C560D579E2
:100B60004E00B540C6683543C560491C1029BFD347
:100B7000F0BDF0B5002300244D07ED0E02FA05F399
:100B8000CE1000F1200555F826504E07F70E0F261F
:100B9000BE40B543CF1000F1200646F82750CE10D6
:100BA00000F1200555F8265045EA0304CE1000F167
:100BB000200545F82640F0BD10B52DED068BB0EEB2
:100BC000408A00249FED260BB0EE409AF0EE609A2A
:100BD0000120254908600C2001F024FA0020234957
:100BE000C1F8980200BF0CE0641C012001F01AFA61
:100BF0004FF6E850844204DD9FED1D0BBDEC068BE3
:100C000010BD1D4800680028EED000240AE0641CD6
:100C1000082001F007FA41F6BD70844202DD9FED25
:100C2000170BEBE7144800680128F0D000EE104ADB
:100C3000B8EEC00A20EE080A10EE101A0846FFF7B8
:100C4000CBFC41EC1A0B9FED0F0B53EC102BFFF775
:100C500054FC41EC190BB0EE490AF0EE690ACDE7FD
:100C600000000000000000009882404200804042E6
:100C7000000000000000F0BF180242420000000027
:100C8000000000C000000000000000401CB5012171
:100C9000022000F0CFF80121102000F0CBF8402016
:100CA000009001208DF8040003208DF8050000203D
:100CB0008DF807008DF8060069460848FFF711FF18
:100CC0004020009000208DF8040069460448FFF79A
:100CD00008FF0020034908601CBD0000000402401A
:100CE000001002409882404200BFFEE71CB501217F
:100CF000084600F09FF80121102000F09BF8012029
:100D0000009000208DF804008DF807006946054822
:100D1000FFF7E7FE1C20009069460348FFF7E1FE5D
:100D20001CBD000000000240001002401CB5012163
:100D3000102000F07FF80121202000F07BF84FF414
:100D4000C060009001208DF8040003208DF805009C
:100D500000208DF807008DF8060069460A48FFF765
:100D6000C0FE4FF4C040009069460848FFF7B9FE46
:100D70000120074908600749C1F8A8020649086030
:100D80000649C1F8B8021CBD001402400010024020
:100D9000A482424200804242B402424200004242E7
:100DA00000BFFEE77047000070B5002100230F224E
:100DB000C4781CB3174C246804F4E064C4F5E06400
:100DC000C4F30721C1F10404E3B20A4144789C4012
:100DD000E1B28478144021430C07210E0E4C0578B3
:100DE0006155047804F01F050124AC4005786D11AD
:100DF000AD0005F1E025C5F8004109E0047804F0F4
:100E00001F050124AC40054D0678761145F82640B3
:100E100070BD00000CED00E000E400E080E100E0C7
:100E200002490143024A1160704700000000FA05C0
:100E30000CED00E029B1064A12680243044B1A6027
:100E400004E0034A12688243014B1A6070470000B5
:100E50003038024029B1064A12680243044B1A6036
:100E600004E0034A12688243014B1A607047000095
:100E700044380240F0B5002100220024022500265B
:100E80000223324F3F6807F00C0121B1042905D03D
:100E9000082937D105E02E4F076036E02D4F076057
:100EA00033E02A4F3F1F3F68C7F38056274F3F1F4D
:100EB0003F6807F03F036EB1264FB7FBF3F7DFF84B
:100EC0008CC0ACF1040CDCF800C0CCF3881C07FB30
:100ED0000CF40CE01E4FB7FBF3F7DFF870C0ACF179
:100EE000040CDCF800C0CCF3881C07FB0CF4174F93
:100EF0003F1F3F68C7F301477F1C7D00B4FBF5F738
:100F0000076002E0124F076000BF00BF0F4F3F684D
:100F100007F0F0010909104F7A5C0768D740476075
:100F20000A4F3F6807F4E051890A0B4F7A5C476823
:100F3000D7408760054F3F6807F46041490B064F73
:100F40007A5C4768D740C760F0BD000008380240AF
:100F50000024F40000127A00440000100CB50020B8
:100F6000019000903448006840F4803032490860B5
:100F700000BF3148006800F4003000900198401C28
:100F80000190009818B90198B0F5A04FF1D12A4806
:100F9000006800F4003010B10120009001E0002052
:100FA00000900098012846D123484030006840F066
:100FB00080502149403108602048006840F440409A
:100FC0001E4908601C48083000681B490831086049
:100FD0000846006840F4004008600846006840F495
:100FE000A05008601648091F0860081F006840F0FC
:100FF0008070091F086000BF0F48006800F0007093
:101000000028F9D040F205700E4908600A480830FF
:10101000006820F0030008490831086008460068AD
:1010200040F00200086000BF03480830006800F08C
:101030000C000828F8D10CBD0038024000700040B8
:1010400008544007003C024010B500BF502080F318
:101050001188BFF34F8FBFF36F8F00BF02F032FED6
:1010600018B14FF080500449086000BF002080F3A1
:10107000118800BF10BD000004ED00E010B5154858
:10108000006840F47000134908601348006840F09D
:1010900001001149086000200F49083108600E481E
:1010A00000680E4908400C4908600D48091D086099
:1010B000081F006820F48020091F086000200649EE
:1010C0000C310860FFF74AFF4FF00060014980399A
:1010D000086010BD88ED00E000380240FFFFF6FE1A
:1010E0001030002410B588B0044601210846FFF7EF
:1010F000A1FE01211020FFF7ADFE0722092128489B
:10110000FFF737FD07220A212548FFF732FD4FF48C
:101110000070069002208DF81C008DF81D00002044
:101120008DF81E0001208DF81F0006A91C48FFF74E
:10113000D8FC4FF48060069000208DF81F0006A9AF
:101140001748FFF7CEFC02940020ADF80C00ADF874
:101150000E00ADF81000ADF814000C20ADF8120030
:1011600002A9104800F0DEF825208DF804000420C4
:101170008DF8050000208DF8060001208DF807008D
:1011800001A8FFF711FE012240F22551054800F0A9
:10119000A3F80121034800F05CF808B010BD00007E
:1011A000000002400010014070B5002400BF502133
:1011B000EFF3118081F31188BFF34F8FBFF36F8F6F
:1011C00000BF054640F22551164800F05BF80128A3
:1011D00022D1144800F010F9C4B213481349097819
:1011E0004454232C03D101201149087004E00F4816
:1011F0000078401C0D49087021460A4800F001F9AA
:1012000000BF8021074800F030F80028F9D040F2F4
:101210002551044800F00EF800BF85F3118800BF87
:1012200070BD000000100140C80000103800001020
:101230003900001010B50022002340F66A14A142C4
:1012400000D100BF0A1201249440A3B2DC43048001
:1012500010BD21B1828942F40052828104E082896A
:101260004DF6FF731A408281704702460020B1F5A7
:10127000007F00D100BF13880B400BB1012000E0BC
:101280000020704770B5024600240023002500208E
:1012900040F66A16B14200D100BFC1F3421501F019
:1012A0001F03012606FA03F3012D02D1968933406C
:1012B00006E0022D02D1168A334001E0968A3340BF
:1012C0000C12012606FA04F41688344013B10CB14E
:1012D000012000E0002070BDF0B503460024002688
:1012E0000025002040F66A17B94200D100BF184619
:1012F000C1F3421401F01F06012707FA06F5012C7D
:1013000001D10C3004E0022C01D1103000E0143087
:101310001AB107682F43076002E00768AF43076010
:10132000F0BD00002DE9FF4705460E460024A1460A
:1013300000BFA046B08900B100BF2C8A24F44054FD
:10134000F08804432C82AC8941F20C608443B0885D
:1013500031890843718908430443AC81AC8A24F481
:101360004074B0890443AC826846FFF783FD20488F
:10137000854202D01F48854202D1DDF80C9001E081
:10138000DDF80890A88900F4004040B109EBC900DD
:1013900000EB091031684900B0FBF1F707E009EBF9
:1013A000C90000EB091031688900B0FBF1F7642037
:1013B000B7FBF0F004012009642101FB1078A88933
:1013C00000F4004040B1322000EBC800B0FBF1F067
:1013D00000F00700044308E0322000EB081064210D
:1013E000B0FBF1F000F00F0004432C81BDE8FF8753
:1013F000001001400014014001468888C0F3080035
:101400007047C1F308028280704700BFFEE700000A
:101410000FB4054B10B503A9044A029800F0CAF8AE
:1014200010BC5DF814FB0000992000083C0000107F
:1014300002E008C8121F08C1002AFAD1704770479D
:10144000002001E001C1121F002AFBD170470000FB
:101450002DE9FF5FDDE90220010DDDF838B0024320
:1014600018D044F61050A1F2FF3141430D140F98EB
:10147000012820D0A5EB0B00401C5FEA000A4FF0CA
:101480000004474EDFF81C91A046504616D5CAF11D
:10149000000728E00F98012443A2012808D000216A
:1014A00000980F9BC0E90021C0E90243BDE8FF9FFF
:1014B0006FEA0B01F4E7CBF10000DEE7074612E02C
:1014C000F80707D02246334640464946FEF7A3FFB9
:1014D000804689462246334610461946FEF79BFF52
:1014E00004460E467F10002FEAD1DDE90201BAF171
:1014F000000F42464B4602DAFEF78DFF01E0FEF791
:10150000FCFF04460E460022284BFFF791F803D853
:101510004FF0FF30014607E00022254B20463146C0
:10152000FEF7D2FEFFF771F9102409E0002C0ADB68
:101530000A220023FFF7AAF8019B30321A55641ED5
:1015400050EA0102F2D1641C019AC4F1110314445F
:101550000F9A012A03D0012208430DD10AE0084363
:1015600004D000204FF0110B0F9080E7A3EB0B0588
:101570006D1E0DE05B4504DD4FF0000205F1010535
:1015800004E003DA4FF00002A5F10105002AECD0D7
:1015900000980F99C0E90231C0E9004586E70000D4
:1015A000000024400000F03F300000000000F04345
:1015B0000000E03F2DE9FF4F95B09B468946064667
:1015C00000250FE2252877D100242746F84A01217B
:1015D000059400E0044316F8013F203B01FA03F0B4
:1015E0001042F7D130782A2811D06FF02F033078CD
:1015F000A0F13002092A16D8059A44F0020402EB41
:10160000820203EB42021044761C0590EFE759F882
:10161000042B0592002A03DA504244F4005405904A
:1016200044F00204761C30782E2816D116F8010FEB
:1016300044F004042A280DD06FF02F023078A0F176
:101640003003092B09D807EB870302EB4303C718C4
:10165000761CF3E759F8047B761C30786C280FD0A1
:1016600006DC4C2817D068280DD06A2814D104E075
:10167000742810D07A280FD10DE044F400140AE049
:1016800044F4801401E044F440147278824202D1A0
:1016900004F58014761C761C307866280BD013DC99
:1016A000582877D009DC002875D04528F6D0462880
:1016B000F4D047281AD19DE118E0632835D064287A
:1016C00079D0652812D195E1702873D008DC67289D
:1016D000F1D069286FD06E280DD06F2806D1B5E003
:1016E00073282CD0752875D0782874D05A4617994D
:1016F00090476D1C75E1C4F30250022809D00328FD
:101700000DD0D9F8001004280DD00D6009F104099E
:1017100067E1D9F80010EA17C1E90052F6E7D9F8F5
:1017200000100D80F2E70D70F0E719F8041B8DF83A
:10173000001000208DF80100EA46012003E059F86E
:1017400004AB4FF0FF3061074FF0000102D40DE011
:1017500008F101018846B9420FDA8045F8DB1AF832
:1017600008100029F4D108E008F1010188468142FF
:10177000FADB1AF808100029F6D105985B46A0EBB1
:10178000080721463846179A00F094FA284400EBDF
:10179000080507E04DE029E10DE01AF8010B5A4673
:1017A00017999047B8F10108F7D25B4621463846B1
:1017B000179A13E142E00A220092C4F302524FF05A
:1017C000000A022A08D059F804CB032A4FEAEC7128
:1017D0000AD00DE029E02AE009F1070121F0070213
:1017E000F2E802C1914609E00FFA8CFC4FEAEC7175
:1017F000042A03D14FFA8CFC4FEAEC71002907DA76
:101800000A460021DCF1000C61EB02012D2202E00E
:10181000220504D52B228DF80420012203E0E207E3
:1018200001D02022F7E7904659E00A2102E0102279
:101830000DE010214FF0000A00910BE010224FF054
:10184000000A44F004040827009203E008224FF045
:10185000000A0092C4F30252022A05D059F804CBC0
:101860000021032A08D009E009F1070121F007024D
:10187000F2E802C1914605E01FFA8CFC042A01D16E
:101880000CF0FF0C4FF00008220728D5702806D076
:10189000009B83F0100353EA0A0305D00EE04022B8
:1018A0008DF80420012208E05CEA010206D0302213
:1018B0008DF804208DF8050002229046009B83F0ED
:1018C000080353EA0A030AD15CEA010201D1620764
:1018D00005D530228DF804204FF001087F1E5828CE
:1018E00004D034A003900EA802900DE036A0F9E7D2
:1018F00053466046009AFEF7C9FE84460398825C10
:101900000298401E029002705CEA0100F0D1029839
:1019100006A9081A00F1200A600702D524F48034D1
:1019200000E00127574502DDA7EB0A0000E0002098
:1019300000EB0A01009005984144401A0590E0032D
:1019400006D45B462146179A059800F0B3F9054482
:10195000002706E001A85A46C05D179990476D1C04
:101960007F1C4745F6DBE0030CD55B462146179A02
:10197000059800F09FF9054404E030205A46179975
:1019800090476D1C0099481E00900029F5DC08E086
:10199000029802995A460078491C0291179990477B
:1019A0006D1CBAF10001AAF1010AF1DC65E1000049
:1019B0000928010030313233343536373839616225
:1019C00063646566000000003031323334353637E9
:1019D00038394142434445460000000000F058F9C0
:1019E0000544761C307800287FF4ECAD19B0284609
:1019F000BDE8F08F620700D4062709F1070222F044
:101A0000070CFCE80223E14603F000485FEA080CFB
:101A100002D00FF2702C0DE05FEA045C02D50FF2E9
:101A2000682C07E05FEAC47C02D00FF2602C01E072
:101A3000AFF2700C4FF0FF3823F00043CDF850C0E8
:101A400065280CD006DC452809D046281DD047283B
:101A50003DD13DE0662818D067287ED138E00021CE
:101A6000112F01DB112000E0781CCDE9000106A94F
:101A70000EA8FFF7EDFCDDE90F010E9A039100219E
:101A8000009207F1010A04914DE04FF000400097E9
:101A9000CDE9011006A90EA8FFF7DAFCDDE90F0277
:101AA00003920E9B11990022DDF80CA00093049282
:101AB00011B9791C00EB010AB7EB0A0004D4C0F19C
:101AC000FF3007F1010A0490AAEB0700019044E0FF
:101AD000012F00DA01270021112F01DD112000E084
:101AE0003846CDE9000106A90EA8FFF7B1FCDDE9F3
:101AF0000F010E9A0391002104910092BA4621072A
:101B00000CD40399514500DA8A46BAF1010F05DD7C
:101B1000009AAAF10101515C302908D0B84202DADA
:101B200010F1040F06DA0121CDE9011015E0AAF148
:101B30000101E9E7002805DC049901440491AAEBBE
:101B4000000102E0411C514500DD8A460499401A1B
:101B5000401C01904FF000400290200704D40198EF
:101B6000504501DBCDF8048000208DF84F0002982D
:101B70000DF14F07B0F1004F25D02B200E900298A9
:101B80004FF0020800280CDA404202902D200E90FF
:101B900007E00A210298FEF763FD3031029007F852
:101BA000011DB8F10001A8F10108F2DC029800283B
:101BB000EFD1791E0E980870307800F0200040F0C8
:101BC000450007F8020D12A8C01B00F10708149881
:101BD000007800B1012000EB0A01019801EBE071EF
:101BE00005984144401A401E0590E00306D45B4628
:101BF0002146179A059800F05DF80544149800787E
:101C000018B15A46179990476D1CE00324D55B46DE
:101C10002146179A059800F04DF805441CE00498F9
:101C2000002807DBDDE90301884203DD0098405C02
:101C3000179901E0179930205A469047049805F10A
:101C40000105401C04900198401E019004D12E20F3
:101C50005A46179990476D1CBAF10001AAF1010A82
:101C6000DDDC05E017F8010B5A46179990476D1C0B
:101C7000B8F10001A8F10108F4DC5B462146179A8F
:101C80000598ABE62D0000002B00000020000000AE
:101C90002DE9F041044600251E461746880404D469
:101CA00005E039462020B0476D1C641EF9D5284652
:101CB000BDE8F0812DE9F041044600251E4690461E
:101CC000C80301D5302700E02027880404D505E0AB
:101CD00041463846B0476D1C641EF9D52846BDE81C
:101CE000F0810000FEF7D2FF4FF47A70FEF7F6FDA8
:101CF00000BFB0EE0C0AFEF75FFF1E4880ED000B40
:101D00009FED1D0B53EC102B90ED000B51EC100BC5
:101D1000FEF78EFC29D29FED1A0B53EC102B1548C1
:101D200090ED000B51EC100BFEF76AFC1DD2114830
:101D300090ED000B53EC102B13A0FFF769FB9FED08
:101D4000180B53EC102B0B4890ED000B51EC100BC3
:101D5000FEF756FC09D200231A46194612480068BD
:101D600001F044FC11A0FFF753FB4FF4FA7001F0AF
:101D700053F9BEE7100000100000000000003440DE
:101D8000000000000040AF4068635F737230342091
:101D90003D3D2025302E32666D6D0D0A000000009D
:101DA00000000000000059400C0000106368616FE3
:101DB0007368656E67B4A5B7A2B1A8BEAFD7B0D639
:101DC000C3210D0A000000000024FEF741FE4FF47D
:101DD0007A70FEF783FD00BF1648FEF78FFD0446BC
:101DE000002C1ED11348C278817813A0FFF710FB96
:101DF00010484278017815A0FFF70AFB0D4880785B
:101E00001E2803DC0B4880785A280EDD00231A4672
:101E100019461348006801F0E9FB12A0FFF7F8FA31
:101E200003E0214614A0FFF7F3FA41F2707001F0CD
:101E3000F3F8D1E718000010CEC2B6C8A3BA2564E3
:101E40002E2564A1E6200D0A00000000CAAAB6C82B
:101E5000A3BA25642E256425255248200D0A0000CA
:101E60000C000010CEC2CAAAB6C8B4A5B7A2BEAFB5
:101E7000B1A8210D0A000000B4EDCEF3C2EBA3BA65
:101E800025640D0A00000000002400BF4FF0FF3160
:101E90001A48006801F0AEFD601C04B2214618A08B
:101EA000FFF7B6FA052CF1DD1CA0FFF7B1FA26A06A
:101EB000FFF7AEFA2A48C27881782AA0FFF7A8FA7D
:101EC0002748427801782BA0FFF7A2FA23A0FFF75A
:101ED0009FFA2DA0FFF79CFA314890ED000B53ECD0
:101EE000102B30A0FFF794FA34A0FFF791FA0521E8
:101EF0004FF4FA70FEF7D4FC0024C7E70C00001082
:101F0000BEAFB1A8C0DBBCC6B4A5B7A2B4CECAFDF3
:101F1000203D3D2025640D0A000000000D0A23230A
:101F20002323232323232323232323232323232381
:101F30002323232323232323232323232323232371
:101F400023230D0A00000000D2ECB3A3D6B528CE9F
:101F5000C2CAAAB6C829BCE0BFD8A3BA0D0A0000FD
:101F600018000010CEC2B6C8A3BA25642E2564A1FD
:101F7000E60D0A00CAAAB6C8A3BA25642E256425B0
:101F80002552480D0A000000D2ECB3A3D6B528B301
:101F9000ACC9F9B2A829BCE0BFD8A3BA0D0A0000A9
:101FA00010000010B3ACC9F9B2A8BEE0C0EB203DF0
:101FB0003D2025302E32666D6D0D0A00232323232C
:101FC00023232323232323232323232323232323E1
:101FD00023232323232323232323232323232323D1
:101FE0000D0A000070B5044601F056FE012810D01D
:101FF0000B480088844206D309480088B4FBF0F5FA
:10200000284601F009F806480088B4FBF0F100FB0F
:1020100011444FF47A7104FB01F000F003F870BD35
:10202000360000102DE9F04707460026B0464FF075
:10203000E020D0F81490164800681649B0FBF1F083
:1020400000FB07FA4FF0E020856901F025F919E05F
:102050004FF0E0208469AC420CD0AC4202D2281B85
:10206000064403E0A9EB04002844064425465645EF
:1020700000D308E04FF0E020D0F8108008F0010015
:1020800000B900E0E4E700BF01F0D4FFBDE8F0874D
:102090002000001040420F0070B504460D46A1B26A
:1020A0000548FFF7AEF900BF80210348FFF7DDF8D0
:1020B0000028F9D0204670BD001001401CB54FF437
:1020C0004070FEF7ADFE4FF4E130FFF70BF8FEF77E
:1020D0002DFEFEF7C5FBFEF709FE0021642001F08E
:1020E000DDF91B4908601B48032100234FF40072EF
:1020F000CDE9001018A11B4801F09EFD0446012CFB
:1021000002D119A0FFF784F91E4804210023CA0157
:10211000CDE900101CA11F4801F08EFD0446012CE2
:1021200002D11DA0FFF774F9224804210023CA013F
:10213000CDE9001020A1234801F07EFD0446012CCA
:1021400002D121A0FFF764F901F05CF800201CBD6A
:102150000C000010000000106170705F7461736B00
:1021600031000000E51C00086170705F7461736BE2
:102170003120637265617465207375636365737381
:10218000210D0A00040000106170705F7461736BB0
:1021900032000000C91D00086170705F7461736BCC
:1021A0003220637265617465207375636365737350
:1021B000210D0A00080000106170705F7461736B7C
:1021C00033000000891E00086170705F7461736BDA
:1021D000332063726561746520737563636573731F
:1021E000210D0A002DE9F04105460E461C480768FE
:1021F0001C480068001D00F0A7FD50B91948006890
:1022000090F82C100120884017490968814316482E
:102210000160681C38B936B112480168091D1348BD
:1022200000F0D0FD1AE07C190E4800684460BC4202
:1022300007D20C480168091D0D48006800F0A8FD90
:102240000CE008480168091D0A48006800F0A0FD7C
:1022500009480068844201D207480460BDE8F08163
:1022600068000010540000106C000010BC02001048
:102270005C000010580000108400001010B50446E7
:1022800000F0ACFD24480068401C23490860234846
:10229000006840B9214804600846006801280DD153
:1022A00000F0E0F90AE01E48006838B91B480068F1
:1022B000C06AE16A884201D8184804601948006879
:1022C000401C1849086008460068206494F82C10E7
:1022D0000120884014490968084313490860E16AED
:1022E00001EB8101114A02EB8100211D00F06AFD22
:1022F00000F09EFD0A48006868B108480068C06A9E
:10230000E16A884207D24FF0805009490860BFF364
:102310004F8FBFF36F8F10BD64000010540000108A
:1023200070000010800000106C0000100802001007
:1023300004ED00E010B500F051FD10480068D0B980
:102340000F4800F015FD0F4800F012FD0C480E4933
:1023500008600C480D49086000220C210A2001F099
:10236000CBF8064908600846006820B108A1034878
:10237000006800F015FE00F05BFD10BD9800001035
:10238000D0020010E4020010900000109400001031
:10239000546D72510000000010B516E000F01EFDF3
:1023A0000C48C068C468201D00F0CEFC0A480068D4
:1023B000401E0949086009480068401E0749086036
:1023C00000F036FD204600F05FF804480068002861
:1023D000E4D110BDA80200106400001060000010DD
:1023E00070B504460D46206C70B1216CE068014464
:1023F000E160D4E90210884201D32168E1602846F7
:10240000226CE168FDF73CFF70BD2DE9F041044608
:102410000F4615464FF00008A66B206C48B920689F
:1024200000282CD1A06801F0F1FC80460020A060BB
:1024300025E07DB93946226C6068FDF721FF216CEB
:10244000606808446060D4E90101884217D32068BD
:10245000606014E03946226CE068FDF711FF216CE2
:10246000E068411AE1602168E068884203D2216C8B
:10247000A068411AE160022D01D106B1761E701CE0
:10248000A0634046BDE8F08110B50446206B00F023
:10249000EDFC204600F0EAFC10BD01464A6A22B17C
:1024A0000A6B1268C2F1050000E0002070470000CE
:1024B0000146084A126812680AB9012200E00022A7
:1024C0000A600A6822B9034A1268D268106800E0FC
:1024D000002070479000001030B54FF49633174835
:1024E00000F007042CB1C01D20F00700134C041BA2
:1024F0001B1B0246124C22600024114D6C60D01848
:10250000083820F007000F4C206000240D4D2D6886
:102510006C600C4D2D682C601146441A4C60094CBF
:1025200024680C60084D4C682C60084D4C682C6089
:102530004FF00044064D2C6030BD0000000000202C
:10254000A4000010AC000010B4000010B000001097
:10255000B800001000BFFFF71FFF06480068012801
:10256000F9D94FF0805004490860BFF34F8FBFF393
:102570006F8FF0E70802001004ED00E02DE9F04154
:1025800006460D4617469846069C0DB9246000E0A5
:102590002760E66325640121204600F0DBFF84F814
:1025A0004C80BDE8F0812DE9F05F82460E469046F2
:1025B0009B460A9F0C9C4FEA8801A522206BFDF7E1
:1025C00071FEA8F10100216B01EB800929F00709D8
:1025D00009F0070008B9012000E0002050B900BF51
:1025E000502080F31188BFF34F8FBFF36F8F00BF70
:1025F00000BFFEE786B1002507E0715D04F13400FD
:102600004155705D00B902E06D1C0A2DF5D300BF85
:1026100000213D20015502E0002084F83400052F00
:1026200000D30427E762A7640020E064201D00F0C7
:10263000ACFB04F1180000F0A8FB2461C7F1050011
:10264000A06164620020206584F854005A46514617
:10265000484600F063FB20600B9808B10B980460BB
:10266000BDE8F09F10B5002407E004EB84010F4A99
:1026700002EB810000F07CFB641C052CF5D30C48B8
:1026800000F076FB0B4800F073FB0B4800F070FB8A
:102690000A4800F06DFB0A4800F06AFB044809494B
:1026A000086004480849086010BD000008020010D6
:1026B0006C0200108002001094020010A8020010AA
:1026C000BC020010580000105C00001010B501465C
:1026D000164800E0006803688B42FBD3024643685B
:1026E00013448B4204D143684C6823444360014641
:1026F0000A464B6813440468A34211D10C4C03688A
:102700002468A34208D04B680468646823444B6083
:1027100003681B680B6005E0054B1B680B6001E05C
:1027200003680B60884200D0016010BDA400001057
:10273000AC0000102DE9F04104460D4616461F4638
:102740004FF0000865602461B5420CD8F01BA16908
:10275000884202D34FF0010811E0211D09480068AA
:1027600000F016FB0BE0BE4204D2BD4202D34FF094
:10277000010804E0211D0448006800F009FB404600
:10278000BDE8F081940000109000001070B505467F
:1027900000F024FBA86B08B9012400E0002400F03D
:1027A00047FB204670BD70B5054600F017FBA86BCF
:1027B000E96B884201D1012400E0002400F038FBDD
:1027C000204670BDF8B505460F461A480068C06837
:1027D000C468201D00F0B8FA94F8280000F0040046
:1027E000E8B1A06941192B463A462046FFF7A2FFFF
:1027F000D8B1002003462A4601460090204601F049
:10280000C7FC064656B900BF502080F31188BFF3BD
:102810004F8FBFF36F8F00BF00BFFEE705E094F856
:10282000280020F0010084F828002046216A88470B
:10283000F8BD00009000001070B586B08BE00398E2
:102840000028FBDB059C606908B9012000E000203E
:1028500010B9201D00F078FA02A800F0DDF8054656
:1028600003980A2875D2DFE800F0090507394163AB
:1028700006083A4200BF00BF00BF00BF94F828001E
:1028800040F0010084F828000498A26981180346EA
:102890002A462046FFF74EFFF8B12046216A8847B6
:1028A00094F8280000F00400B8B1002000900498CB
:1028B000A169421800231946204601F069FC06462A
:1028C00056B900BF502080F31188BFF34F8FBFF37C
:1028D0006F8F00BF00BFFEE700BF3BE000BF94F872
:1028E000280020F0010084F8280033E000BF94F8AD
:1028F000280040F0010084F828000498A061A06935
:1029000008B1012000E0002050B900BF502080F342
:102910001188BFF34F8FBFF36F8F00BF00BFFEE77B
:10292000A06941192B462A462046FFF703FF11E014
:1029300094F8280000F0020018B9204600F096FA3A
:1029400005E094F8280020F0010084F8280001E058
:10295000FFE700BF00BF002203A90448006800F0A1
:1029600095FF00287FF46BAF06B070BD9800001093
:10297000F8B505460C4600F08FFC684600F04CF8B0
:102980000646009820BB44B9B54206D801F052FB78
:1029900031462846FFF716FF1CE03CB10E480068A0
:1029A000006808B9012000E000200446A91B224667
:1029B0000A48006800F00AFB01F03CFB50B94FF0F8
:1029C000805007490860BFF34F8FBFF36F8F01E05E
:1029D00001F030FBF8BD00009400001098000010DA
:1029E00004ED00E00A490968096809B9012100E01D
:1029F000002121B14FF0FF31064A116006E0044981
:102A00000968C968C868034A4168116070470000D6
:102A1000580000108400001070B5044601F04CF915
:102A2000054607480068854204D200F00BF80120F3
:102A3000206001E00020206001480560284670BD4C
:102A4000A00000102DE9F84334E025480068C06874
:102A5000056823480068C068C468201D00F074F948
:102A60002046216A884794F8280000F0040008B343
:102A7000A0694619AE4207D966602461211D184835
:102A8000006800F085F915E0002003462A4601465B
:102A90000090204601F07CFB074657B900BF50204C
:102AA00080F31188BFF34F8FBFF36F8F00BF00BF5C
:102AB000FEE700BF0A480068006808B9012000E08E
:102AC00000200028C1D00648D0F8008005480068E2
:102AD000034908600348C0F80080BDE8F88300009F
:102AE00090000010940000100E480068401C08B9C7
:102AF000012000E0002050B900BF502080F3118871
:102B0000BFF34F8FBFF36F8F00BF00BFFEE700BF63
:102B1000502080F31188BFF34F8FBFF36F8F00BF3A
:102B200000BFFEE7BC00001008B500BF6846FFF715
:102B3000BFFC044620460099FFF71AFFFFF77CFE12
:102B4000F4E770B5044600F049F994F9455010E0F7
:102B5000606A08B9012000E0002038B904F12400BF
:102B600001F01CFA18B100F091FA00E003E0681ED1
:102B700045B2002DECDC00BFFF2084F8450000F0DA
:102B800057F900F02BF994F9445010E0206908B986
:102B9000012000E0002048B904F1100001F0FEF926
:102BA00008B100F073FA681E45B200E001E0002DA4
:102BB000ECDC00BFFF2084F8440000F039F970BD60
:102BC0002DE9F04104464FF0000800F065FB46484F
:102BD000006808B9FFF780FC4448006820400028DE
:102BE0006BD1D4B1083404F00700B0B104F0070091
:102BF000C0F10800044404F0070008B9012000E017
:102C0000002050B900BF502080F31188BFF34F8FD0
:102C1000BFF36F8F00BF00BFFEE7002C4DD03448DC
:102C20000068844249D8334E3046056801E02E469C
:102C30002D686868A04202D228680028F7D12A4887
:102C40000068854239D0306800F108082868306093
:102C50006868001B102819D92F1907F0070008B958
:102C6000012000E0002050B900BF502080F31188FF
:102C7000BFF34F8FBFF36F8F00BF00BFFEE76868E1
:102C8000001B78606C603846FFF720FD18496868C3
:102C90000968081A16490860084600681649096854
:102CA000884203D212480068134908600F496868D7
:102CB0000968084368600020286001F0BBF908F04B
:102CC000070008B9012000E0002050B900BF5020E3
:102CD00080F31188BFF34F8FBFF36F8F00BF00BF2A
:102CE000FEE74046BDE8F081AC000010B8000010DF
:102CF000B0000010A4000010B400001006480068E6
:102D000030B10549096801F14C00C96C491C0160EA
:102D1000014800687047000054000010001F4FF089
:102D200080730360001F21F001030360001F054B47
:102D3000036014380260001F6FF002030360203844
:102D400070470000E92A000801460A69D1E901300C
:102D50009860D1E9010358605068884201D18868C1
:102D60005060002008611068401E106010687047B5
:102D700000F1080141604FF0FF31816000F108016E
:102D8000C16001610021016070470021016170474D
:102D900010B502460B685C1C0CB9106907E002F123
:102DA000080000E04068446824689C42FAD94468FE
:102DB0004C604C68A160886041600A611468641CC2
:102DC000146010BD42684A6093688B6093685960D4
:102DD0009160086103685B1C0360704700BF50206E
:102DE00080F31188BFF34F8FBFF36F8F00BF0E4882
:102DF0000068401C0C49086008460068012812D190
:102E00000A480068C0B208B9012000E0002050B9AB
:102E100000BF502080F31188BFF34F8FBFF36F8F37
:102E200000BF00BFFEE77047BC00001004ED00E0EB
:102E30000D48006850B900BF502080F31188BFF3DF
:102E40004F8FBFF36F8F00BF00BFFEE706480068DB
:102E5000401E054908600846006820B9002080F33C
:102E6000118800BF00BF7047BC00001070B5064657
:102E70003546002E3FD0083D2C461F496068096842
:102E8000084008B1012000E0002050B900BF5020E8
:102E900080F31188BFF34F8FBFF36F8F00BF00BF68
:102EA000FEE7206808B9012000E0002050B900BF0B
:102EB000502080F31188BFF34F8FBFF36F8F00BF97
:102EC00000BFFEE70C4960680968084098B12068B7
:102ED00088B90949606809688843606000F0DCF9D6
:102EE0000649606809680844044908602046FFF7FD
:102EF000EDFB01F09FF870BDB8000010B0000010AD
:102F000000204FF0E02108618861064800684FF416
:102F10007A71B0FBF1F0401E4FF0E02148610720CC
:102F2000086170472000001070B5FDF793F9044662
:102F3000102C16D304F1E02090F8F05315480078D7
:102F4000854201DB012000E0002050B900BF502085
:102F500080F31188BFF34F8FBFF36F8F00BF00BFA7
:102F6000FEE70D48006800F4E0600C4909688842FB
:102F700001D8012000E0002050B900BF502080F3AC
:102F80001188BFF34F8FBFF36F8F00BF00BFFEE705
:102F900070BD0000C00000100CED00E0C400001087
:102FA000024600200BE0084B53F8303033B9064B93
:102FB00043F8301003EBC0035A6002E0401C0828BD
:102FC000F1D300BF70470000C80100102DE9F041A7
:102FD00005460E4617462C46FFF700FF94F94400BD
:102FE000401C10B9002084F8440094F94500401CAE
:102FF00010B9002084F84500FFF71AFFA06B28B92C
:103000003A46314604F1240000F062F82046FFF70A
:1030100098FDBDE8F081000070B504460025D4B1EC
:103020001248006808B9012000E0002050B900BF34
:10303000502080F31188BFF34F8FBFF36F8F00BF15
:1030400000BFFEE700F028F900212046FFF7CAF88C
:1030500000F0F0FF05463DB94FF08050044908608C
:10306000BFF34F8FBFF36F8F70BD00008C00001057
:1030700004ED00E003490968016003490968416003
:10308000704700007C00001068000010012001491A
:10309000086070477800001070B504460D4654B9BA
:1030A00000BF502080F31188BFF34F8FBFF36F8FA5
:1030B00000BF00BFFEE70548016818312046FFF752
:1030C00067FE01212846FFF78DF870BD54000010FF
:1030D00070B505460E46144655B900BF502080F322
:1030E0001188BFF34F8FBFF36F8F00BF00BFFEE7A4
:1030F0000648016818312846FFF764FE0CB14FF00E
:10310000FF3621463046FFF76DF870BD54000010C1
:103110002DE9F04706460F4634464FF00109002ED0
:1031200067D0E06C50B900BF502080F31188BFF326
:103130004F8FBFF36F8F00BF00BFFEE7A06CB84298
:1031400001D23D4600E0A56CE06AA84251D0E06C97
:1031500001284ED128480068844201D0012000E0B7
:10316000002050B900BF502080F31188BFF34F8F6B
:10317000BFF36F8F00BF00BFFEE7D4F82C80E5627D
:10318000A06900F0004010B9C5F10500A06108EB8E
:1031900088011A4A02EB81016069884201D101204D
:1031A00000E0002028B3201DFFF7CEFD78B9E06ACB
:1031B00000EB8000114951F8200040B994F82C1020
:1031C000012088400E49096881430D48016094F848
:1031D0002C10012088400A49096808430849086002
:1031E000E16A01EB8101054A02EB8100211DFFF735
:1031F000E9FDBDE8F087000054000010080200104F
:103200006C0000101CB51D4800210B468222CDE940
:1032100000101BA11C4800F00FFD0446012C02D138
:1032200000F08AFF0446012C15D100BF502080F326
:103230001188BFF34F8FBFF36F8F00BF4FF0FF3088
:1032400012490860012012490860002011490860F5
:1032500000F070F810E0601C08B1012000E00020D0
:1032600050B900BF502080F31188BFF34F8FBFF3D8
:103270006F8F00BF00BFFEE71CBD0000880000107C
:1032800049444C450000000055250008840000100A
:10329000700000106800001002480068401C0149DE
:1032A000086070478C0000101D48006818B10120AC
:1032B0001C49086032E000201A4908601A4800687A
:1032C000B0FA80F0C0F11F0101EB8100174A52F8FB
:1032D000200008B1012000E0002050B900BF5020BC
:1032E00080F31188BFF34F8FBFF36F8F00BF00BF14
:1032F000FEE701EB81020D4B03EB8200426852684E
:10330000426000F108024368934202D14268526869
:1033100042604268D268064B1A6000BF70470000E6
:103320008C000010780000106C00001008020010E3
:10333000540000101CB5524800685249884201D020
:10334000012000E0002050B900BF502080F3118818
:10335000BFF34F8FBFF36F8F00BF00BFFEE748483A
:1033600000684849491E884201D0012000E0002041
:1033700050B900BF502080F31188BFF34F8FBFF3C7
:103380006F8F00BF00BFFEE73F49084600780190FD
:10339000FF200A4610700846007800909DF8000053
:1033A00000F0F0009DF80020904201D1012000E0E3
:1033B000002050B900BF502080F31188BFF34F8F19
:1033C000BFF36F8F00BF00BFFEE79DF8000000F065
:1033D00050002E4A107007202D4A106009E02C483A
:1033E0000068401E2A4A10609DF800004006000E4A
:1033F00000909DF8000000F080008028EFD0244865
:103400000068C0F10700042801D1012000E000207D
:1034100050B900BF502080F31188BFF34F8FBFF326
:103420006F8F00BF00BFFEE7194800680002184A0E
:1034300010601046008800F4E0601060124A0198A5
:1034400010700F482030006840F470000C492031A3
:1034500008600846006840F070400860FFF750FDC3
:1034600000200C490860FCF7BDFE0B48006840F0E6
:10347000404009490860FCF7A1FE00201CBD000087
:1034800000ED00E071C20F4100E400E0C000001058
:10349000C4000010BC00001034EF00E070B5054619
:1034A0000E460DB1012000E0002050B900BF5020B1
:1034B00080F31188BFF34F8FBFF36F8F00BF00BF42
:1034C000FEE7AE4201D8012000E0002050B900BF65
:1034D000502080F31188BFF34F8FBFF36F8F00BF71
:1034E00000BFFEE702220021284600F005F804464E
:1034F00004B1A663204670BD2DE9F84305460E468B
:1035000090460DB1012000E0002050B900BF5020CE
:1035100080F31188BFF34F8FBFF36F8F00BF00BFE1
:10352000FEE70EB9002701E005FB06F707F15000A2
:10353000FFF746FB04464CB1A14609F1500943464A
:103540004A46314628460094FFF718F82046BDE861
:10355000F883000070B505460E462C4654B900BFEE
:10356000502080F31188BFF34F8FBFF36F8F00BFE0
:1035700000BFFEE7FFF732FCD4E90F12206801FB21
:103580000200A0600020A06320686060E06B401E25
:10359000226C216800FB0211E160FF2084F84400E6
:1035A00084F845009EB9206908B9012000E0002098
:1035B000A8B904F1100000F0F1FC80B14FF0805088
:1035C00009490860BFF34F8FBFF36F8F07E004F125
:1035D0001000FFF7CDFB04F12400FFF7C9FBFFF754
:1035E00027FC012070BD000004ED00E02DE9FF4341
:1035F00083B0064688461D464FF00009344654B94C
:1036000000BF502080F31188BFF34F8FBFF36F8F3F
:1036100000BF00BFFEE7B8F1000F01D1206C08B970
:10362000012000E0002050B900BF502080F3118835
:10363000BFF34F8FBFF36F8F00BF00BFFEE7022DB8
:1036400002D1E06B012801D1012000E0002050B937
:1036500000BF502080F31188BFF34F8FBFF36F8FEF
:1036600000BF00BFFEE700F017FB08B9059808B9D6
:10367000012000E0002050B900BF502080F31188E5
:10368000BFF34F8FBFF36F8F00BF00BFFEE700BFD8
:10369000FFF7A4FBA06BE16B884201D3022D28D178
:1036A0002A4641462046FEF7B0FE0746606A08B942
:1036B000012000E0002068B904F1240000F06EFC55
:1036C00088B14FF0805032490860BFF34F8FBFF38D
:1036D0006F8F08E03FB14FF080502D490860BFF375
:1036E0004F8FBFF36F8FFFF7A3FB012007B0BDE83B
:1036F000F083059818B9FFF79BFB0020F6E7B9F1B6
:10370000000F04D101A8FFF7B5FC4FF00109FFF746
:103710008FFBFFF7C1FDFFF761FB94F94400401CEC
:1037200010B9002084F8440094F94500401C10B9F9
:10373000002084F84500FFF77BFB05A901A800F0F5
:1037400035FAF0B92046FFF72EF8A0B104F11000C9
:103750000599FFF7A1FC2046FFF7F3F900F06AFC9A
:10376000002895D14FF0805009490860BFF34F8F72
:10377000BFF36F8F8CE72046FFF7E3F900F05AFCA8
:1037800086E72046FFF7DDF900F054FC0020ADE7A6
:1037900004ED00E02DE9F05F07468A4690461E469C
:1037A0003C4654B900BF502080F31188BFF34F8FBF
:1037B000BFF36F8F00BF00BFFEE7BAF1000F01D16A
:1037C000206C08B9012000E0002050B900BF502053
:1037D00080F31188BFF34F8FBFF36F8F00BF00BF1F
:1037E000FEE7022E02D1E06B012801D1012000E0AA
:1037F000002050B900BF502080F31188BFF34F8FD5
:10380000BFF36F8F00BF00BFFEE7FFF78DFB00BF68
:103810005021EFF3118081F31188BFF34F8FBFF375
:103820006F8F00BF0546A06BE16B884201D3022E6B
:1038300023D194F945B0324651462046FEF7E5FDC6
:103840000BF1010088B9606A08B9012000E000208E
:1038500080B904F1240000F0A1FB58B1B8F1000FC9
:1038600008D00120C8F8000004E00BF1010040B2CC
:1038700084F845004FF0010901E04FF0000900BF56
:1038800085F3118800BF4846BDE8F09F2DE9F74158
:1038900083B005460E464FF000082C4654B900BFD1
:1038A000502080F31188BFF34F8FBFF36F8F00BF9D
:1038B00000BFFEE70EB9206C08B9012000E000202F
:1038C00050B900BF502080F31188BFF34F8FBFF372
:1038D0006F8F00BF00BFFEE700F0DEF908B9059862
:1038E00008B9012000E0002050B900BF502080F34B
:1038F0001188BFF34F8FBFF36F8F00BF00BFFEE78C
:1039000000BFFFF76BFAA76BF7B131462046FEF711
:1039100067FD781EA063206908B9012000E000203F
:1039200060B904F1100000F039FB38B14FF080505D
:103930002F490860BFF34F8FBFF36F8FFFF778FAFF
:10394000012006B0BDE8F081059818B9FFF770FABC
:103950000020F6E7B8F1000F04D101A8FFF78AFBB9
:103960004FF00108FFF764FAFFF796FCFFF736FA0D
:1039700094F94400401C10B9002084F8440094F9E4
:103980004500401C10B9002084F84500FFF750FAAC
:1039900005A901A800F00AF9F0B92046FEF7F6FEE5
:1039A000A0B104F124000599FFF776FB2046FFF74C
:1039B000C8F800F03FFB0028A3D14FF080500C491D
:1039C0000860BFF34F8FBFF36F8F9AE72046FFF772
:1039D000B8F800F02FFB94E72046FFF7B2F800F0AC
:1039E00029FB2046FEF7D2FE00288AD00020A8E757
:1039F00004ED00E02DE9F34182B005464FF00008E8
:103A00002C46002654B900BF502080F31188BFF324
:103A10004F8FBFF36F8F00BF00BFFEE7206C08B968
:103A2000012000E0002050B900BF502080F3118831
:103A3000BFF34F8FBFF36F8F00BF00BFFEE700F0F3
:103A40002BF908B9039808B9012000E0002050B90B
:103A500000BF502080F31188BFF34F8FBFF36F8FEB
:103A600000BF00BFFEE700BFFFF7B8F9A76BFFB1CB
:103A7000781EA063206810B9FFF740F9A0602069A4
:103A800008B9012000E0002060B904F1100000F046
:103A900085FA38B14FF0805043490860BFF34F8F2B
:103AA000BFF36F8FFFF7C4F9012004B0BDE8F081C8
:103AB000039898B90EB9012000E0002050B900BF6A
:103AC000502080F31188BFF34F8FBFF36F8F00BF7B
:103AD00000BFFEE7FFF7ACF90020E6E7B8F1000F02
:103AE00004D16846FFF7C6FA4FF00108FFF7A0F9C6
:103AF000FFF7D2FBFFF772F994F94400401C10B9AC
:103B0000002084F8440094F94500401C10B90020BE
:103B100084F84500FFF78CF903A9684600F046F8E1
:103B200040BB2046FEF732FEF0B1206838B9FFF7FF
:103B300055F9A06800F0CEF90646FFF779F904F1CF
:103B400024000399FFF7A8FA2046FEF7FAFF00F0D9
:103B500071FA002888D14FF0805013490860BFF3F4
:103B60004F8FBFF36F8F7FE72046FEF7EAFF00F02D
:103B700061FA79E72046FEF7E4FF00F05BFA2046A1
:103B8000FEF704FE0028EED05EB1FFF727F92046CD
:103B9000FEF783FC07463946A068FFF7B9FAFFF73E
:103BA00047F9002081E7000004ED00E070B505460C
:103BB0000C4655B900BF502080F31188BFF34F8FDA
:103BC000BFF36F8F00BF00BFFEE754B900BF5020A6
:103BD00080F31188BFF34F8FBFF36F8F00BF00BF1B
:103BE000FEE7FFF7FBF8124802686868131A2068BE
:103BF000401C08B9002617E00E4928680968884269
:103C000004D06868904201D801260DE020689842EF
:103C100007D92068C01A20602846FFF72BFA002633
:103C200002E0002020600126FFF702F9304670BD57
:103C3000680000107C0000102DE9FF4F85B0804621
:103C400089461746DDE912ABB800FEF7B9FF064614
:103C500056B15820FEF7B4FF04460CB1266304E0C9
:103C60003046FFF703F900E000247CB10020CDE9E5
:103C700000ABCDE902403A4649464046089BFEF774
:103C800092FC2046FEF7FAFA012501E04FF0FF35DD
:103C9000284609B0BDE8F08F0549096809B9012037
:103CA00005E00449096809B9022000E000207047D6
:103CB000700000108C000010014908687047000077
:103CC000680000102DE9F0414FF0000844480068FA
:103CD000002877D143480068451C4248056015BB61
:103CE00041480068006808B9012000E0002050B990
:103CF00000BF502080F31188BFF34F8FBFF36F8F49
:103D000000BF00BFFEE738480768384800683649FA
:103D100008603648076036480068401C344908602F
:103D2000FEF760FE00BF3348006885423CD300BF09
:103D30002D480068006808B9012000E0002020B18B
:103D40004FF0FF302B4908602DE027480068C0681D
:103D5000C4686668B54202D22648066023E0201D8A
:103D6000FEF7F2FFA06A18B104F11800FEF7ECFFAD
:103D700094F82C10012088401F49096808431E4907
:103D80000860E16A01EB81011C4A02EB8100211D00
:103D9000FFF718F81A49E06A0968C96A8842C7D368
:103DA0004FF00108C4E700BF15480068C06A00EB87
:103DB0008000124951F82000012801D94FF0010874
:103DC00005E0FFE70F480068401C0E4908600E48F8
:103DD000006808B14FF001084046BDE8F0810000DE
:103DE0008C00001068000010580000105C000010EB
:103DF0007C000010840000106C000010080200100D
:103E000054000010740000107800001070B50546D2
:103E10002C460026002D55D02B480068844201D145
:103E2000012000E0002050B900BF502080F311882D
:103E3000BFF34F8FBFF36F8F00BF00BFFEE7E06C93
:103E400050B900BF502080F31188BFF34F8FBFF3EC
:103E50006F8F00BF00BFFEE7E06C401EE064A16C06
:103E6000E06A88422ED0E06C60BB201DFEF76CFF3C
:103E700078B9E06A00EB8000144951F8200040B99D
:103E800094F82C100120884011490968814310489A
:103E90000160A06CE062E06AC0F10500A06194F8E6
:103EA0002C10012088400A49096808430849086025
:103EB000E16A01EB8101054A02EB8100211DFEF759
:103EC00081FF0126304670BD54000010080200102A
:103ED0006C00001070B505462C460026002D54D00D
:103EE0002B49E06A0968C96A884247D2A06900F094
:103EF000004028B926480068C06AC0F10500A061EA
:103F0000E16A01EB8101234A02EB81016069884289
:103F100001D1012000E0002050B3201DFEF714FF66
:103F200078B9E06A00EB80001A4951F8200040B9E6
:103F300094F82C10012088401749096881431648DD
:103F4000016013480068C06AE06294F82C100120F8
:103F500088401149096808430F490860E16A01EB8C
:103F600081010C4A02EB8100211DFEF72BFF03E0CB
:103F700007480068C06AE062012606E00449A06CB8
:103F80000968C96A884200D20126304670BD000027
:103F900054000010080200106C00001070B50646B6
:103FA000F068C46854B900BF502080F31188BFF393
:103FB0004F8FBFF36F8F00BF00BFFEE704F1180003
:103FC000FEF7C2FE15480068A8B9201DFEF7BCFE2A
:103FD00094F82C10012088401149096808431049C1
:103FE0000860E16A01EB81010E4A02EB8100211DAC
:103FF000FEF7E8FE04E004F118010B48FEF7E2FECC
:104000000A49E06A0968C96A884204D90125012081
:104010000749086000E00025284670BD8C000010AC
:104020006C000010080200109402001054000010F0
:104030007800001070B5002400263648006850B99A
:1040400000BF502080F31188BFF34F8FBFF36F8FF5
:1040500000BF00BFFEE7FEF7C1FE2E480068401E0D
:104060002C4908600846006800284FD12A4800689B
:1040700000284BD024E02948C068C46804F1180027
:10408000FEF762FE201DFEF75FFE94F82C10012063
:10409000884023490968084321490860E16A01EB27
:1040A0008101204A02EB8100211DFEF78BFE1E4993
:1040B000E06A0968C96A884202D301201B49086086
:1040C0001648006808B9012000E000200028D2D07E
:1040D0000CB1FEF787FC1648056865B100BFFFF715
:1040E000F1FD10B10120114908606D1E002DF6D1BF
:1040F00000200F4908600D48006838B101263007DC
:104100000C490860BFF34F8FBFF36F8FFEF790FE2F
:10411000304670BD8C000010640000109402001046
:104120006C0000100802001054000010780000100D
:104130007400001004ED00E01CB50024FEF7FAF84E
:104140000E48006858B10E48022100234FF48272D5
:10415000CDE900100BA10D48FFF76EFD044654B9E0
:1041600000BF502080F31188BFF34F8FBFF36F8FD4
:1041700000BF00BFFEE720461CBD000098000010F5
:104180009C000010546D722053766300292B0008A8
:104190002DE9FE4304460D4616461F46DDF82880ED
:1041A0004FF0000954B900BF502080F31188BFF3CD
:1041B0004F8FBFF36F8F00BF00BFFEE7144800684A
:1041C00010B3009501960294062D15DAFFF764FDF1
:1041D000022808D10023424669460D480068FFF7CF
:1041E00005FA814610E000231A466946084800682F
:1041F000FFF7FCF9814607E000233A466946044888
:104200000068FFF7C7FA81464846BDE8FE83000014
:10421000980000104442000800000010C800000090
:10422000301400084442000800000020002C010067
:10423000401400080C430008C800001030220000A1
:104240004014000800000000000000000000000012
:10425000000000000000000000000000000000005E
:1042600000000000007A030A0000000000000000C7
:104270000102030406070809000000000000000016
:104280000000000000000000000000000102030424
:1042900001020304060708090000000000000000F6
:1042A000000000000000000000000000000000000E
:1042B00000000000000000000000000000000000FE
:1042C00000000000000000000000000000000000EE
:1042D00000000000000000000000000000000000DE
:1042E00000000000000000000000000000000000CE
:1042F00000000000000000000000000000000000BE
:0C430000AAAAAAAA000000000000000009
:040000050800018965
:00000001FF
