:020000040800F2
:10000000F02400105D020008E91000087D0D0008D2
:10001000E51000086D09000817190008000000002D
:100020000000000000000000000000009D0100082A
:10003000750B000800000000F901000855150008C4
:1000400077020008770200087702000877020008AC
:10005000770200087702000877020008770200089C
:10006000770200087702000877020008770200088C
:10007000770200087702000877020008770200087C
:10008000770200087702000877020008770200086C
:10009000770200087702000877020008770200085C
:1000A000770200087702000877020008770200084C
:1000B000770200087702000877020008770200083C
:1000C000770200087702000877020008770200082C
:1000D00077020008B51600087702000877020008CA
:1000E000770200087702000877020008770200080C
:1000F00077020008770200087702000877020008FC
:1001000077020008770200087702000877020008EB
:1001100077020008770200087702000877020008DB
:1001200077020008770200087702000877020008CB
:1001300077020008770200087702000877020008BB
:1001400077020008770200087702000877020008AB
:10015000770200087702000877020008770200089B
:10016000770200087702000877020008770200088B
:10017000770200087702000877020008770200087B
:100180007702000877020008DFF80CD000F090FB3F
:1001900000480047D9240008F02400102C4B1968AF
:1001A0000868B0E8F04F80F30988BFF36F8F4FF015
:1001B000000080F3118870470000000008480068C4
:1001C000006880F308884FF0000080F3148862B65E
:1001D00061B6BFF34F8FBFF36F8F00DF00BF00BF6B
:1001E00008ED00E0DFF80C00016841F470010160E7
:1001F000704700BF88ED00E0EFF30980BFF36F8F19
:10020000134B1A681EF0100F08BF20ED108A20E96A
:10021000F04F106009B44FF0500080F31188BFF325
:100220004F8FBFF36F8F03F039FA4FF0000080F368
:10023000118809BC19680868B0E8F04F1EF0100F6B
:1002400008BFB0EC108A80F30988BFF36F8F704746
:100250004C020010EFF3058070470000064880470D
:1002600006480047FEE7FEE7FEE7FEE7FEE7FEE79B
:10027000FEE7FEE7FEE7FEE78915000889010008B2
:1002800040EA01039B0703D009E008C9121F08C018
:10029000042AFAD203E011F8013B00F8013B521E98
:1002A000F9D27047D2B201E000F8012B491EFBD20F
:1002B00070470022F6E710B513460A460446194671
:1002C000FFF7F0FF204610BD2DE9FE4F804681EA82
:1002D0000300C00F0C46009021F0004123F00045C0
:1002E000B8EB0200A94105D24046214690461C4683
:1002F0000B46024623F00040104347D0270DC7F3BA
:100300000A00C3F30A510290401A019040286BDAA8
:10031000C3F3130040F4801B0098924620B10023E1
:10032000D2EB030A63EB0B0B01985946C0F1400274
:10033000504600F0E0F906460D4650465946019AEF
:1003400000F0F8F910EB08006141002487EA11522F
:1003500084EAE7731A4340D0009A62B3019A012AF3
:100360004FEA075215DC001B61EB02014FF000421F
:1003700002EA0752CDE90042001C41F580113246E5
:100380002B4600F02FFA03B0BDE8F08F404621461F
:10039000F9E7001B61EB0201001C41F58013001816
:1003A0005B412018A2F5001747EB030140EAD57026
:1003B000B6196D4111E06D084FEA360645EAC07581
:1003C0004FEA0752001B61EB0201001C41F580114E
:1003D00049084FEA30000019514132462B4603B01C
:1003E000BDE8F04F00F0EFB9009801224000002373
:1003F000D0EB020263EBE073009821464FEAE07411
:10040000B8EB000061EB0401E9E783F000435BE730
:1004100081F0004158E72DE9FE4F81EA030404F022
:10042000004421F0004100944FF0000B23F0004302
:1004300050EA01045ED052EA03045BD0C3F30A54CD
:10044000C1F30A552C44A4F2F3340194A0FB0254E6
:10045000C1F3130141F48011C3F3130343F4801378
:1004600001FB024400FB034E840A970A44EA8154CC
:1004700047EA8357A4FB076802958D0A05FB0785A9
:100480004FEA932C04FB0C542705029D4FEA0658B3
:1004900047EA1637B5EB08056EEB070C870E920E90
:1004A00047EA811742EA8312A7FB0201B6EB0B0170
:1004B00064EB00042B0D43EA0C335E1844EB1C5034
:1004C000DA465146E7FB0201C5F313044FEA0B334A
:1004D00043EA14534FEA0432019C43EA0603A4F1B1
:1004E0000C040294009CCDE900B400F07BF903B049
:1004F000BDE8F08F00200146F9E72DE9F04D81EAD3
:10050000030404F0004B21F0004514464FF0000AAC
:1005100023F0004150EA050220D054EA01021DD028
:10052000C5F30A570246C5F31303C1F31300C1F321
:100530000A5640F4801543F48013A7EB0608101BFD
:10054000D64608F2FD3873EB050002D308F1010826
:1005500001E092185B41B8F1000F03DA0020014678
:10056000BDE8F08D00204FF48011064684460EE071
:10057000171B73EB050705D3121B63EB050306433B
:100580004CEA010C49084FEA300092185B4150EAEE
:100590000107EDD152EA030012D082EA040083EA97
:1005A0000501084305D0101BAB4106D201220023F0
:1005B00006E000224FF0004302E06FF0010253100A
:1005C0001AEB06004CEB085110EB0A0041EB0B0153
:1005D000BDE8F04D00F0F7B800F0004230F0004008
:1005E0000AD0C10D01F56071C0F3160042EA015155
:1005F000C2084007114370470020014670470000C1
:1006000030B5041E71F1000404DB4FF00044404299
:1006100064EB0101141E73F1000405DB1C464FF06E
:100620000043524263EB0403994208BF904230BD3D
:1006300001F0004330B421F0004150EA010206D03D
:100640000A0DA2F56072C1F31301002A02DC30BC6E
:1006500000207047440F44EAC104C100E01830BCD8
:1006600000EBC25000F078B830B50B4601460020D0
:100670002022012409E021FA02F59D4205D303FA64
:1006800002F5491B04FA02F52844151EA2F10102E5
:10069000F1DC30BD2DE9F05F0546002092469B4617
:1006A00088460646814640241BE028464146474688
:1006B000224600F02FF853465A46C01A914110D3F3
:1006C00011461846224600F016F82D1A67EB01086D
:1006D0004F4622460120002100F00DF817EB0009DB
:1006E0004E41201EA4F10104DFDC484631462A4673
:1006F0004346BDE8F09F202A04DB203A00FA02F1CD
:10070000002070479140C2F1200320FA03F31943FF
:1007100090407047202A04DB203A21FA02F00021A1
:10072000704721FA02F3D040C2F120029140084301
:1007300019467047202A06DBCB17203A41FA02F00F
:1007400043EAE07306E041FA02F3D040C2F120022E
:1007500091400843194670470029A8BF7047401CC4
:10076000490008BF20F00100704710B4B0FA80FCC7
:1007700000FA0CF050EA010404BF10BC704749B104
:10078000CCF1200421FA04F411FA0CF118BF012174
:1007900021430843A3EB0C01CB1D4FEA00614FEA54
:1007A000102042BF002010BC704700EBC350104423
:1007B0000029A4BF10BC7047401C490008BF20F0AE
:1007C000010010BC704710B5141E73F1000408DA64
:1007D000401C41F1000192185B411A4301D120F005
:1007E000010010BD2DE9F04D92469B4611B1B1FAC2
:1007F00081F202E0B0FA80F220329046FFF77BFFF0
:1008000004460F4640EA0A0041EA0B0153465A46A5
:10081000084313D0114653EA010019D0C8F1400231
:100820005046FFF777FF05460E465046594642466A
:10083000FFF761FF084305D0012004E02046394658
:10084000BDE8F08D0020054346EAE0762C433743AF
:100850000A986305E40AA0EB08000022FD0A44EAB6
:1008600047540A3002D500200146E9E70105101976
:100870006941DDE9084500196941BDE8F04DA2E78D
:10088000C1F30A52C1F3130140F2FF3341F4801166
:100890009A4202DA00200146704740F233439A42FE
:1008A000A2F2334202DC5242FFF734BFFFF723BF0C
:1008B000064C074D06E0E06840F0010394E80700AD
:1008C00098471034AC42F6D3FFF762FCE44D0008C1
:1008D000144E000870B58C1810F8015B15F0070372
:1008E00001D110F8013B2A1106D110F8012B03E0C9
:1008F00010F8016B01F8016B5B1EF9D12B0705D4D1
:100900000023521E0DD401F8013BFAE710F8013B19
:10091000CB1A921C03E013F8015B01F8015B521E35
:10092000F9D5A142D8D3002070BD00001CB501212B
:10093000202000F005FD4FF48070009001208DF81C
:10094000040003208DF8050000208DF807008DF8C5
:1009500006006946034800F00EF9002002490860CD
:100960001CBD000000140240A082424200BFFEE70E
:10097000002106E042F6E06100BF0A00A1F101019A
:10098000FBD10200A0F1010398B2F3D1704700003F
:100990002DE9F0470546002400260027A046A14681
:1009A000012000F0BFF800204C490860142001F03D
:1009B00027FD01204A49C1F8A4021E2001F040FD94
:1009C000002000F0AFF800BF0CE0601C84B20120F2
:1009D00001F036FD41F29410844203DD4FF0FF3008
:1009E000BDE8F0873D48803800680128EDD000243C
:1009F00009E0601C84B2012001F022FD642C02DDBC
:100A00006FF00100ECE73548803800680028F0D02E
:100A1000002409E0601C84B2012001F011FD642C67
:100A200002DD6FF00200DBE72C4880380068012807
:100A3000F0D000263AE04FF00008072730E000240D
:100A400009E0601C84B2012001F0FAFC3C2C02DDBC
:100A50006FF00300C4E72148803800680028F0D018
:100A6000282001F0EDFC1D4880380068012815D1D0
:100A7000B84040EA080000F0FF08002409E0601CCC
:100A800084B2012001F0DCFC282C02DD6FF00400B0
:100A9000A6E71248803800680128F0D0781E47B2D7
:100AA000002FCCDA05F80680701C46B2052EC2DB9A
:100AB000287869780844A9780844E97800EB0109A6
:100AC00009F0FF002979884202D06FF0050087E71E
:100AD000642001F0B5FC002082E70000A40243423C
:100AE000000043421CB50121402000F029FC4FF4D6
:100AF0000070009001208DF8040003208DF805009F
:100B000001208DF8070000208DF806006946034893
:100B100000F031F80120024908601CBD00180240B5
:100B2000A40243421CB504464FF400700090012C0F
:100B30000CD101208DF8040003208DF80500012060
:100B40008DF8070000208DF806000AE034B9002077
:100B50008DF8040001208DF8070002E04FF0FF300F
:100B60001CBD6946024800F006F80020F8E70000C6
:100B7000001802407047F0B50A4600210023002407
:100B800000BF3DE0012505FA01F3156805EA0304FD
:100B90009C4234D105684F000326BE40B543056032
:100BA00015794E00B5400668354305601579012D6D
:100BB00002D01579022D16D185684F000326BE405C
:100BC000B543856055794E00B540866835438560EC
:100BD000456801268E40B5434560456896798E404C
:100BE000B6B235434560C5684F000326BE40B543E5
:100BF000C560D5794E00B540C6683543C560491C0F
:100C00001029BFD3F0BDF0B5002300244D07ED0E31
:100C100002FA05F3CE1000F1200555F826504E07D4
:100C2000F70E0F26BE40B543CF1000F1200646F860
:100C30002750CE1000F1200555F8265045EA030450
:100C4000CE1000F1200545F82640F0BD10B52DED81
:100C5000068BB0EE408A00249FED260BB0EE409A42
:100C6000F0EE609A0120254908600C2001F0E8FBB5
:100C700000202349C1F8980200BF0CE0641C012049
:100C800001F0DEFB4FF6E850844204DD9FED1D0BC2
:100C9000BDEC068B10BD1D4800680028EED0002476
:100CA0000AE0641C082001F0CBFB41F6BD708442D1
:100CB00002DD9FED170BEBE7144800680128F0D028
:100CC00000EE104AB8EEC00A20EE080A10EE101A24
:100CD0000846FFF781FC41EC1A0B9FED0F0B53EC1C
:100CE000102BFFF70AFC41EC190BB0EE490AF0EEAD
:100CF000690ACDE700000000000000009882404231
:100D000000804042000000000000F0BF1802424294
:100D100000000000000000C00000000000000040D3
:100D20001CB50121022000F00BFB0121102000F076
:100D300007FB4020009001208DF8040003208DF86F
:100D4000050000208DF807008DF806006946084868
:100D5000FFF711FF4020009000208DF80400694645
:100D60000448FFF708FF0020034908601CBD00008D
:100D700000040240001002409882404200BFFEE79B
:100D80001CB50121022000F0DBFA0121082000F04F
:100D9000D7FA4FF40040009001208DF804000320A2
:100DA0008DF8050001208DF807008DF806006946D2
:100DB0003C48FFF7E0FE4FF48060009069463A48F7
:100DC000FFF7D9FEC82001F01BFB0021AE2000F088
:100DD000AAFA0021084600F0A6FA0021102000F02F
:100DE000A2FA0021402000F09EFA0021B02000F07D
:100DF0009AFA0021812000F096FA0021FF2000F0ED
:100E000092FA0021A12000F08EFA0021A62000F025
:100E10008AFA0021A82000F086FA00213F2000F085
:100E200082FA0021C82000F07EFA0021D32000F0D1
:100E30007AFA0021084600F076FA0021D52000F069
:100E400072FA0021802000F06EFA0021D82000F014
:100E50006AFA0021052000F066FA0021D92000F08E
:100E600062FA0021F12000F05EFA0021DA2000F0A1
:100E70005AFA0021122000F056FA0021DB2000F07F
:100E800052FA0021302000F04EFA00218D2000F0AF
:100E90004AFA0021142000F046FA0021AF2000F0A9
:100EA00042FA1CBD00040240000C024010B50024B0
:100EB000002000F01DF801200B490860052001F01A
:100EC000BFFA0A48D0F82802012801D1012400E025
:100ED0000024052001F0B4FA002003490860022034
:100EE00001F0AEFA204610BDBC8240420080414273
:100EF0001CB504464FF480600090012C0BD10120FA
:100F00008DF8040003208DF8050001208DF80700FE
:100F10008DF806000AE034B900208DF804000120A5
:100F20008DF8070002E04FF0FF301CBD6946024813
:100F3000FFF721FE0020F8E7000C024070B50546DF
:100F400000240120FFF7D4FF00201549086015494F
:100F5000C1F8A802052001F073FA07241CE0012063
:100F6000A040284018B101200F49086002E000208D
:100F70000D490860022001F063FA01200849086069
:100F8000052001F05DFA00200849C1F8BC020520E7
:100F900001F056FA601E44B2002CE0DA70BD000089
:100FA000BC82404200804142A882414200804042CF
:100FB00010B50120FFF79CFF01200949086009498D
:100FC000C1F8A802052001F03BFA0020064908609C
:100FD000052001F035FA00200449C1F8BC0210BD1B
:100FE000BC82404200804142A8824142008040428F
:100FF00010B50120FFF77CFF01200A49086000209E
:101000000949C1F8A802052001F01AFA0120074990
:101010000860052001F014FA00200349C1F8A80275
:1010200010BD0000BC82404200804142A882414283
:101030001CB50121084600F083F90121102000F0C1
:101040007FF90120009000208DF804008DF8070042
:1010500069460548FFF78FFD1C200090694603484C
:10106000FFF789FD1CBD0000000002400010024097
:101070001CB50121102000F063F90121202000F0AF
:101080005FF94FF4C060009001208DF80400032048
:101090008DF8050000208DF807008DF806006946E0
:1010A0000A48FFF768FD4FF4C040009069460848C1
:1010B000FFF761FD0120074908600749C1F8A80250
:1010C000064908600649C1F8B8021CBD0014024078
:1010D00000100240A482424200804242B4024242D6
:1010E0000000424200BFFEE77047000070B50021DB
:1010F00000230F22C4781CB3174C246804F4E06466
:10110000C4F5E064C4F30721C1F10404E3B20A4169
:1011100044789C40E1B28478144021430C07210EAE
:101120000E4C05786155047804F01F050124AC408D
:1011300005786D11AD0005F1E025C5F8004109E025
:10114000047804F01F050124AC40054D06787611A3
:1011500045F8264070BD00000CED00E000E400E022
:1011600080E100E002490143024A1160704700003B
:101170000000FA050CED00E070B5002418E004F161
:10118000B000002100F0CFF80021084600F0CBF8B5
:101190000021102000F0C7F8002505E00121002003
:1011A00000F0C1F8681CC5B2802DF7DB601CC4B22A
:1011B000082CE4DB70BD70B504460D4605F1B000A7
:1011C000002100F0B0F8102141EA1410002100F0D5
:1011D000AAF804F00F00002100F0A5F870BD00008F
:1011E0002DE9F04180460E4615460027314640461F
:1011F000FFF7E1FF00240AE0124A02EB8511085DC7
:10120000012100F090F8781CC7B2601CC4B2102C09
:10121000F2DB701CC1B24046FFF7CDFF00240CE0AA
:101220006900491C074A02EB4111085D012100F0E9
:101230007AF8781CC7B2601CC4B2102CF0DBBDE891
:10124000F08100002C0000102DE9F04707460E4603
:101250009046994600250024A8F12000C5B27F2FB2
:1012600002DD0027B01CC6B2B9F1100F24D13146FF
:101270003846FFF7A0FF002408E004EB0511194AE7
:10128000505C012100F04FF8601CC4B2082CF4DB64
:10129000701CC1B23846FFF78EFF002409E004EB52
:1012A000051108310F4A505C012100F03CF8601C28
:1012B000C4B2082CF3DB12E031463846FFF77BFF5F
:1012C00000240AE005EB4501074A02EB4101085DF5
:1012D000012100F028F8601CC4B2062CF2DBBDE846
:1012E000F0870000F4470008CC4500082DE9F041E4
:1012F00004460F461546984600260FE0AA5D434671
:1013000039462046FFF7A0FF04F10800C4B2782C4C
:1013100002DD0024B81CC7B2701CC6B2A85D00284C
:10132000ECD1BDE8F08170B504460D461DB1E0B2C8
:1013300000F009FB02E0E0B200F0EFFA70BD00003F
:1013400029B1064A12680243044B1A6004E0034ABA
:1013500012688243014B1A60704700003038024027
:1013600029B1064A12680243044B1A6004E0034A9A
:1013700012688243014B1A607047000044380240F3
:10138000F0B5002100220024022500260223324F5E
:101390003F6807F00C0121B1042905D0082937D195
:1013A00005E02E4F076036E02D4F076033E02A4FEF
:1013B0003F1F3F68C7F38056274F3F1F3F6807F026
:1013C0003F036EB1264FB7FBF3F7DFF88CC0ACF1EB
:1013D000040CDCF800C0CCF3881C07FB0CF40CE018
:1013E0001E4FB7FBF3F7DFF870C0ACF1040CDCF86C
:1013F00000C0CCF3881C07FB0CF4174F3F1F3F685D
:10140000C7F301477F1C7D00B4FBF5F7076002E0DE
:10141000124F076000BF00BF0F4F3F6807F0F00199
:101420000909104F7A5C0768D74047600A4F3F6848
:1014300007F4E051890A0B4F7A5C4768D740876010
:10144000054F3F6807F46041490B064F7A5C4768D7
:10145000D740C760F0BD0000083802400024F40007
:1014600000127A003C0200100CB5002001900090A0
:101470003448006840F480303249086000BF314889
:10148000006800F4003000900198401C0190009822
:1014900018B90198B0F5A04FF1D12A48006800F4BE
:1014A000003010B10120009001E000200090009871
:1014B000012846D123484030006840F0805021493F
:1014C000403108602048006840F440401E490860F0
:1014D0001C48083000681B4908310860084600684D
:1014E00040F4004008600846006840F4A0500860DE
:1014F0001648091F0860081F006840F08070091F27
:10150000086000BF0F48006800F000700028F9D0A4
:1015100040F205700E4908600A480830006820F063
:1015200003000849083108600846006840F00200DE
:10153000086000BF03480830006800F00C0008286D
:10154000F8D10CBD0038024000700040085440073C
:10155000003C024010B500BF502080F31188BFF35B
:101560004F8FBFF36F8F00BF02F088FD18B14FF0AF
:1015700080500449086000BF002080F3118800BF3C
:1015800010BD000004ED00E010B51548006840F4FF
:101590007000134908601348006840F001001149C9
:1015A000086000200F49083108600E4800680E49A5
:1015B00008400C4908600D48091D0860081F0068B4
:1015C00020F48020091F0860002006490C310860C3
:1015D000FFF74AFF4FF0006001498039086010BDF5
:1015E00088ED00E000380240FFFFF6FE10300024D6
:1015F00010B588B0044601210846FFF7A1FE01217D
:101600001020FFF7ADFE072209212848FFF7FBFA5B
:1016100007220A212548FFF7F6FA4FF400700690DA
:1016200002208DF81C008DF81D0000208DF81E0092
:1016300001208DF81F0006A91C48FFF79CFA4FF403
:101640008060069000208DF81F0006A91748FFF75C
:1016500092FA02940020ADF80C00ADF80E00ADF83F
:101660001000ADF814000C20ADF8120002A91048CB
:1016700000F0DEF825208DF8040004208DF8050028
:1016800000208DF8060001208DF8070001A8FFF763
:101690002DFD012240F22551054800F0A3F801215B
:1016A000034800F05CF808B010BD000000000240E4
:1016B0000010014070B5002400BF5021EFF31180ED
:1016C00081F31188BFF34F8FBFF36F8F00BF0546C3
:1016D00040F22551164800F05BF8012822D1144849
:1016E00000F010F9C4B21348134909784454232C6C
:1016F00003D101201149087004E00F480078401C14
:101700000D49087021460A4800F001F900BF802108
:10171000074800F030F80028F9D040F2255104487D
:1017200000F00EF800BF85F3118800BF70BD000007
:1017300000100140C0020010300200103102001001
:1017400010B50022002340F66A14A14200D100BF68
:101750000A1201249440A3B2DC43048010BD21B1DD
:10176000828942F40052828104E082894DF6FF733F
:101770001A408281704702460020B1F5007F00D1F7
:1017800000BF13880B400BB1012000E00020704720
:1017900070B50246002400230025002040F66A169A
:1017A000B14200D100BFC1F3421501F01F03012671
:1017B00006FA03F3012D02D19689334006E0022D8B
:1017C00002D1168A334001E0968A33400C1201267A
:1017D00006FA04F41688344013B10CB1012000E07D
:1017E000002070BDF0B5034600240026002500202F
:1017F00040F66A17B94200D100BF1846C1F342143F
:1018000001F01F06012707FA06F5012C01D10C3063
:1018100004E0022C01D1103000E014301AB1076846
:101820002F43076002E00768AF430760F0BD000088
:101830002DE9FF4705460E460024A14600BFA046FD
:10184000B08900B100BF2C8A24F44054F0880443CE
:101850002C82AC8941F20C608443B0883189084302
:10186000718908430443AC81AC8A24F44074B08984
:101870000443AC826846FFF783FD2048854202D0CE
:101880001F48854202D1DDF80C9001E0DDF8089098
:10189000A88900F4004040B109EBC90000EB091031
:1018A00031684900B0FBF1F707E009EBC90000EB34
:1018B000091031688900B0FBF1F76420B7FBF0F044
:1018C00004012009642101FB1078A88900F400407C
:1018D00040B1322000EBC800B0FBF1F000F007008F
:1018E000044308E0322000EB08106421B0FBF1F063
:1018F00000F00F0004432C81BDE8FF870010014079
:101900000014014001468888C0F308007047C1F305
:1019100008028280704700BFFEE710B50446FFF75B
:1019200047FB7820FFF70AFBFFF7C0FA0020FFF71C
:1019300005FBFFF7BBFA2046FFF700FBFFF7B6FAFF
:10194000FFF756FB10BD10B50446FFF731FB7820BA
:10195000FFF7F4FAFFF7AAFA4020FFF7EFFAFFF7D4
:10196000A5FA2046FFF7EAFAFFF7A0FAFFF740FBD7
:1019700010BD00000FB4054B10B503A9044A02982E
:1019800000F0DEF810BC5DF814FB0000B524000880
:10199000340200100FB4084B10B504A902AA039832
:1019A00000F0CEF8044602A9002000F060FC2046BA
:1019B00010BC5DF814FB00006F22000802E008C8AC
:1019C000121F08C1002AFAD170477047002001E0B9
:1019D00001C1121F002AFBD1704700002DE9FF5FF3
:1019E000DDE90220010DDDF838B0024318D044F6DD
:1019F0001050A1F2FF3141430D140F98012820D05F
:101A0000A5EB0B00401C5FEA000A4FF00004474EB4
:101A1000DFF81C91A046504616D5CAF1000728E011
:101A20000F98012443A2012808D0002100980F9BA1
:101A3000C0E90021C0E90243BDE8FF9F6FEA0B0146
:101A4000F4E7CBF10000DEE7074612E0F80707D025
:101A50002246334640464946FEF7DDFC804689462D
:101A60002246334610461946FEF7D5FC04460E467C
:101A70007F10002FEAD1DDE90201BAF1000F4246E2
:101A80004B4602DAFEF7C7FC01E0FEF736FD0446DE
:101A90000E460022284BFEF7B3FD03D84FF0FF306F
:101AA000014607E00022254B20463146FEF70CFC9C
:101AB000FEF7E6FE102409E0002C0ADB0A220023D0
:101AC000FEF7E8FD019B30321A55641E50EA010210
:101AD000F2D1641C019AC4F1110314440F9A012A33
:101AE00003D0012208430DD10AE0084304D00020AE
:101AF0004FF0110B0F9080E7A3EB0B056D1E0DE06F
:101B00005B4504DD4FF0000205F1010504E003DA56
:101B10004FF00002A5F10105002AECD000980F99C2
:101B2000C0E90231C0E9004586E70000000024401A
:101B30000000F03F300000000000F0430000E03FF4
:101B40002DE9FF4F95B09B468946064600250FE2DA
:101B5000252877D100242746F84A0121059400E082
:101B6000044316F8013F203B01FA03F01042F7D17D
:101B700030782A2811D06FF02F033078A0F130028E
:101B8000092A16D8059A44F0020402EB820203EBFC
:101B900042021044761C0590EFE759F8042B059299
:101BA000002A03DA504244F40054059044F0020441
:101BB000761C30782E2816D116F8010F44F0040454
:101BC0002A280DD06FF02F023078A0F13003092BB6
:101BD00009D807EB870302EB4303C718761CF3E72A
:101BE00059F8047B761C30786C280FD006DC4C2822
:101BF00017D068280DD06A2814D104E0742810D0BA
:101C00007A280FD10DE044F400140AE044F4801463
:101C100001E044F440147278824202D104F5801449
:101C2000761C761C307866280BD013DC582877D0C9
:101C300009DC002875D04528F6D04628F4D047287E
:101C40001AD19DE118E0632835D0642879D0652841
:101C500012D195E1702873D008DC6728F1D069288B
:101C60006FD06E280DD06F2806D1B5E073282CD028
:101C7000752875D0782874D05A46179990476D1CEE
:101C800075E1C4F30250022809D003280DD0D9F819
:101C9000001004280DD00D6009F1040967E1D9F89E
:101CA0000010EA17C1E90052F6E7D9F800100D80DC
:101CB000F2E70D70F0E719F8041B8DF80010002012
:101CC0008DF80100EA46012003E059F804AB4FF01B
:101CD000FF3061074FF0000102D40DE008F101016F
:101CE0008846B9420FDA8045F8DB1AF80810002957
:101CF000F4D108E008F1010188468142FADB1AF8C4
:101D000008100029F6D105985B46A0EB080721468C
:101D10003846179A00F094FA284400EB080507E0CB
:101D20004DE029E10DE01AF8010B5A46179990474A
:101D3000B8F10108F7D25B4621463846179A13E1FD
:101D400042E00A220092C4F302524FF0000A022A33
:101D500008D059F804CB032A4FEAEC710AD00DE001
:101D600029E02AE009F1070121F00702F2E802C1A7
:101D7000914609E00FFA8CFC4FEAEC71042A03D17A
:101D80004FFA8CFC4FEAEC71002907DA0A46002171
:101D9000DCF1000C61EB02012D2202E0220504D5EA
:101DA0002B228DF80420012203E0E20701D020223B
:101DB000F7E7904659E00A2102E010220DE01021D9
:101DC0004FF0000A00910BE010224FF0000A44F09F
:101DD00004040827009203E008224FF0000A009252
:101DE000C4F30252022A05D059F804CB0021032A79
:101DF00008D009E009F1070121F00702F2E802C169
:101E0000914605E01FFA8CFC042A01D10CF0FF0C6E
:101E10004FF00008220728D5702806D0009B83F0D9
:101E2000100353EA0A0305D00EE040228DF8042087
:101E3000012208E05CEA010206D030228DF804207D
:101E40008DF8050002229046009B83F0080353EAB8
:101E50000A030AD15CEA010201D1620705D53022EA
:101E60008DF804204FF001087F1E582804D034A0BC
:101E700003900EA802900DE036A0F9E753466046A5
:101E8000009AFEF707FC84460398825C0298401E85
:101E9000029002705CEA0100F0D1029806A9081ACB
:101EA00000F1200A600702D524F4803400E0012705
:101EB000574502DDA7EB0A0000E0002000EB0A0115
:101EC000009005984144401A0590E00306D45B4613
:101ED0002146179A059800F0B3F90544002706E05B
:101EE00001A85A46C05D179990476D1C7F1C474555
:101EF000F6DBE0030CD55B462146179A059800F007
:101F00009FF9054404E030205A46179990476D1C0C
:101F10000099481E00900029F5DC08E0029802991B
:101F20005A460078491C0291179990476D1CBAF1E6
:101F30000001AAF1010AF1DC65E1000009280100B5
:101F4000303132333435363738396162636465662F
:101F500000000000303132333435363738394142F1
:101F6000434445460000000000F058F90544761C43
:101F7000307800287FF4ECAD19B02846BDE8F08F2A
:101F8000620700D4062709F1070222F0070CFCE8DB
:101F90000223E14603F000485FEA080C02D00FF28A
:101FA000702C0DE05FEA045C02D50FF2682C07E0AC
:101FB0005FEAC47C02D00FF2602C01E0AFF2700C3B
:101FC0004FF0FF3823F00043CDF850C065280CD007
:101FD00006DC452809D046281DD047283DD13DE0E4
:101FE000662818D067287ED138E00021112F01DB48
:101FF000112000E0781CCDE9000106A90EA8FFF72A
:10200000EDFCDDE90F010E9A03910021009207F12A
:10201000010A04914DE04FF000400097CDE9011016
:1020200006A90EA8FFF7DAFCDDE90F0203920E9B6A
:1020300011990022DDF80CA00093049211B9791CCB
:1020400000EB010AB7EB0A0004D4C0F1FF3007F13E
:10205000010A0490AAEB0700019044E0012F00DA86
:1020600001270021112F01DD112000E03846CDE9C4
:10207000000106A90EA8FFF7B1FCDDE90F010E9AD9
:102080000391002104910092BA4621070CD40399D0
:10209000514500DA8A46BAF1010F05DD009AAAF12E
:1020A0000101515C302908D0B84202DA10F1040F66
:1020B00006DA0121CDE9011015E0AAF10101E9E7F5
:1020C000002805DC049901440491AAEB000102E018
:1020D000411C514500DD8A460499401A401C01907C
:1020E0004FF000400290200704D40198504501DBD6
:1020F000CDF8048000208DF84F0002980DF14F07B5
:10210000B0F1004F25D02B200E9002984FF002081E
:1021100000280CDA404202902D200E9007E00A21A0
:102120000298FEF7A1FA3031029007F8011DB8F1CC
:102130000001A8F10108F2DC02980028EFD1791E15
:102140000E980870307800F0200040F0450007F845
:10215000020D12A8C01B00F107081498007800B106
:10216000012000EB0A01019801EBE0710598414460
:10217000401A401E0590E00306D45B462146179A9C
:10218000059800F05DF805441498007818B15A4697
:10219000179990476D1CE00324D55B462146179A9A
:1021A000059800F04DF805441CE00498002807DB72
:1021B000DDE90301884203DD0098405C179901E0E6
:1021C000179930205A469047049805F10105401CA4
:1021D00004900198401E019004D12E205A46179970
:1021E00090476D1CBAF10001AAF1010ADDDC05E09F
:1021F00017F8010B5A46179990476D1CB8F100016A
:10220000A8F10108F4DC5B462146179A0598ABE675
:102210002D0000002B000000200000002DE9F041FF
:10222000044600251E461746880404D405E03946B6
:102230002020B0476D1C641EF9D52846BDE8F0810A
:102240002DE9F041044600251E469046C80301D5FD
:10225000302700E02027880404D505E041463846B1
:10226000B0476D1C641EF9D52846BDE8F0810A68A8
:10227000531C0B60107070472DED028B84B0002052
:102280000090019002900390FEF74AFD4FF4FA602F
:10229000FEF76EFB00BFB0EE0C0AFEF7D7FCB0EE07
:1022A000408AF0EE608A51EC180BFEF7C1F926491E
:1022B0000860084690ED000AF3EE040AB4EEE00A66
:1022C000F1EE10FA3BDD90ED000ADFED200AB4EEEE
:1022D000E00AF1EE10FA32D24FF0FF311C480068EC
:1022E00001F064FD002206211046FEF779FF01226D
:1022F00006211220FEF774FF022206212420FEF799
:102300006FFF032206213620FEF76AFF0E480068A1
:10231000FEF762F941EC180B53EC182B0DA168463F
:10232000FFF738FB10236A4606214820FEF7DEFF40
:1023300000231A4619460648006801F033FB4FF4A3
:10234000FA7001F063F8A6E70C00001000007A456F
:102350000800001025302E30666D6D001FB500207E
:1023600000900190029003900024FEF7BBFB41F225
:102370007070FEF7FDFA00BF1C48FEF709FB04462B
:1023800074BB4FF0FF311A48006801F00FFD0422C2
:1023900002210020FEF724FF052202211220FEF771
:1023A0001FFF062202212420FEF71AFF0722022126
:1023B0003620FEF715FF0D4803788078821E0DA1A8
:1023C0006846FFF7E7FA10236A4602214820FEF725
:1023D0008DFF00231A4619460548006801F0E2FA0D
:1023E00041F2707001F012F8C6E700001000001012
:1023F000080000102564432C2564252500000000FA
:1024000070B5044601F024FE012810D00B48008866
:10241000844206D309480088B4FBF0F5284600F052
:10242000F5FF06480088B4FBF0F100FB11444FF4BF
:102430007A7104FB01F000F003F870BD2E02001069
:102440002DE9F04707460026B0464FF0E020D0F8CF
:102450001490164800681649B0FBF1F000FB07FA2B
:102460004FF0E020856901F011F919E04FF0E0200C
:102470008469AC420CD0AC4202D2281B064403E073
:10248000A9EB0400284406442546564500D308E03D
:102490004FF0E020D0F8108008F0010000B900E013
:1024A000E4E700BF01F0A2FFBDE8F08718000010CC
:1024B00040420F0070B504460D46A1B20548FFF733
:1024C00026FA00BF80210348FFF755F90028F9D00C
:1024D000204670BD001001401CB54FF44070FEF75F
:1024E00041FE4FF4E130FFF783F8FEF7C1FDFEF740
:1024F0001DFAFEF79DFDFEF743FCFEF73DFE0120B1
:1025000001F0C6F9134908601348032100234FF472
:102510000072CDE9001011A1134801F069FD0446D5
:10252000012C02D111A0FFF725FA1748042100233E
:10253000CA01CDE9001015A1174801F059FD044664
:10254000012C02D115A0FFF715FA01F055F8002073
:102550001CBD000008000010000000106170705FDA
:102560007461736B31000000792200086170705F44
:102570007461736B31206372656174652073756378
:1025800063657373210D0A00040000106170705FB1
:102590007461736B320000005D2300086170705F2E
:1025A0007461736B32206372656174652073756347
:1025B00063657373210D0A002DE9F04105460E464F
:1025C0001C4807681C480068001D00F0B7FD50B9A2
:1025D0001948006890F82C100120884017490968B4
:1025E000814316480160681C38B936B11248016849
:1025F000091D134800F0E0FD1AE07C190E48006840
:102600004460BC4207D20C480168091D0D480068AF
:1026100000F0B8FD0CE008480168091D0A48006890
:1026200000F0B0FD09480068844201D20748046008
:10263000BDE8F081600200104C020010640200103E
:10264000B404001054020010500200107C0200106C
:1026500010B5044600F0BCFD24480068401C234926
:1026600008602348006840B92148046008460068B3
:1026700001280DD100F0F0F90AE01E48006838B9D1
:102680001B480068C06AE16A884201D818480460A3
:1026900019480068401C1849086008460068206412
:1026A00094F82C1001208840144909680843134904
:1026B0000860E16A01EB8101114A02EB8100211DF2
:1026C00000F07AFD00F0AEFD0A48006868B10848E5
:1026D0000068C06AE16A884207D24FF08050094919
:1026E0000860BFF34F8FBFF36F8F10BD5C02001007
:1026F0004C02001068020010780200106402001002
:102700000004001004ED00E010B500F061FD104879
:102710000068D0B90F4800F025FD0F4800F022FDF9
:102720000C480E4908600C480D49086000220C2135
:102730000A2001F0BEF8064908600846006820B18A
:1027400008A10348006800F025FE00F06BFD10BDF5
:1027500090020010C8040010DC0400108802001071
:102760008C020010546D72510000000010B516E08C
:1027700000F02EFD0C48C068C468201D00F0DEFC8F
:102780000A480068401E0949086009480068401E60
:102790000749086000F046FD204600F05FF8044855
:1027A00000680028E4D110BDA00400105C020010F5
:1027B0005802001070B504460D46206C70B1216CB3
:1027C000E0680144E160D4E90210884201D3216845
:1027D000E1602846226CE168FDF752FD70BD2DE9ED
:1027E000F04104460F4615464FF00008A66B206CDA
:1027F00048B9206800282CD1A06801F0E3FC80468D
:102800000020A06025E07DB93946226C6068FDF7A4
:1028100037FD216C606808446060D4E9010188429A
:1028200017D32068606014E03946226CE068FDF739
:1028300027FD216CE068411AE1602168E068884268
:1028400003D2216CA068411AE160022D01D106B1CA
:10285000761E701CA0634046BDE8F08110B50446AA
:10286000206B00F0FDFC204600F0FAFC10BD014694
:102870004A6A22B10A6B1268C2F1050000E000202A
:10288000704700000146084A126812680AB901221E
:1028900000E000220A600A6822B9034A1268D2687E
:1028A000106800E0002070478802001030B54FF437
:1028B0009633174800F007042CB1C01D20F0070024
:1028C000134C041B1B1B0246124C22600024114DAA
:1028D0006C60D018083820F007000F4C20600024EE
:1028E0000D4D2D686C600C4D2D682C601146441AFE
:1028F0004C60094C24680C60084D4C682C60084DF5
:102900004C682C604FF00044064D2C6030BD000038
:10291000000000209C020010A4020010AC02001075
:10292000A8020010B002001000BFFFF71FFF06480A
:1029300000680128F9D94FF0805004490860BFF3BE
:102940004F8FBFF36F8FF0E70004001004ED00E03D
:1029500010B5044654B10020A06020600021E16061
:1029600000231A461946204601F01CF810BD2DE937
:10297000F04106460D4617469846069C0DB9246060
:1029800000E02760E66325640121204600F0BEFFD9
:1029900084F84C80BDE8F0812DE9F05F82460E4658
:1029A00090469B460A9F0C9C4FEA8801A522206B0B
:1029B000FDF778FCA8F10100216B01EB800929F0FB
:1029C000070909F0070008B9012000E0002050B90C
:1029D00000BF502080F31188BFF34F8FBFF36F8F7C
:1029E00000BF00BFFEE786B1002507E0715D04F17E
:1029F00034004155705D00B902E06D1C0A2DF5D31D
:102A000000BF00213D20015502E0002084F8340081
:102A1000052F00D30427E762A7640020E064201D8F
:102A200000F0ADFB04F1180000F0A9FB2461C7F130
:102A30000500A06164620020206584F854005A46B5
:102A40005146484600F064FB20600B9808B10B9893
:102A50000460BDE8F09F000010B5002407E004EB1F
:102A600084010F4A02EB810000F07CFB641C052C02
:102A7000F5D30C4800F076FB0B4800F073FB0B48D5
:102A800000F070FB0A4800F06DFB0A4800F06AFB9A
:102A900004480949086004480849086010BD00005E
:102AA0000004001064040010780400108C0400106E
:102AB000A0040010B40400105002001054020010D2
:102AC00010B50146164800E0006803688B42FBD34E
:102AD0000246436813448B4204D143684C68234444
:102AE000436001460A464B6813440468A34211D16F
:102AF0000C4C03682468A34208D04B6804686468DF
:102B000023444B6003681B680B6005E0054B1B68A2
:102B10000B6001E003680B60884200D0016010BDCB
:102B20009C020010A40200102DE9F04104460D465D
:102B300016461F464FF0000865602461B5420CD868
:102B4000F01BA169884202D34FF0010811E0211D5A
:102B50000948006800F016FB0BE0BE4204D2BD42FB
:102B600002D34FF0010804E0211D0448006800F082
:102B700009FB4046BDE8F0818C020010880200107D
:102B800070B5054600F024FBA86B08B9012400E0ED
:102B9000002400F047FB204670BD70B5054600F0EC
:102BA00017FBA86BE96B884201D1012400E00024E7
:102BB00000F038FB204670BDF8B505460F461A48B0
:102BC0000068C068C468201D00F0B8FA94F82800B6
:102BD00000F00400E8B1A06941192B463A462046AE
:102BE000FFF7A2FFD8B1002003462A460146009015
:102BF000204601F0A9FC064656B900BF502080F3DC
:102C00001188BFF34F8FBFF36F8F00BF00BFFEE788
:102C100005E094F8280020F0010084F82800204600
:102C2000216A8847F8BD00008802001070B586B0A0
:102C30008BE003980028FBDB059C606908B9012044
:102C400000E0002010B9201D00F078FA02A800F082
:102C5000DDF8054603980A2875D2DFE800F009057B
:102C60000739416306083A4200BF00BF00BF00BFFA
:102C700094F8280040F0010084F828000498A26924
:102C8000811803462A462046FFF74EFFF8B120463A
:102C9000216A884794F8280000F00400B8B10020A9
:102CA00000900498A169421800231946204601F0BB
:102CB0004BFC064656B900BF502080F31188BFF385
:102CC0004F8FBFF36F8F00BF00BFFEE700BF3BE039
:102CD00000BF94F8280020F0010084F8280033E0B9
:102CE00000BF94F8280040F0010084F82800049800
:102CF000A061A06908B1012000E0002050B900BF28
:102D0000502080F31188BFF34F8FBFF36F8F00BF48
:102D100000BFFEE7A06941192B462A462046FFF76F
:102D200003FF11E094F8280000F0020018B92046D3
:102D300000F096FA05E094F8280020F0010084F8ED
:102D4000280001E0FFE700BF00BF002203A90448FC
:102D5000006800F077FF00287FF46BAF06B070BD0D
:102D600090020010F8B505460C4600F08FFC68464E
:102D700000F04CF80646009820BB44B9B54206D88E
:102D800001F034FB31462846FFF716FF1CE03CB14A
:102D90000E480068006808B9012000E000200446E1
:102DA000A91B22460A48006800F00AFB01F01EFB3E
:102DB00050B94FF0805007490860BFF34F8FBFF301
:102DC0006F8F01E001F012FBF8BD00008C020010D3
:102DD0009002001004ED00E00A490968096809B989
:102DE000012100E0002121B14FF0FF31064A1160BE
:102DF00006E004490968C968C868034A4168116067
:102E000070470000500200107C02001070B50446AC
:102E100001F02EF9054607480068854204D200F00B
:102E20000BF80120206001E00020206001480560CF
:102E3000284670BD980200102DE9F84334E025487B
:102E40000068C068056823480068C068C468201D21
:102E500000F074F92046216A884794F8280000F0B1
:102E6000040008B3A0694619AE4207D96660246120
:102E7000211D1848006800F085F915E00020034680
:102E80002A4601460090204601F05EFB074657B9EE
:102E900000BF502080F31188BFF34F8FBFF36F8FB7
:102EA00000BF00BFFEE700BF0A480068006808B91D
:102EB000012000E000200028C1D00648D0F80080A2
:102EC00005480068034908600348C0F80080BDE871
:102ED000F8830000880200108C0200100E48006881
:102EE000401C08B9012000E0002050B900BF50206C
:102EF00080F31188BFF34F8FBFF36F8F00BF00BF08
:102F0000FEE700BF502080F31188BFF34F8FBFF35F
:102F10006F8F00BF00BFFEE7B402001008B500BF0E
:102F20006846FFF7AFFC044620460099FFF71AFFFA
:102F3000FFF77CFEF4E770B5044600F049F994F918
:102F4000455010E0606A08B9012000E0002038B95F
:102F500004F1240001F0FEF918B100F091FA00E04C
:102F600003E0681E45B2002DECDC00BFFF2084F8B2
:102F7000450000F057F900F02BF994F9445010E0A7
:102F8000206908B9012000E0002048B904F11000D0
:102F900001F0E0F908B100F073FA681E45B200E0F4
:102FA00001E0002DECDC00BFFF2084F8440000F0BD
:102FB00039F970BD2DE9F04104464FF0000800F0EA
:102FC00065FB4648006808B9FFF770FC4448006894
:102FD000204000286BD1D4B1083404F00700B0B110
:102FE00004F00700C0F10800044404F0070008B929
:102FF000012000E0002050B900BF502080F311886C
:10300000BFF34F8FBFF36F8F00BF00BFFEE7002CF1
:103010004DD034480068844249D8334E3046056864
:1030200001E02E462D686868A04202D22868002878
:10303000F7D12A480068854239D0306800F1080885
:10304000286830606868001B102819D92F1907F00C
:10305000070008B9012000E0002050B900BF50204F
:1030600080F31188BFF34F8FBFF36F8F00BF00BF96
:10307000FEE76868001B78606C603846FFF720FD4B
:10308000184968680968081A1649086008460068FF
:1030900016490968884203D212480068134908603B
:1030A0000F4968680968084368600020286001F0DB
:1030B0009DF908F0070008B9012000E0002050B990
:1030C00000BF502080F31188BFF34F8FBFF36F8F85
:1030D00000BF00BFFEE74046BDE8F081A40200103B
:1030E000B0020010A80200109C020010AC020010F8
:1030F0000648006830B10549096801F14C00C96C07
:10310000491C016001480068704700004C02001033
:10311000001F4FF080730360001F21F00103036064
:10312000001F054B036014380260001F6FF002039C
:103130000360203870470000DD2E000801460A6950
:10314000D1E901309860D1E90103586050688842A4
:1031500001D188685060002008611068401E10602E
:103160001068704700F1080141604FF0FF31816045
:1031700000F10801C1600161002101607047002178
:103180000161704710B502460B685C1C0CB91069F0
:1031900007E002F1080000E04068446824689C42AF
:1031A000FAD944684C604C68A160886041600A614B
:1031B0001468641C146010BD42684A6093688B6098
:1031C000936859609160086103685B1C03607047F5
:1031D00000BF502080F31188BFF34F8FBFF36F8F74
:1031E00000BF0E480068401C0C4908600846006893
:1031F000012812D10A480068C0B208B9012000E0D5
:10320000002050B900BF502080F31188BFF34F8FCA
:10321000BFF36F8F00BF00BFFEE77047B40200101E
:1032200004ED00E00D48006850B900BF502080F365
:103230001188BFF34F8FBFF36F8F00BF00BFFEE752
:1032400006480068401E054908600846006820B925
:10325000002080F3118800BF00BF7047B402001047
:1032600070B506463546002E3FD0083D2C461F4916
:1032700060680968084008B1012000E0002050B9EA
:1032800000BF502080F31188BFF34F8FBFF36F8FC3
:1032900000BF00BFFEE7206808B9012000E0002061
:1032A00050B900BF502080F31188BFF34F8FBFF398
:1032B0006F8F00BF00BFFEE70C49606809680840D7
:1032C00098B1206888B909496068096888436060D6
:1032D00000F0DCF9064960680968084404490860A0
:1032E0002046FFF7EDFB01F081F870BDB002001041
:1032F000A802001000204FF0E02108618861064814
:1033000000684FF47A71B0FBF1F0401E4FF0E021FD
:1033100048610720086170471800001070B5FCF77D
:1033200099FF0446102C16D304F1E02090F8F053D6
:1033300015480078854201DB012000E0002050B9EB
:1033400000BF502080F31188BFF34F8FBFF36F8F02
:1033500000BF00BFFEE70D48006800F4E0600C49C4
:103360000968884201D8012000E0002050B900BF60
:10337000502080F31188BFF34F8FBFF36F8F00BFD2
:1033800000BFFEE770BD0000B80200100CED00E0C9
:10339000BC020010024600200BE0084B53F830300E
:1033A00033B9064B43F8301003EBC0035A6002E018
:1033B000401C0828F1D300BF70470000C003001074
:1033C0002DE9F04105460E4617462C46FFF700FF53
:1033D00094F94400401C10B9002084F8440094F98A
:1033E0004500401C10B9002084F84500FFF71AFF83
:1033F000A06B28B93A46314604F1240000F062F887
:103400002046FFF798FDBDE8F081000070B5044646
:103410000025D4B11248006808B9012000E000205E
:1034200050B900BF502080F31188BFF34F8FBFF316
:103430006F8F00BF00BFFEE700F028F90021204693
:10344000FFF7BAF800F0D2FF05463DB94FF08050C3
:1034500004490860BFF34F8FBFF36F8F70BD00004A
:103460008402001004ED00E003490968016003498B
:10347000096841607047000074020010600200108B
:1034800001200149086070477002001070B50446C1
:103490000D4654B900BF502080F31188BFF34F8F01
:1034A000BFF36F8F00BF00BFFEE70548016818310A
:1034B0002046FFF767FE01212846FFF77DF870BD23
:1034C0004C02001070B505460E46144655B900BFB3
:1034D000502080F31188BFF34F8FBFF36F8F00BF71
:1034E00000BFFEE70648016818312846FFF764FE72
:1034F0000CB14FF0FF3621463046FFF75DF870BD46
:103500004C0200102DE9F04706460F4634464FF0B6
:103510000109002E67D0E06C50B900BF502080F345
:103520001188BFF34F8FBFF36F8F00BF00BFFEE75F
:10353000A06CB84201D23D4600E0A56CE06AA8420A
:1035400051D0E06C01284ED128480068844201D057
:10355000012000E0002050B900BF502080F3118806
:10356000BFF34F8FBFF36F8F00BF00BFFEE7D4F8EC
:103570002C80E562A06900F0004010B9C5F105009B
:10358000A06108EB88011A4A02EB81016069884258
:1035900001D1012000E0002028B3201DFFF7CEFD5F
:1035A00078B9E06A00EB8000114951F8200040B979
:1035B00094F82C10012088400E49096881430D4879
:1035C000016094F82C10012088400A4909680843DA
:1035D00008490860E16A01EB8101054A02EB8100BC
:1035E000211DFFF7E9FDBDE8F08700004C02001047
:1035F00000040010640200101CB51D4800210B4699
:103600008222CDE900101BA11C4800F0F1FC044609
:10361000012C02D100F06CFF0446012C15D100BF33
:10362000502080F31188BFF34F8FBFF36F8F00BF1F
:103630004FF0FF3012490860012012490860002055
:103640001149086000F070F810E0601C08B101201A
:1036500000E0002050B900BF502080F31188BFF374
:103660004F8FBFF36F8F00BF00BFFEE71CBD000090
:103670008002001049444C45000000002929000840
:103680007C0200106802001060020010024800680E
:10369000401C014908607047840200101D48006802
:1036A00018B101201C49086032E000201A49086066
:1036B0001A480068B0FA80F0C0F11F0101EB8100E8
:1036C000174A52F8200008B1012000E0002050B94C
:1036D00000BF502080F31188BFF34F8FBFF36F8F6F
:1036E00000BF00BFFEE701EB81020D4B03EB820040
:1036F00042685268426000F108024368934202D176
:103700004268526842604268D268064B1A6000BF45
:103710007047000084020010700200106402001064
:10372000000400104C0200101CB5524800685249B9
:10373000884201D0012000E0002050B900BF502095
:1037400080F31188BFF34F8FBFF36F8F00BF00BFAF
:10375000FEE7484800684849491E884201D00120D8
:1037600000E0002050B900BF502080F31188BFF363
:103770004F8FBFF36F8F00BF00BFFEE73F49084682
:1037800000780190FF200A461070084600780090EB
:103790009DF8000000F0F0009DF80020904201D15B
:1037A000012000E0002050B900BF502080F31188B4
:1037B000BFF34F8FBFF36F8F00BF00BFFEE79DF8D1
:1037C000000000F050002E4A107007202D4A1060B3
:1037D00009E02C480068401E2A4A10609DF800004D
:1037E0004006000E00909DF8000000F08000802848
:1037F000EFD024480068C0F10700042801D101205F
:1038000000E0002050B900BF502080F31188BFF3C2
:103810004F8FBFF36F8F00BF00BFFEE719480068EE
:103820000002184A10601046008800F4E060106042
:10383000124A019810700F482030006840F4700060
:103840000C49203108600846006840F0704008606C
:10385000FFF750FD00200C490860FCF7C3FC0B4843
:10386000006840F0404009490860FCF7A7FC0020D0
:103870001CBD000000ED00E071C20F4100E400E05B
:10388000B8020010BC020010B402001034EF00E0D7
:103890002DE9F0410446012600272246002101209F
:1038A00000F007F805462846FFF752F82846BDE81D
:1038B000F0812DE9F84305460E4690460DB10120F2
:1038C00000E0002050B900BF502080F31188BFF302
:1038D0004F8FBFF36F8F00BF00BFFEE70EB9002709
:1038E00001E005FB06F707F15000FFF763FB044614
:1038F0004CB1A14609F1500943464A463146284693
:103900000094FFF734F82046BDE8F88370B505460B
:103910000E462C4654B900BF502080F31188BFF3E7
:103920004F8FBFF36F8F00BF00BFFEE7FFF750FC64
:10393000D4E90F12206801FB0200A0600020A06300
:1039400020686060E06B401E226C216800FB021161
:10395000E160FF2084F8440084F845009EB92069A6
:1039600008B9012000E00020A8B904F1100000F01F
:10397000F1FC80B14FF0805009490860BFF34F8FD0
:10398000BFF36F8F07E004F11000FFF7EBFB04F1CA
:103990002400FFF7E7FBFFF745FC012070BD0000A6
:1039A00004ED00E02DE9FF4383B0064688461D463E
:1039B0004FF00009344654B900BF502080F31188FD
:1039C000BFF34F8FBFF36F8F00BF00BFFEE7B8F1AB
:1039D000000F01D1206C08B9012000E0002050B98F
:1039E00000BF502080F31188BFF34F8FBFF36F8F5C
:1039F00000BF00BFFEE7022D02D1E06B012801D11C
:103A0000012000E0002050B900BF502080F3118851
:103A1000BFF34F8FBFF36F8F00BF00BFFEE700F013
:103A200017FB08B9059808B9012000E0002050B93B
:103A300000BF502080F31188BFF34F8FBFF36F8F0B
:103A400000BF00BFFEE700BFFFF7C2FBA06BE16B4A
:103A5000884201D3022D28D12A4641462046FEF74E
:103A6000BEFE0746606A08B9012000E0002068B980
:103A700004F1240000F06EFC88B14FF08050324910
:103A80000860BFF34F8FBFF36F8F08E03FB14FF077
:103A900080502D490860BFF34F8FBFF36F8FFFF742
:103AA000C1FB012007B0BDE8F083059818B9FFF706
:103AB000B9FB0020F6E7B9F1000F04D101A8FFF728
:103AC000D3FC4FF00109FFF7ADFBFFF7DFFDFFF778
:103AD0007FFB94F94400401C10B9002084F8440096
:103AE00094F94500401C10B9002084F84500FFF708
:103AF00099FB05A901A800F035FAF0B92046FFF7B7
:103B00004CF8A0B104F110000599FFF7BFFC204666
:103B1000FFF711FA00F06AFC002895D14FF08050B1
:103B200009490860BFF34F8FBFF36F8F8CE72046C2
:103B3000FFF701FA00F05AFC86E72046FFF7FBF991
:103B400000F054FC0020ADE704ED00E02DE9F05F4B
:103B500007468A4690461E463C4654B900BF502050
:103B600080F31188BFF34F8FBFF36F8F00BF00BF8B
:103B7000FEE7BAF1000F01D1206C08B9012000E086
:103B8000002050B900BF502080F31188BFF34F8F41
:103B9000BFF36F8F00BF00BFFEE7022E02D1E06BC4
:103BA000012801D1012000E0002050B900BF5020C1
:103BB00080F31188BFF34F8FBFF36F8F00BF00BF3B
:103BC000FEE7FFF7ABFB00BF5021EFF3118081F35D
:103BD0001188BFF34F8FBFF36F8F00BF0546A06BF7
:103BE000E16B884201D3022E23D194F945B03246CD
:103BF00051462046FEF7F3FD0BF1010088B9606ADB
:103C000008B9012000E0002080B904F1240000F090
:103C1000A1FB58B1B8F1000F08D00120C8F800008E
:103C200004E00BF1010040B284F845004FF00109B7
:103C300001E04FF0000900BF85F3118800BF48463E
:103C4000BDE8F09F2DE9F74183B005460E464FF0E1
:103C500000082C4654B900BF502080F31188BFF3F0
:103C60004F8FBFF36F8F00BF00BFFEE70EB9206C10
:103C700008B9012000E0002050B900BF502080F3B7
:103C80001188BFF34F8FBFF36F8F00BF00BFFEE7F8
:103C900000F0DEF908B9059808B9012000E000201D
:103CA00050B900BF502080F31188BFF34F8FBFF38E
:103CB0006F8F00BF00BFFEE700BFFFF789FAA76B59
:103CC000F7B131462046FEF775FD781EA0632069E6
:103CD00008B9012000E0002060B904F1100000F0F4
:103CE00039FB38B14FF080502F490860BFF34F8F38
:103CF000BFF36F8FFFF796FA012006B0BDE8F081A1
:103D0000059818B9FFF78EFA0020F6E7B8F1000F12
:103D100004D101A8FFF7A8FB4FF00108FFF782FAD2
:103D2000FFF7B4FCFFF754FA94F94400401C10B9B3
:103D3000002084F8440094F94500401C10B900208C
:103D400084F84500FFF76EFA05A901A800F00AF90A
:103D5000F0B92046FEF714FFA0B104F12400059944
:103D6000FFF794FB2046FFF7E6F800F03FFB002842
:103D7000A3D14FF080500C490860BFF34F8FBFF3C1
:103D80006F8F9AE72046FFF7D6F800F02FFB94E7F5
:103D90002046FFF7D0F800F029FB2046FEF7F0FEA2
:103DA00000288AD00020A8E704ED00E02DE9F341C7
:103DB00082B005464FF000082C46002654B900BFDB
:103DC000502080F31188BFF34F8FBFF36F8F00BF78
:103DD00000BFFEE7206C08B9012000E0002050B9C8
:103DE00000BF502080F31188BFF34F8FBFF36F8F58
:103DF00000BF00BFFEE700F02BF908B9039808B92F
:103E0000012000E0002050B900BF502080F311884D
:103E1000BFF34F8FBFF36F8F00BF00BFFEE700BF40
:103E2000FFF7D6F9A76BFFB1781EA063206810B921
:103E3000FFF75EF9A060206908B9012000E00020CA
:103E400060B904F1100000F085FA38B14FF08050ED
:103E500043490860BFF34F8FBFF36F8FFFF7E2F95D
:103E6000012004B0BDE8F081039898B90EB9012093
:103E700000E0002050B900BF502080F31188BFF34C
:103E80004F8FBFF36F8F00BF00BFFEE7FFF7CAF988
:103E90000020E6E7B8F1000F04D16846FFF7E4FA26
:103EA0004FF00108FFF7BEF9FFF7F0FBFFF790F9BD
:103EB00094F94400401C10B9002084F8440094F99F
:103EC0004500401C10B9002084F84500FFF7AAF90E
:103ED00003A9684600F046F840BB2046FEF750FEB6
:103EE000F0B1206838B9FFF773F9A06800F0CEF997
:103EF0000646FFF797F904F124000399FFF7C6FA85
:103F00002046FFF718F800F071FA002888D14FF02A
:103F1000805013490860BFF34F8FBFF36F8F7FE767
:103F20002046FFF708F800F061FA79E72046FFF72E
:103F300002F800F05BFA2046FEF722FE0028EED0E1
:103F40005EB1FFF745F92046FEF791FC074639467A
:103F5000A068FFF7D7FAFFF765F9002081E70000B6
:103F600004ED00E070B505460C4655B900BF502081
:103F700080F31188BFF34F8FBFF36F8F00BF00BF77
:103F8000FEE754B900BF502080F31188BFF34F8F74
:103F9000BFF36F8F00BF00BFFEE7FFF719F91248AC
:103FA00002686868131A2068401C08B9002617E0E8
:103FB0000E4928680968884204D06868904201D890
:103FC00001260DE02068984207D92068C01A2060B9
:103FD0002846FFF749FA002602E00020206001266B
:103FE000FFF720F9304670BD600200107402001027
:103FF0002DE9FF4F85B0804689461746DDE912ABB3
:10400000B800FEF7D7FF064656B15820FEF7D2FF9C
:1040100004460CB1266304E03046FFF721F900E0C6
:1040200000247CB10020CDE900ABCDE902403A4646
:1040300049464046089BFEF7AFFC2046FEF708FBCA
:10404000012501E04FF0FF35284609B0BDE8F08FAB
:104050000549096809B9012005E00449096809B959
:10406000022000E000207047680200108402001067
:104070000149086870470000600200102DE9F04116
:104080004FF0000844480068002877D14348006892
:10409000451C4248056015BB41480068006808B9E6
:1040A000012000E0002050B900BF502080F31188AB
:1040B000BFF34F8FBFF36F8F00BF00BFFEE73848DD
:1040C000076838480068364908603648076036484F
:1040D0000068401C34490860FEF77EFE00BF33488C
:1040E000006885423CD300BF2D480068006808B9CD
:1040F000012000E0002020B14FF0FF302B49086084
:104100002DE027480068C068C4686668B54202D2DE
:104110002648066023E0201DFFF710F8A06A18B1BA
:1041200004F11800FFF70AF894F82C1001208840D9
:104130001F49096808431E490860E16A01EB8101D3
:104140001C4A02EB8100211DFFF736F81A49E06A8C
:104150000968C96A8842C7D34FF00108C4E700BFA5
:1041600015480068C06A00EB8000124951F8200031
:10417000012801D94FF0010805E0FFE70F4800686A
:10418000401C0E4908600E48006808B14FF0010855
:104190004046BDE8F081000084020010600200107B
:1041A0005002001054020010740200107C02001033
:1041B00064020010000400104C0200106C02001099
:1041C0007002001070B505462C460026002D55D013
:1041D0002B480068844201D1012000E0002050B942
:1041E00000BF502080F31188BFF34F8FBFF36F8F54
:1041F00000BF00BFFEE7E06C50B900BF502080F365
:104200001188BFF34F8FBFF36F8F00BF00BFFEE772
:10421000E06C401EE064A16CE06A88422ED0E06C45
:1042200060BB201DFEF78AFF78B9E06A00EB8000D2
:10423000144951F8200040B994F82C10012088400E
:1042400011490968814310480160A06CE062E06A8E
:10425000C0F10500A06194F82C10012088400A49A3
:104260000968084308490860E16A01EB8101054AD1
:1042700002EB8100211DFEF79FFF0126304670BD35
:104280004C020010000400106402001070B50546D6
:104290002C460026002D54D02B49E06A0968C96AD3
:1042A000884247D2A06900F0004028B9264800683B
:1042B000C06AC0F10500A061E16A01EB8101234AF7
:1042C00002EB81016069884201D1012000E00020F9
:1042D00050B3201DFEF732FF78B9E06A00EB800092
:1042E0001A4951F8200040B994F82C100120884058
:1042F0001749096881431648016013480068C06A7D
:10430000E06294F82C1001208840114909680843A4
:104310000F490860E16A01EB81010C4A02EB810060
:10432000211DFEF749FF03E007480068C06AE0620C
:10433000012606E00449A06C0968C96A884200D2D7
:104340000126304670BD00004C0200100004001031
:104350006402001070B50646F068C46854B900BF26
:10436000502080F31188BFF34F8FBFF36F8F00BFD2
:1043700000BFFEE704F11800FEF7E0FE15480068F4
:10438000A8B9201DFEF7DAFE94F82C100120884011
:1043900011490968084310490860E16A01EB81018D
:1043A0000E4A02EB8100211DFEF706FF04E004F136
:1043B00018010B48FEF700FF0A49E06A0968C96A5C
:1043C000884204D9012501200749086000E0002542
:1043D000284670BD84020010640200100004001022
:1043E0008C0400104C0200107002001070B5002404
:1043F00000263648006850B900BF502080F311886D
:10440000BFF34F8FBFF36F8F00BF00BFFEE7FEF714
:10441000DFFE2E480068401E2C49086008460068F0
:1044200000284FD12A48006800284BD024E02948B2
:10443000C068C46804F11800FEF780FE201DFEF776
:104440007DFE94F82C100120884023490968084318
:1044500021490860E16A01EB8101204A02EB8100F9
:10446000211DFEF7A9FE1E49E06A0968C96A884253
:1044700002D301201B4908601648006808B90120D2
:1044800000E000200028D2D00CB1FEF7A5FC1648B1
:10449000056865B100BFFFF7F1FD10B101201149BA
:1044A00008606D1E002DF6D100200F4908600D48F0
:1044B000006838B1012630070C490860BFF34F8F00
:1044C000BFF36F8FFEF7AEFE304670BD8402001062
:1044D0005C0200108C040010640200100004001044
:1044E0004C020010700200106C02001004ED00E09D
:1044F0001CB50024FEF708F90E48006858B10E48B4
:10450000022100234FF48272CDE900100BA10D4867
:10451000FFF76EFD044654B900BF502080F31188A8
:10452000BFF34F8FBFF36F8F00BF00BFFEE7204682
:104530001CBD00009002001094020010546D722007
:10454000537663001D2F00082DE9FE4304460D46F7
:1045500016461F46DDF828804FF0000954B900BF09
:10456000502080F31188BFF34F8FBFF36F8F00BFD0
:1045700000BFFEE71448006810B30095019602944E
:10458000062D15DAFFF764FD022808D10023424604
:1045900069460D480068FFF705FA814610E00023E0
:1045A0001A46694608480068FFF7FCF9814607E0AB
:1045B00000233A46694604480068FFF7C7FA814677
:1045C0004846BDE8FE830000900200100000000095
:1045D00000000000002F000000000700070000148A
:1045E0007F147F1400242A7F2A1200626408132398
:1045F00000364955225000000503000000001C222F
:104600004100000041221C000014083E081400086C
:10461000083E0808000000A060000008080808081C
:10462000000060600000002010080402003E5149B4
:10463000453E0000427F4000004261514946002152
:1046400041454B31001814127F100027454545396C
:10465000003C4A49493000017109050300364949C7
:10466000493600064949291E000036360000000080
:1046700056360000000814224100001414141414CB
:104680000000412214080002015109060032495974
:10469000513E007C1211127C007F49494936003E90
:1046A00041414122007F4141221C007F494949414B
:1046B000007F09090901003E4149497A007F080845
:1046C000087F0000417F4100002040413F01007F02
:1046D00008142241007F40404040007F020C027FCE
:1046E000007F0408107F003E4141413E007F0909E0
:1046F0000906003E4151215E007F09192946004606
:10470000494949310001017F0101003F4040403FDC
:10471000001F2040201F003F4038403F0063140826
:104720001463000708700807006151494543000001
:104730007F41410000552A552A55000041417F0024
:104740000004020102040040404040400000010219
:104750000400002054545478007F48444438003802
:104760004444442000384444487F0038545454188A
:1047700000087E0901020018A4A4A47C007F08049C
:1047800004780000447D4000004080847D00007F6C
:10479000102844000000417F4000007C0418047889
:1047A000007C0804047800384444443800FC242485
:1047B00024180018242418FC007C0804040800486D
:1047C0005454542000043F444020003C4040207C8E
:1047D000001C2040201C003C4030403C004428107D
:1047E0002844001CA0A0A07C004464544C44141431
:1047F0001414141400000000000000000000000069
:1048000000000000000000F800000000000000337D
:104810003000000000100C06100C06000000000024
:104820000000000040C07840C0784000043F04040D
:104830003F040400007088FC08300000001820FFCE
:10484000211E0000F008F000E018000000211C0309
:104850001E211E0000F00888700000001E21232485
:104860001927211010160E000000000000000000A3
:1048700000000000000000E0180402000000000733
:104880001820400000020418E0000000004020183A
:1048900007000000404080F0804040000202010F0D
:1048A00001020200000000F0000000000101011FF1
:1048B00001010100000000000000000080B0700055
:1048C00000000000000000000000000000010101E5
:1048D0000101010100000000000000000030300074
:1048E000000000000000000080601804006018064E
:1048F0000100000000E010080810E000000F102088
:1049000020100F00001010F8000000000020203FD1
:10491000202000000070080808887000003028245B
:1049200022213000003008888848300000182020FC
:1049300020110E000000C02010F800000007042421
:10494000243F240000F80888880808000019212066
:1049500020110E0000E0108888180000000F1120C0
:1049600020110E0000380808C83808000000003F79
:10497000000000000070880808887000001C2221D8
:1049800021221C0000E010080810E0000000312285
:1049900022110F00000000C0C00000000000003025
:1049A0003000000000000080000000000000806077
:1049B00000000000000080402010080000010204F8
:1049C00008102000404040404040400004040404DF
:1049D000040404000008102040800000002010089B
:1049E00004020100007048080808F00000000030D0
:1049F00036010000C030C828E810E000071827245E
:104A000023140B000000C038E0000000203C23020B
:104A10000227382008F8888888700000203F20206E
:104A200020110E00C03008080808380007182020A0
:104A30002010080008F808080810E000203F202097
:104A400020100F0008F88888E8081000203F202078
:104A50002320180008F88888E8081000203F20006C
:104A600003000000C03008080838000007182020A4
:104A7000221E020008F808000008F808203F210163
:104A800001213F20000808F8080800000020203F0E
:104A90002020000000000808F8080800C08080807E
:104AA0007F00000008F888C028180800203F200177
:104AB0002638200008F8080000000000203F2020D1
:104AC0002020300008F8F800F8F80800203F003FE8
:104AD000003F200008F830C00008F808203F200000
:104AE00007183F00E01008080810E0000F10202011
:104AF00020100F0008F808080808F000203F2101E6
:104B000001010000E01008080810E0000F1824243C
:104B100038504F0008F8888888887000203F2000AF
:104B2000030C302000708808080838000038202165
:104B300021221C00180808F8080818000000203F6F
:104B40002000000008F808000008F808001F2020D6
:104B500020201F000878880000C8380800000738A7
:104B60000E010000F80800F80008F800033C0700F8
:104B7000073C0300081868808068180820302C0360
:104B8000032C30200838C800C83808000000203F37
:104B90002000000010080808C83808002038262126
:104BA00020201800000000FE020202000000007F2A
:104BB00040404000000C30C0000000000000000138
:104BC0000638C00000020202FE0000000040404023
:104BD0007F00000000000402020204000000000048
:104BE00000000000000000000000000080808080C5
:104BF00080808080000202040000000000000000AD
:104C00000000000000008080808000000019242245
:104C100022223F2008F8008080000000003F112081
:104C200020110E000000008080800000000E112086
:104C300020201100000000808088F800000E112064
:104C400020103F200000808080800000001F222272
:104C500022221300008080F0888888180020203FDE
:104C6000202000000000808080808000006B9494F1
:104C70009493600008F8008080800000203F2100AD
:104C800000203F2000809898000000000020203F76
:104C900020200000000000809898000000C0808064
:104CA000807F000008F8000080808000203F240200
:104CB0002D302000000808F8000000000020203FF0
:104CC000202000008080808080808000203F2000A5
:104CD0003F20003F8080008080800000203F210036
:104CE00000203F200000808080800000001F2020E6
:104CF00020201F00808000808000000080FFA12015
:104D000020110E000000008080808000000E112025
:104D100020A0FF80808080008080800020203F21B4
:104D20002000010000008080808080000033242467
:104D300024241900008080E0808000000000001F13
:104D4000202000008080000000808000001F2020C4
:104D500020103F20808080000080808000010E3085
:104D60000806010080800080008080800F300C03E6
:104D70000C300F0000808000808080000020312EE9
:104D80000E312000808080000080808080818E70C5
:104D90001806010000808080808080000021302C77
:104DA0002221300000000000807C02020000000090
:104DB000003F404000000000FF0000000000000035
:104DC000FF0000000002027C800000000040403F25
:104DD00000000000000601010202040400000000BF
:104DE00000000000144E000800000010C002000087
:104DF000D4080008144E000800000020002C010018
:104E0000CC190008E84E0008C00200103022000053
:104E1000CC1900080119847A030A00171201020351
:104E2000040607080940484848FF484842A29E82B5
:104E3000A2C2BE180A80601F207F4444404F28044D
:104E400011484F401D0414D454012ADF050C12D41C
:104E50001404401A02013A03050113161060020CF3
:104E6000C0080A10F8888888FF8888A818601C0481
:104E70007C034400093380432C1028468180031CA6
:104E800036361980228C2BFE92010213FE180A047A
:104E9000047E01407E42427E020C14427E40404924
:104EA0003F091740080B104448507F40407F50484E
:104EB0004440212809FC242424FC2526240802112E
:104EC0000400103340308F80844C55252525554CE7
:104ED000808080033036362D010203040405680605
:084EE0000708091AAA0181006C
:040000050800018965
:00000001FF
