:020000040800F2
:10000000880700202902000895050008D904000887
:1000100091050008B1030008430D0008000000002E
:10002000000000000000000000000000A50800081B
:100030000104000800000000250600084102000835
:10004000430200084302000843020008430200087C
:10005000430200084302000843020008430200086C
:10006000430200084302000843020008430200085C
:10007000430200084302000843020008430200084C
:10008000430200084302000843020008430200083C
:10009000430200084302000843020008430200082C
:1000A000430200084302000843020008430200081C
:1000B000430200084302000843020008430200080C
:1000C00043020008430200084302000843020008FC
:1000D00043020008BD0A0008290B0008430200087B
:1000E00043020008430200084302000843020008DC
:1000F00043020008430200084302000843020008CC
:1001000043020008430200084302000843020008BB
:1001100043020008430200084302000843020008AB
:10012000430200084302000843020008430200089B
:10013000430200084302000843020008430200088B
:10014000430200084302000843020008430200087B
:10015000430200084302000843020008430200086B
:10016000430200084302000843020008430200085B
:10017000430200084302000843020008430200084B
:10018000430200084302000800F002F800F03CF8C7
:100190000AA090E8000C82448344AAF10107DA45E2
:1001A00001D100F031F8AFF2090EBAE80F0013F0F8
:1001B000010F18BFFB1A43F001031847840C00001D
:1001C000A40C0000103A24BF78C878C1FAD85207AE
:1001D00024BF30C830C144BF04680C6070470000C1
:1001E0000023002400250026103A28BF78C1FBD840
:1001F000520728BF30C148BF0B6070471FB500F0E1
:1002000019FE1FBD10B510BD00F06EF81146FFF7C6
:10021000F5FF00F0DBFD00F0A0F803B4FFF7F2FFFC
:1002200003BC00F090FD00000948804709480047E2
:10023000FEE7FEE7FEE7FEE7FEE7FEE7FEE7FEE796
:10024000FEE7FEE704480549054A064B70470000F3
:10025000950900088901000888010020880700200E
:100260008803002088030020704700000FB4044971
:1002700010B503AA029800F009F810BC5DF814FB51
:10028000100000207047704770470000074B70B5A2
:100290000D467B4400F011F80446284600F020F893
:1002A00010B14FF0FF3070BD204670BD130B000041
:1002B00001694A1C02610878704700B58FB0CDE92A
:1002C00001310021059105497944CDE9031011461A
:1002D000684600F02EF80FB000BD0000E5FFFFFFFC
:1002E000007B00F080007047754600F03DF8AE4698
:1002F00005006946534620F00700854618B020B532
:10030000FFF7A0FFBDE820404FF000064FF00007C8
:100310004FF000084FF0000B21F00701AC46ACE8AD
:10032000C009ACE8C009ACE8C009ACE8C0098D461A
:1003300070472DE9F04106460024D6E90170F568C2
:100340008046304603E04146B847641C3046A84723
:100350000028F8D12046BDE8F0810446AFF30080C4
:100360002046FFF75AFF0000004870472801002090
:100370001CB50121202000F057F94FF48070009047
:1003800001208DF8040003208DF8050000208DF871
:1003900007008DF806006946034800F032F8002097
:1003A000024908601CBD000000140240A0824242C5
:1003B00000BFFEE70146A82908D10D4A10700D487C
:1003C0000D4A106005200D4A10700FE015290AD162
:1003D0001520074A107045F20820074A10600120D6
:1003E000064A107002E04FF0FF3070470020FCE733
:1003F00000000020409002000400002008000020BF
:100400007047F0B50A4600210023002400BF3DE0FC
:10041000012505FA01F3156805EA03049C4234D16D
:1004200005684F000326BE40B543056015794E00B0
:10043000B5400668354305601579012D02D0157960
:10044000022D16D185684F000326BE40B543856056
:1004500055794E00B540866835438560456801266C
:100460008E40B5434560456896798E40B6B23543B7
:100470004560C5684F000326BE40B543C560D579C9
:100480004E00B540C6683543C560491C1029BFD32E
:10049000F0BDF0B5002300244D07ED0E02FA05F380
:1004A000CE1000F1200555F826504E07F70E0F2606
:1004B000BE40B543CF1000F1200646F82750CE10BD
:1004C00000F1200555F8265045EA0304CE1000F14E
:1004D000200545F82640F0BD00BFFEE71CB5012110
:1004E000084600F0A1F80121102000F09DF801203D
:1004F000009000208DF804008DF80700694605483B
:10050000FFF77FFF1C20009069460348FFF779FF43
:100510001CBD000000000240001002401CB501217B
:10052000102000F081F80121202000F07DF84FF428
:10053000C060009001208DF8040003208DF80500B4
:1005400000208DF807008DF8060069460A48FFF77D
:1005500058FF4FF4C040009069460848FFF751FF2C
:100560000120074908600749C1F8A8020649086048
:100570000649C1F8B8021CBD001402400010024038
:10058000A482424200804242B402424200004242FF
:1005900000BFFEE77047000070B5002100230F2266
:1005A000C4781CB3174C246804F4E064C4F5E06418
:1005B000C4F30721C1F10404E3B20A4144789C402A
:1005C000E1B28478144021430C07210E0E4C0578CB
:1005D0006155047804F01F050124AC4005786D11C5
:1005E000AD0005F1E025C5F8004109E0047804F00C
:1005F0001F050124AC40054D0678761145F82640CC
:1006000070BD00000CED00E000E400E080E100E0DF
:1006100002490143024A1160704700000000FA05D8
:100620000CED00E07047000029B1064A1268024351
:10063000044B1A6004E0034A12688243014B1A60BB
:10064000704700003038024029B1064A1268024360
:10065000044B1A6004E0034A12688243014B1A609B
:10066000704700004038024029B1064A1268024330
:10067000044B1A6004E0034A12688243014B1A607B
:100680007047000044380240F0B5002100220024E9
:10069000022500260223324F3F6807F00C0121B1EA
:1006A000042905D0082937D105E02E4F076036E030
:1006B0002D4F076033E02A4F3F1F3F68C7F3805636
:1006C000274F3F1F3F6807F03F036EB1264FB7FB30
:1006D000F3F7DFF88CC0ACF1040CDCF800C0CCF30D
:1006E000881C07FB0CF40CE01E4FB7FBF3F7DFF898
:1006F00070C0ACF1040CDCF800C0CCF3881C07FB24
:100700000CF4174F3F1F3F68C7F301477F1C7D0064
:10071000B4FBF5F7076002E0124F076000BF00BFAF
:100720000F4F3F6807F0F0010909104F7A5C076826
:10073000D74047600A4F3F6807F4E051890A0B4FE2
:100740007A5C4768D7408760054F3F6807F460418F
:10075000490B064F7A5C4768D740C760F0BD000080
:10076000083802400024F40000127A00180000202B
:1007700010B588B0044601210846FFF755FF012156
:100780004804FFF761FF072202212F48FFF781FE8F
:10079000072203212C48FFF77CFE0C200690022044
:1007A0008DF81C0003208DF81D0000208DF81E0020
:1007B00001208DF81F0006A92348FFF722FE012122
:1007C0004020FFF731FF4FF48070069001208DF834
:1007D0001C0003208DF81D0000208DF81E00012054
:1007E0008DF81F0006A91948FFF70BFE02940020A0
:1007F000ADF80C00ADF80E00ADF81000ADF8140027
:100800000C20ADF8120002A9114800F027FA0121CE
:100810000F4800F0BAF9012240F225510C4800F0CF
:10082000F7F926208DF8040003208DF805008DF8D7
:10083000060001208DF8070001A8FFF7ADFE00209B
:100840000449086008B010BD0000024000180240D2
:1008500000440040A00243422DE9F04105460E4607
:100860002F4601200D49086000F06EFA00240BE0CD
:10087000395D0B4800F061FA00BF8021084800F0A4
:1008800090F90028F9D0641CB442F1D3012000F0A3
:100890005BFA002001490860BDE8F081A0024342F4
:1008A00000440040704700000CB50020019000900B
:1008B0003448006840F480303249086000BF314855
:1008C000006800F4003000900198401C01900098EE
:1008D00018B90198B0F5A04FF1D12A48006800F48A
:1008E000003010B10120009001E00020009000983D
:1008F000012846D123484030006840F0805021490B
:10090000403108602048006840F440401E490860BB
:100910001C48083000681B49083108600846006818
:1009200040F4004008600846006840F4A0500860A9
:100930001648091F0860081F006840F08070091FF2
:10094000086000BF0F48006800F000700028F9D070
:1009500040F205700E4908600A480830006820F02F
:1009600003000849083108600846006840F00200AA
:10097000086000BF03480830006800F00C00082839
:10098000F8D10CBD00380240007000400854400708
:10099000003C024010B51548006840F4700013494F
:1009A00008601348006840F0010011490860002009
:1009B0000F49083108600E4800680E4908400C498C
:1009C00008600D48091D0860081F006820F4802099
:1009D000091F0860002006490C310860FFF764FF1A
:1009E0004FF0006001498039086010BD88ED00E0DB
:1009F00000380240FFFFF6FE1030002410B588B02A
:100A0000044601210846FFF70FFE01211020FFF7E1
:100A10002BFE072209212748FFF73BFD07220A2169
:100A20002448FFF736FD4FF40070069002208DF841
:100A30001C008DF81D0000208DF81E0001208DF88F
:100A40001F0006A91B48FFF7DCFC4FF480600690EE
:100A500000208DF81F0006A91648FFF7D2FC02946B
:100A60000020ADF80C00ADF80E00ADF81000ADF8A8
:100A700014000C20ADF8120002A90F4800F0EEF8A7
:100A800025208DF8040000208DF805008DF8060063
:100A900001208DF8070001A8FFF77EFD012240F23A
:100AA0002551054800F0B4F80121034800F06DF825
:100AB00008B010BD000002400010014010B5002435
:100AC00040F22551144800F079F8012822D112484B
:100AD00000F02EF9C4B21148114909784454232C6E
:100AE00003D101200F49087004E00D480078401C34
:100AF0000B4908702146084800F01FF900BF80210B
:100B0000054800F04EF80028F9D040F2255102487F
:100B100000F02CF810BD000000100140280000205B
:100B20000C0000200D00002010B5002440F22551DB
:100B30000C4800F043F8012812D10A4800F0F8F8F8
:100B4000C4B2612C02D1002007490860622C02D196
:100B500001200549086040F22551024800F006F8DE
:100B600010BD000000440040A482424210B50022A3
:100B7000002340F66A14A14200D100BF0A120124EA
:100B80009440A3B2DC43048010BD21B1828942F4B9
:100B90000052828104E082894DF6FF731A408281FF
:100BA000704702460020B1F5007F00D100BF1388D6
:100BB0000B400BB1012000E00020704770B50246E9
:100BC000002400230025002040F66A16B14200D11F
:100BD00000BFC1F3421501F01F03012606FA03F31B
:100BE000012D02D19689334006E0022D02D1168AEA
:100BF000334001E0968A33400C12012606FA04F4D1
:100C00001688344013B10CB1012000E0002070BD03
:100C1000F0B50346002400260025002040F66A17A0
:100C2000B94200D100BF1846C1F3421401F01F06BB
:100C3000012707FA06F5012C01D10C3004E0022C43
:100C400001D1103000E014301AB107682F4307605B
:100C500002E00768AF430760F0BD00002DE9FF47E1
:100C600005460E460024A14600BFA046B08900B14B
:100C700000BF2C8A24F44054F08804432C82AC89B1
:100C800041F20C608443B08831890843718908437C
:100C90000443AC81AC8A24F44074B0890443AC8230
:100CA0006846FFF7F1FC2048854202D01F48854284
:100CB00002D1DDF80C9001E0DDF80890A88900F47D
:100CC000004040B109EBC90000EB09103168490050
:100CD000B0FBF1F707E009EBC90000EB0910316840
:100CE0008900B0FBF1F76420B7FBF0F004012009A4
:100CF000642101FB1078A88900F4004040B1322043
:100D000000EBC800B0FBF1F000F00700044308E07E
:100D1000322000EB08106421B0FBF1F000F00F006E
:100D200004432C81BDE8FF870010014000140140FE
:100D300001468888C0F308007047C1F3080282802A
:100D4000704700BFFEE7704710B501460B46002212
:100D500020E000204FF0E024206111480068401E90
:100D600060610020A0610F48007820610CE04FF026
:100D7000E020026902F4803000B106E002F00100D8
:100D800010B94FF0FF3010BDF1E700BF00204FF069
:100D9000E02420611800A3F10103DAD100BFF2E7DB
:100DA000040000200800002070B504460D46A1B2E2
:100DB0000548FFF7C2FF00BF80210348FFF7F1FE9F
:100DC0000028F9D0204670BD0010014008B5412030
:100DD00000904FF4A060FFF71BFCA820FFF7EAFA91
:100DE0004FF4E130FFF70AFEFFF798FBFFF776FBC1
:100DF000FFF7BEFA4FF41650FFF7BAFC06A0FFF754
:100E000035FA07E001216846FFF726FD4FF47A70B6
:100E1000FFF79AFFF6E700005468697320697320B2
:100E20005253343835C4A3BFE920746573740D0A76
:100E3000000000004FF04070E1EE100A7047000023
:100E4000600E00080000002028000000C401000817
:100E5000880E00082800002060070000E00100085C
:100E60000000000000000000000000000000000082
:100E70000000000000000000000000000102030468
:080E8000010203040607080942
:040000050800018965
:00000001FF
