:020000040800F2
:10000000880700204102000879160008BD15000885
:100010007516000845130008271E000800000000A0
:100020000000000000000000000000008919000826
:10003000B513000800000000091700085902000865
:100040005B0200085B0200085B0200085B0200081C
:100050005B0200085B0200085B0200085B0200080C
:100060005B0200085B0200085B0200085B020008FC
:100070005B0200085B0200085B0200085B020008EC
:100080005B0200085B0200085B0200085B020008DC
:100090005B0200085B0200085B0200085B020008CC
:1000A0005B0200085B0200085B0200085B020008BC
:1000B0005B0200085B0200085B0200085B020008AC
:1000C0005B0200085B0200085B0200085B0200089C
:1000D0005B020008A11B00080D1C00085B02000861
:1000E0005B0200085B0200085B0200085B0200087C
:1000F0005B0200085B0200085B0200085B0200086C
:100100005B0200085B0200085B0200085B0200085B
:100110005B0200085B0200085B0200085B0200084B
:100120005B0200085B0200085B0200085B0200083B
:100130005B0200085B0200085B0200085B0200082B
:100140005B0200085B0200085B0200085B0200081B
:100150005B0200085B0200085B0200085B0200080B
:100160005B0200085B0200085B0200085B020008FB
:100170005B0200085B0200085B0200085B020008EB
:100180005B0200085B02000800F002F800F049F88A
:100190000AA090E8000C82448344AAF10107DA45E2
:1001A00001D100F03EF8AFF2090EBAE80F0013F0EB
:1001B000010F18BFFB1A43F0010318472C2500005C
:1001C0004C250000103A24BF78C878C1FAD85207ED
:1001D00024BF30C830C144BF04680C6070470000C1
:1001E0000023002400250026103A28BF78C1FBD840
:1001F000520728BF30C148BF0B607047662902F024
:100200001D82002070471FB502F013FA00F056FB64
:1002100004000020002101F05BFFE0601FBD10B56D
:1002200010BD00F04BFC1146FFF7EDFF01F090FE12
:1002300000F069FC03B4FFF7F2FF03BC01F014FE09
:100240000948804709480047FEE7FEE7FEE7FEE76A
:10025000FEE7FEE7FEE7FEE7FEE7FEE704480549A6
:10026000054A064B70470000791A0008890100080A
:1002700088010020880700208803002088030020D0
:10028000704700000FB4044910B503AA029800F0AB
:1002900003FB10BC5DF814FB100000200FB41CB56C
:1002A000074B06AA7B4469460090059800F0DBFAEC
:1002B0000020694600F0EAFA1CBC5DF814FB00005F
:1002C000E50500002DE9F05F894604464FF0000A7D
:1002D000DFF824B1FB44C0F820A02046E16888473D
:1002E00000287DD0252806D0D4E901219047206A36
:1002F000401C2062F1E700255F462046E168884700
:100300002028064607DB312E05D2B81910F8200C3C
:1003100008B10543F1E7A80701D525F00405C4F8A5
:100320001CA00027C4F818A02A2E09D0304601F0DE
:1003300094FD38B304EB8708303EC8F8186019E024
:1003400059F8041B204604EB87029161E168884755
:10035000012F064618D1E069002820DA25F0200593
:100360001DE0D8F8180000EB800006EB40003038A4
:10037000C8F818002046E1688847064601F06DFD80
:100380000028EED1012F0AD02E2E08D12046E16898
:1003900088477F1C0646022F45F02005C4DBA06974
:1003A000002803DA404245F00105A061E80701D0CA
:1003B00025F01005A6B1A6F14100192802D8203673
:1003C00045F400654A463146204625604D46FFF714
:1003D00015FF60B1012807D0ED1D25F0070000E0F2
:1003E00007E000F1080978E705F1040975E73046F0
:1003F0007AE7206ABDE8F09F6823000010B5431C2F
:1004000002E010F8011B71B18107FAD14FF00132FF
:1004100002C88C1A8C4314EAC211F9D0C01A0A0619
:1004200003D0C01E10BDC01A10BD0A0401D0801E2A
:1004300010BD0902FCD0401E10BD704770477047C8
:1004400070472DE9FF4F0C461E464FF0FF378BB02B
:10045000D2E90001DDF860800A908A46C1F30A55AE
:1004600005B93D46002108464FF00000BAF1000FE3
:1004700000F4400005DA00EB80004FF4400101EA8F
:1004800050004FEA9059B9F1010F00DDB9460A98C2
:1004900050EA4A000ED044F61050A5F2FF3545430D
:1004A0002F14B8F1000F1ED07542291E1EDDC9F1B0
:1004B00000021CE0B8F1010F4FF0000001D0302124
:1004C00003E0F24305E02154401CB042FBDB304620
:1004D0000022002121540B99C1F80880C1E90020B5
:1004E0000FB0BDE8F08FBD1B6D1CDEE74A4600DA99
:1004F000694206A800F06CFA06AB93E8070003AB6C
:1005000083E8070050460A9900F044FB8DE8070095
:10051000A0F500501F3800900398002D09DD42F22D
:100520001F014A46084403A90390684600F0A3FD52
:1005300008E0A0F500504A461F3803A9039068461A
:1005400000F0ADFD8DE807000004000C03D04FF073
:10055000FF30410800E01046B8F1000F03D0002240
:10056000009215461EE0751E05D400F0ABF930323E
:1005700062556D1EF9D5B3460122084302D0002210
:100580007F1C04E02078302801D100227F1E002A41
:10059000099786D01DE0112D07DA00F093F930326B
:1005A00062556D1C50EA0102F5D1084302D0009853
:1005B000C8B10EE00021681E05E0235C625C635454
:1005C0002254401E491C8142F7DBAB46A81B401E4B
:1005D0000990002004F80B000B98099AC0F80880D5
:1005E000C0E9002B7CE711264FF0000859E72DE900
:1005F000F04F88460446D21D22F0070191B0D1E9A0
:100600000001CDE90A0101F010FC02460B98C00F71
:1006100001D02D2007E02068810701D52B2002E0C2
:10062000202101EAC000032A099001D0072A05DB36
:1006300003464146204600F08BF90BE12078800606
:1006400001D5E06900E00620B8F1650F814606D0CB
:10065000B8F1660F18D0B8F1670F70D131E0002003
:10066000B9F1110F009001DB112301E009F1010341
:100670000AAA01A90CA8FFF7E4FEDDE90C70002628
:1006800009F10105834647E001204B4600904FF0F9
:1006900000470AAA01A90CA8FFF7D3FEDDE90DB0B7
:1006A0000C995D46002610B909F101000D18B9EB4F
:1006B000050003D4C0F1FF3609F10105A5EB0900DF
:1006C0002BE0B9F1010F01DA4FF001090020B9F177
:1006D000110F0090484601DD112300E003460AAAED
:1006E00001A90CA8FFF7ADFEDDE90C704D46002610
:1006F0008346207800070AD4AB4500DA5D4601A89E
:10070000012D04DD411911F8011C302907D04F4596
:1007100002DA17F1040F04DA012082460FE06D1EA1
:10072000EEE7002F02DCED1B3E4403E0781CA842FC
:1007300000DD7D1CB81B00F1010A4FF00047207856
:10074000000703D4AA4501DB4FF0FF3A0021B7F1BF
:10075000004F0DF143088DF8431024D002202B23C5
:10076000002F01DA7F422D230A21021EA0F1010091
:1007700000DC5FB197FBF1FC97FBF1F201FB1C7C05
:1007800017460CF1300C08F801CDEEE7A8F1010096
:1007900003702188090501D5452100E06521A0F1FC
:1007A000010800F8011C09980FA9A1EB0807FF1D1B
:1007B00000B10120411901EBEA70A1693844081A1F
:1007C000401EA0612078C00602D42046AFF300800E
:1007D000099828B1D4E901219047206A401C206281
:1007E0002078C00622D52046AFF300801EE0002E00
:1007F00004DBB34502DD01A8805D00E03020D4E9D0
:1008000001219047206A401C2062761CAAF1010059
:100810005FEA000A0AD100F051F8C0680168405C44
:10082000D4E901219047206A401C2062281EA5F1CE
:100830000105DCDC07E0D4E9012118F8010B904741
:10084000206A401C2062381EA7F10107F3DC204615
:10085000AFF30080032011B043E6000001694A1C99
:1008600002610878704700B58FB0CDE901310021F1
:10087000059105497944CDE9031011466846FFF713
:1008800021FD0FB000BD0000E5FFFFFF0A6802F880
:10089000010B0A6070470000074B70B50D467B44A2
:1008A000FFF7E1FF0446284600F000F910B14FF0D1
:1008B000FF3070BD204670BD8B16000000487047A9
:1008C0004801002030B5B0F10A024FEA900E71F1F4
:1008D00000034EEA817EB0EB0E0061EB91014FEA1E
:1008E000101E4EEA017E10EB0E0041EB11114FEA93
:1008F000102E4EEA016E10EB0E0041EB11214FEA73
:10090000104E4EEA014E10EB0E0041EB1141401823
:1009100041F100014FEAD00040EA41704FEAD101B5
:1009200010EB80054FEA810444EA907444EB010423
:100930006D1944EB0404521BA3414FF0000348BF60
:100940000A3200D530BD401C41F1000130BD00002D
:100950002DE9F0411F46044603260168072A01F4E9
:10096000006004DB08B116A505E016A503E008B198
:1009700015A500E015A521F010002060A069C01E9B
:10098000A0610FB1401EA0612046AFF300804FB1BF
:10099000D4E9012138469047206A401C2062C01CDF
:1009A000206206E0206AFAE7D4E9012115F8010B7C
:1009B0009047761EF8D22046AFF30080BDE8F08164
:1009C0004E414E006E616E00494E4600696E6600F3
:1009D0002DE9F047814616468AB0334878440DC861
:1009E0008DE80D0030487844801C03AC0DC884E8C5
:1009F0000D0041F69B300844372190FBF1F290FB4B
:100A0000F1F5A5F1800501FB12041B3C02D56442FF
:100A1000012000E00020DFF890A080460027FA4483
:100A2000AAF1BE0A0DE0E00709D03246684607EB9E
:100A300047010AEB810100F032FB8DE807006410EA
:100A40007F1C002CEFD1184F7F44AC3F18E0E80723
:100A500014D007EB04100DF1180A90E80E008AE894
:100A60000E00C068F04201D198190890324606A9DC
:100A700003A800F014FB03AB83E807006D10641CAF
:100A8000002DE4D132466946B8F1000F03A802D028
:100A900000F0F1FA01E000F002FBC9E90001C9F839
:100AA00008200AB0BDE8F087F01C0000007B00F0D1
:100AB0008000704700487047280100207546FFF706
:100AC000F9FFAE4605006946534620F0070085460B
:100AD00018B020B5FFF7C2FBBDE820404FF000067C
:100AE0004FF000074FF000084FF0000B21F0070116
:100AF000AC46ACE8C009ACE8C009ACE8C009ACE859
:100B0000C0098D4670470446AFF300802046FFF7CA
:100B100091FB00004FF0013C50F8042B51F8043BCE
:100B20009A4221D1A2EB0C03934313EACC1317D1C1
:100B300050F8042B51F8043B9A4215D1A2EB0C0358
:100B4000934313EACC130BD150F8042B51F8043B18
:100B50009A4209D1A2EB0C03934313EACC13DBD0E6
:100B60004FF00000704700BFD01A01BAB1FA81F10E
:100B700001F0180122FA01F0CB40C1F12001DBB2F3
:100B8000C0B2C01A2CFA01F3D11A914311EAC31171
:100B9000E6D170475FEA400C08BF91F0000F4FEAC2
:100BA0008C234FEAC12243EA51514FEA1C5018BF2F
:100BB00000F5F0404FEA300018BF41F000415FEA15
:100BC0006C5C00F02980BCF1FF3F08BF40F0804022
:100BD0007047130C06BF12044FF0100C4FF0000CBE
:100BE000130E04BF12020CF1080C130F04BF120104
:100BF0000CF1040C930F04BF92000CF1020CD30F04
:100C000004BF52000CF1010C11464FF00002A0F19C
:100C10001F00A0EB0C00704711F0004F08BF704799
:100C200031F000413FF4D5AF0B0C06BF09044FF083
:100C3000100C4FF0000C0B0E04BF09020CF1080C55
:100C40000B0F04BF09010CF1040C8B0F04BF8900CA
:100C50000CF1020CCB0F04BF49000CF1010CCCF1DC
:100C60002003A0EB0C0022FA03F302FA0CF241EA93
:100C7000030100F10100704720F07F4C80EA03007F
:100C800023F07F47ACEB070303F57C5300F00040F3
:100C900003F1FF032DE980494FEA154B09B44FEAF0
:100CA000144325EA0B4E24EA03480FF2042606EB10
:100CB000132749083E785FEA320203FB0667C7F54F
:100CC000000707FB06F64FEA54374FEAD64606F10F
:100CD000020607FB066CCCF1005C4FEA1C472CEACD
:100CE000074C07FB06F40CFB06F504EB15464FEA30
:100CF000961634BF00204FF000404FEAD13706FB74
:100D000007FC4FEA1C4C0CFB0BF7D21B03FB0CF748
:100D100061EB07010CFB0EF7B0EB074072EB1742DB
:100D20000CFB08F734BFA2EB0742B2EB074261EBC2
:100D300017414FEA0C444FEA910706FB07FC4FEAC4
:100D40001C4C0CFB0BF7B0EBC74072EB573203FBAC
:100D50000CF734BFA2EBC742B2EBC74261EB57318D
:100D60000CFB0EF7B0EBC70072EB57720CFB08F7E9
:100D700034BFA2EBC702B2EBC70261EB5771039F0E
:100D80004FEA816141EA921104EBCC044FEAD1377A
:100D90004FEA826206FB07FC42EA90124FEA80604B
:100DA0004FEA1C4C0CFB0BF7D21B03FB0CF761EB5F
:100DB00007010CFB0EF7B0EB074072EB17420CFB80
:100DC00008F734BFA2EB0742B2EB074261EB1741D1
:100DD0004FEA8C554FEA910704EB9C2406FB07FC75
:100DE0004FEA1C4C0CFB0BF7B0EBC74072EB5732D1
:100DF00003FB0CF734BFA2EBC742B2EBC74261EB77
:100E000057310CFB0EF7B0EBC70072EB57720CFBBF
:100E100008F734BFA2EBC702B2EBC70261EB577110
:100E200015EB4C254FEA816141EA92114FEA82624B
:100E30004FEAD13742EA901206FB07FC44F1000466
:100E40004FEA80604FEA1C4C0CFB0BF7D21B03FBF4
:100E50000CF761EB07010CFB0EF7B0EB074072EBF0
:100E600017420CFB08F734BFA2EB0742B2EB074274
:100E700061EB174115EB1C154FEA813141EA9241B4
:100E80004FEA823242EA90424FEA80304FEA0C76D3
:100E900044F1000448EA03434EEA0B484FF0000EC9
:100EA000B2EB080C71EB030724BF624639464EEBE8
:100EB0000E0E4FF0000B0018524149414BEB0B0B4B
:100EC000B2EB080C71EB03077BF1000B24BF624609
:100ED00039464EEB0E0E4FF0000B001852414941BF
:100EE0004BEB0B0BB2EB080C71EB03077BF1000B28
:100EF00024BF624639464EEB0E0E51EA020718BF78
:100F000046F0010616EB0E7655F1000254F1000191
:100F100003D5BDE88901BDE80088BDE88901BDE8C9
:100F20000048B619524141EB0101A3F1010370479A
:100F300080807F7E7D7C7B7A797877767675747316
:100F4000727171706F6E6E6D6C6C6B6A6A696868D5
:100F5000676666656464636362616160605F5F5E6B
:100F60005E5D5D5C5C5B5B5A5A59595858575756E1
:100F70005655555554545353525252515150505046
:100F80004F4F4F4E4E4D4D4D4C4C4C4B4B4B4A4A98
:100F90004A494949484848474747474646464545DC
:100FA0004544444444434343434242424241414115
:100FB000002B26D4770021D01CB54FEA370703B4A5
:100FC0004FF010004FF010014FF000000FBCBDE8D3
:100FD00010400BF1010BBBF1010F08BF5FEA1707CF
:100FE00022BF12F1010211F101014FF0004143F162
:100FF000000300F0004043EA00007047F9D35708AF
:10100000DAE746EA064613F1400F4FEA16461FDDBF
:1010100013F1200FDFBF16430A46002120335B4245
:10102000C8D0C3F1200746EA064602FA07F74FEA9E
:10103000164646EA0706C3F1200722FA03F201FA30
:1010400007F721FA03F14FF0000342EA0702B1E784
:1010500046EA020646EA06464FEA164646EA010610
:10106000BCBF46EA0646360C4FF000034FF00002C4
:101070004FF000019EE72DE9C048934630B491E857
:10108000380007C831EA400C48BF34EA430C03D5A6
:10109000FFF7F2FDFFF78CFFF0BCBDE800882DE9FB
:1010A000C048934630B491E8380007C810F0804F2C
:1010B00008BF13F0804F03D100F005F8FFF778FF69
:1010C000F0BCBDE8008820F07F4780EA030023F0F1
:1010D0007F4C07EB0C03A3F57C5300F00040A3F119
:1010E000FE0392F0000F00F0B38095F0000F00F0C7
:1010F00077802DE901494FEA11404FEA144621EA71
:10110000004800FB06FC24EA064708FB06F607FB3E
:1011100008F800FB07F718EB06484CEB164C4FEAB3
:10112000124B18EB07484FEA15464CEB174022EAE2
:101130000B4E0BFB06FC25EA06470EFB06F607FBEB
:101140000EFE0BFB07F71EEB064E4CEB164C4FF05A
:1011500000061EEB074E4CEB174B18EB0B0840F14B
:10116000000018EB0E0B58EB000840F100008F1A3E
:101170004FF000013CBFC943661B14BFB5EB040C24
:1011800000213CBFC943F61B4FEA17444EEA8E0EBE
:1011900027EA04454FEA1C4704FB07622CEA074C88
:1011A00005FB07F70CFB05F604FB0CFC16EB0746EA
:1011B00042EB174216EB0C4642EB1C421BEB0606B9
:1011C00058EB0202414146EA9E0601D5BDE801897D
:1011D000B619524141EB0101A3F10103BDE80189B8
:1011E0004FEA14454FEA114724EA054621EA074C25
:1011F00005FB07F406FB07F70CFB06F105FB0CFCEF
:1012000011EB074144EB17444FEA124711EB0C4135
:1012100044EB1C4422EA074C05FB07F206FB07F7E8
:101220000CFB06F605FB0CFC16EB074642EB1742DF
:1012300016EB0C4642EB1C456A1854F1000148BFFE
:101240007047B619524141EB0101A3F10103704708
:1012500095F0000F37D04FEA11424FEA144721EAC8
:10126000024624EA074C02FB07F106FB07F70CFBDA
:1012700006F402FB0CFC14EB074441EB17414FEA68
:10128000154714EB0C4441EB1C4125EA074C02FBCB
:1012900007F506FB07F70CFB06F602FB0CFC16EB4A
:1012A000074645EB174516EB0C4645EB1C42121959
:1012B00051F1000148BF7047B619524141EB01019D
:1012C000A3F1010370474FEA14454FEA114724EA9E
:1012D000054621EA074C05FB07F106FB07F70CFB67
:1012E00006F24FF0000605FB0CFC12EB074241EB47
:1012F000174112EB0C4251EB1C4148BF704792184A
:1013000041EB0101A3F101037047000070B50646EF
:101310000C46002500BF0EE0012008490860304659
:1013200000F012F800200649C1F8A002304600F093
:101330000BF8681C85B2A542EEDB70BDA08242426C
:101340000080424200BFFEE7002106E042F6E06175
:1013500000BF0A00A1F10101FBD10200A0F10103CD
:1013600098B2F3D1704700000146A82908D10D4A70
:1013700010700D480D4A106005200D4A10700FE0E6
:1013800015290AD11520074A107045F20820074A8E
:1013900010600120064A107002E04FF0FF307047E5
:1013A0000020FCE700000020409002000400002024
:1013B000080000207047F0B50A46002100230024F1
:1013C00000BF3DE0012505FA01F3156805EA0304B5
:1013D0009C4234D105684F000326BE40B5430560EA
:1013E00015794E00B5400668354305601579012D25
:1013F00002D01579022D16D185684F000326BE4014
:10140000B543856055794E00B540866835438560A3
:10141000456801268E40B5434560456896798E4003
:10142000B6B235434560C5684F000326BE40B5439C
:10143000C560D5794E00B540C6683543C560491CC6
:101440001029BFD3F0BDF0B5002300244D07ED0EE9
:1014500002FA05F3CE1000F1200555F826504E078C
:10146000F70E0F26BE40B543CF1000F1200646F818
:101470002750CE1000F1200555F8265045EA030408
:10148000CE1000F1200545F82640F0BD10B52DED39
:10149000068BB0EE408A00249FED260BB0EE409AFA
:1014A000F0EE609A0120254908600C2000F00EFD46
:1014B00000202349C1F8980200BF0CE0641C012001
:1014C00000F004FD4FF6E850844204DD9FED1D0B53
:1014D000BDEC068B10BD1D4800680028EED000242E
:1014E0000AE0641C082000F0F1FC41F6BD70844263
:1014F00002DD9FED170BEBE7144800680128F0D0E0
:1015000000EE104AB8EEC00A20EE080A10EE101ADB
:10151000084601F01DF841EC1A0B9FED0F0B53EC40
:10152000102B00F0F7FD41EC190BB0EE490AF0EE7C
:10153000690ACDE7000000000000000098824042E8
:1015400000804042000000000000F0BF180242424C
:1015500000000000000000C000000000000000408B
:101560001CB50121022000F0D1F80121102000F06B
:10157000CDF84020009001208DF8040003208DF864
:10158000050000208DF807008DF806006946084820
:10159000FFF711FF4020009000208DF804006946FD
:1015A0000448FFF708FF0020034908601CBD000045
:1015B00000040240001002409882404200BFFEE753
:1015C0001CB50121084600F0A1F80121102000F00F
:1015D0009DF80120009000208DF804008DF8070090
:1015E00069460548FFF7E7FE1C200090694603485E
:1015F000FFF7E1FE1CBD00000000024000100240A9
:101600001CB50121102000F081F80121202000F0FC
:101610007DF84FF4C060009001208DF80400032095
:101620008DF8050000208DF807008DF8060069464A
:101630000A48FFF7C0FE4FF4C040009069460848D2
:10164000FFF7B9FE0120074908600749C1F8A80261
:10165000064908600649C1F8B8021CBD00140240E2
:1016600000100240A482424200804242B402424240
:101670000000424200BFFEE77047000070B5002145
:1016800000230F22C4781CB3174C246804F4E064D0
:10169000C4F5E064C4F30721C1F10404E3B20A41D4
:1016A00044789C40E1B28478144021430C07210E19
:1016B0000E4C05786155047804F01F050124AC40F8
:1016C00005786D11AD0005F1E025C5F8004109E090
:1016D000047804F01F050124AC40054D067876110E
:1016E00045F8264070BD00000CED00E000E400E08D
:1016F00080E100E002490143024A116070470000A6
:101700000000FA050CED00E07047000029B1064A20
:1017100012680243044B1A6004E0034A12688243D1
:10172000014B1A60704700003038024029B1064A68
:1017300012680243044B1A6004E0034A12688243B1
:10174000014B1A60704700004038024029B1064A38
:1017500012680243044B1A6004E0034A1268824391
:10176000014B1A607047000044380240F0B5002178
:1017700000220024022500260223324F3F6807F092
:101780000C0121B1042905D0082937D105E02E4FDD
:10179000076036E02D4F076033E02A4F3F1F3F6858
:1017A000C7F38056274F3F1F3F6807F03F036EB1D6
:1017B000264FB7FBF3F7DFF88CC0ACF1040CDCF874
:1017C00000C0CCF3881C07FB0CF40CE01E4FB7FBE9
:1017D000F3F7DFF870C0ACF1040CDCF800C0CCF318
:1017E000881C07FB0CF4174F3F1F3F68C7F30147E6
:1017F0007F1C7D00B4FBF5F7076002E0124F076025
:1018000000BF00BF0F4F3F6807F0F0010909104FFC
:101810007A5C0768D74047600A4F3F6807F4E05199
:10182000890A0B4F7A5C4768D7408760054F3F684D
:1018300007F46041490B064F7A5C4768D740C760A0
:10184000F0BD0000083802400024F40000127A00C5
:101850001800002010B588B0044601210846FFF7A3
:1018600055FF01214804FFF761FF072202212F489D
:10187000FFF7E9FD072203212C48FFF7E4FD0C20C8
:10188000069002208DF81C0003208DF81D0000201A
:101890008DF81E0001208DF81F0006A92348FFF7D0
:1018A0008AFD01214020FFF731FF4FF48070069040
:1018B00001208DF81C0003208DF81D0000208DF8FC
:1018C0001E0001208DF81F0006A91948FFF773FDBF
:1018D00002940020ADF80C00ADF80E00ADF8100039
:1018E000ADF814000C20ADF8120002A9114800F068
:1018F00027FA01210F4800F0BAF9012240F22551E0
:101900000C4800F0F7F926208DF8040003208DF82C
:1019100005008DF8060001208DF8070001A8FFF7EB
:10192000ADFE00200449086008B010BD0000024070
:101930000018024000440040A00243422DE9F0415B
:1019400005460E462F4601200D49086000F08EFA2C
:1019500000240BE0395D0B4800F061FA00BF8021E4
:10196000084800F090F90028F9D0641CB442F1D383
:10197000012000F07BFA002001490860BDE8F081F9
:10198000A002434200440040704700000CB5002014
:10199000019000903448006840F48030324908607B
:1019A00000BF3148006800F4003000900198401CEE
:1019B0000190009818B90198B0F5A04FF1D12A48CC
:1019C000006800F4003010B10120009001E0002018
:1019D00000900098012846D123484030006840F02C
:1019E00080502149403108602048006840F4404060
:1019F0001E4908601C48083000681B49083108600F
:101A00000846006840F4004008600846006840F45A
:101A1000A05008601648091F0860081F006840F0C1
:101A20008070091F086000BF0F48006800F0007058
:101A30000028F9D040F205700E4908600A480830C5
:101A4000006820F003000849083108600846006873
:101A500040F00200086000BF03480830006800F052
:101A60000C000828F8D10CBD00380240007000407E
:101A700008544007003C024010B51548006840F487
:101A80007000134908601348006840F001001149D4
:101A9000086000200F49083108600E4800680E49B0
:101AA00008400C4908600D48091D0860081F0068BF
:101AB00020F48020091F0860002006490C310860CE
:101AC000FFF764FF4FF0006001498039086010BDE6
:101AD00088ED00E000380240FFFFF6FE10300024E1
:101AE00010B588B0044601210846FFF70FFE01211A
:101AF0001020FFF72BFE072209212748FFF7A3FC40
:101B000007220A212448FFF79EFC4FF4007006903C
:101B100002208DF81C008DF81D0000208DF81E009D
:101B200001208DF81F0006A91B48FFF744FC4FF465
:101B30008060069000208DF81F0006A91648FFF768
:101B40003AFC02940020ADF80C00ADF80E00ADF8A0
:101B50001000ADF814000C20ADF8120002A90F48D7
:101B600000F0EEF825208DF8040000208DF8050027
:101B70008DF8060001208DF8070001A8FFF77EFD13
:101B8000012240F22551054800F0B4F80121034834
:101B900000F06DF808B010BD0000024000100140D8
:101BA00010B5002440F22551144800F079F80128BE
:101BB00022D1124800F02EF9C4B211481149097817
:101BC0004454232C03D101200F49087004E00D4830
:101BD0000078401C0B4908702146084800F01FF9A6
:101BE00000BF8021054800F04EF80028F9D040F2EF
:101BF0002551024800F02CF810BD000000100140F3
:101C0000280000200C0000200D00002010B500244A
:101C100040F225510C4800F043F8012812D10A483F
:101C200000F0F8F8C4B2612C02D100200749086026
:101C3000622C02D101200549086040F2255102487A
:101C400000F006F810BD000000440040A4824242AB
:101C500010B50022002340F66A14A14200D100BF53
:101C60000A1201249440A3B2DC43048010BD21B1C8
:101C7000828942F40052828104E082894DF6FF732A
:101C80001A408281704702460020B1F5007F00D1E2
:101C900000BF13880B400BB1012000E0002070470B
:101CA00070B50246002400230025002040F66A1685
:101CB000B14200D100BFC1F3421501F01F0301265C
:101CC00006FA03F3012D02D19689334006E0022D76
:101CD00002D1168A334001E0968A33400C12012665
:101CE00006FA04F41688344013B10CB1012000E068
:101CF000002070BDF0B5034600240026002500201A
:101D000040F66A17B94200D100BF1846C1F3421429
:101D100001F01F06012707FA06F5012C01D10C304E
:101D200004E0022C01D1103000E014301AB1076831
:101D30002F43076002E00768AF430760F0BD000073
:101D40002DE9FF4705460E460024A14600BFA046E8
:101D5000B08900B100BF2C8A24F44054F0880443B9
:101D60002C82AC8941F20C608443B08831890843ED
:101D7000718908430443AC81AC8A24F44074B0896F
:101D80000443AC826846FFF7F1FC2048854202D04C
:101D90001F48854202D1DDF80C9001E0DDF8089083
:101DA000A88900F4004040B109EBC90000EB09101C
:101DB00031684900B0FBF1F707E009EBC90000EB1F
:101DC000091031688900B0FBF1F76420B7FBF0F02F
:101DD00004012009642101FB1078A88900F4004067
:101DE00040B1322000EBC800B0FBF1F000F007007A
:101DF000044308E0322000EB08106421B0FBF1F04E
:101E000000F00F0004432C81BDE8FF870010014063
:101E10000014014001468888C0F308007047C1F3F0
:101E200008028280704700BFFEE703B401984100BA
:101E3000009850EAC12018BF04204A0D18BF40F096
:101E4000010040F2FF72B2EB515F08BF40F00200A8
:101E5000012808BF052002B0704730380A2801D297
:101E600001207047002070477047000010B5014600
:101E70000B46002220E000204FF0E02420611148B2
:101E80000068401E60610020A0610F48007820615A
:101E90000CE04FF0E020026902F4803000B106E06F
:101EA00002F0010010B94FF0FF3010BDF1E700BFA4
:101EB00000204FF0E02420611800A3F10103DAD1E3
:101EC00000BFF2E7040000200800002010B5014622
:101ED0000B46002220E000204FF0E0242061114852
:101EE0000078401E60610020A0610F4800782061EA
:101EF0000CE04FF0E020026902F4803000B106E00F
:101F000002F0010010B94FF0FF3010BDF1E700BF43
:101F100000204FF0E02420611800A3F10103DAD182
:101F200000BFF2E7000000200800002070B5044662
:101F30000D46A1B20548FFF772FF00BF802103489C
:101F4000FFF7A1FE0028F9D0204670BD0010014027
:101F50002DED028B88B09FED3D0BB0EE408AF0EE88
:101F6000608A00BF4FF4A060FFF7C4FBA820FFF712
:101F7000FBF94FF4E130FFF7B3FDFFF741FBFFF74B
:101F80001FFBFFF7EDFA33A0FEF77CF94FF4165074
:101F9000FFF760FC59E0B0EE0C0AFFF777FAB0EEFD
:101FA000408AF0EE608A9FED310B53EC102B51EC20
:101FB000180B00F097FA1CD89FED2E0B53EC102B4A
:101FC00051EC180B00F0FEF913D853EC182B2BA092
:101FD000FEF758F953EC182B2EA16846FEF75EF970
:101FE0006846FEF70BFA044621466846FFF7A6FC52
:101FF00004E053EC182B2AA0FEF744F99FED2E0BBA
:1020000053EC102B51EC180B00F0DCF904D805212F
:102010003220FFF77BF915E09FED290B53EC102BD5
:1020200051EC180B00F05EFA0CD89FED270B53EC27
:10203000102B51EC180B00F0C5F903D80221C82071
:10204000FFF764F96420FFF711FFA4E70000000028
:1020500000000000546869732069732068635F732F
:102060007230342074657374210D0A000000000082
:1020700000003440000000000040AF4068635F7320
:10208000723034203D3D2025302E32666D6D0D0AB4
:1020900000000000252E30666D6D0D0A0000000066
:1020A0006F7574206F662072616E67653A20253007
:1020B0002E32660D0A0000000000000000005940AA
:1020C0000000000000C062400000000000C072403C
:1020D00010B500290AD00878002807D005487844B0
:1020E000FEF718FD002801D0002010BD02487844FA
:1020F00010BD00002A06000022060000491058BF4B
:10210000C1F140415B1058BFC3F140438B42EFF334
:10211000008070472DE9C04130B4DFF8A0C23CEA2E
:10212000111418BF3CEA131400F0EC8081EA030597
:102130001CEA111444EAD57418BF1CEA131500F008
:10214000C780A4EB05044FF0004545EAC12145EAEC
:10215000C32341EA505143EA525304F17F74994238
:1021600004F500344FEAC0204FEAC22208BF904273
:1021700000F09C804FEA13650FF24016765D4FEA3F
:10218000134506FB05F7C7F1807706FB07F74FEA13
:10219000D737A7FB03687642C8F58038A7FB06CE81
:1021A00038BFA8F1010807FB08E64FF0000EA6FBB8
:1021B000028CE6FB03CEDCF1000CCEF1004E38BF02
:1021C000AEF1010EA6FB0C584FF000074FF00005D2
:1021D000E6FB0E87A1FB08C6A0FB07CE16EB0E069A
:1021E00045F10005E1FB076515F1E04E7EBFA4F562
:1021F00080345FEA46066D4116F1800745F100051F
:102200004FEA17274FEA066647EA0567A6F1DE465A
:10221000B6F1805F4FEA15251FD9384624F0010C2E
:1022200005EBC471BCF1FE6F01EB0C1102D8F0BCE0
:10223000BDE8008124425CBF01F5801E9EEAC47F98
:1022400002D4F0BCBDE80081244238D4F0BCA1F136
:10225000C041BDE8004100F03FB94FEAD22242EA56
:1022600043524FEAD323A7FB02864FEAD02040EA2D
:10227000415007FB03661EEA0E0F4FEAD12105FB12
:10228000026658BFA6EB0056B6EB00564FEA520E58
:102290004EEAC37E18EB0E0E56EB530EBDD518EB6F
:1022A00002085E417F1C55F10005B6E74FF480152A
:1022B0004FF000074FF000064FF00008ADE7F0BC0C
:1022C0004FF0000001F1C04101F00041BDE8008184
:1022D00011EA0C1F0CEA131500D00CE013EA0C1FD6
:1022E00000F025804FF00000F0BC81EA030101F00E
:1022F0000041BDE80081F0BCBDE8004181EA030176
:1023000000F0EAB8F0BCBDE8004170B500F096F806
:10231000097EFC3E00F007B881EA03014FF000009F
:1023200001F00041704781EA030100F0D5B8F0BC2C
:10233000BDE800414FF0000021497047FFFDFBF967
:10234000F7F5F4F2F0EEEDEBE9E8E6E4E3E1E0DEE8
:10235000DDDBDAD8D7D5D4D3D1D0CFCDCCCBCAC85A
:10236000C7C6C5C4C2C1C0BFBEBDBCBBBAB9B8B781
:10237000B6B5B4B3B2B1B0AFAEADACABAAA9A8A874
:10238000A7A6A5A4A3A3A2A1A09F9F9E9D9C9C9B42
:102390009A999998979796959594939392919190ED
:1023A0008F8F8E8E8D8C8C8B8B8A8989888887877E
:1023B0008685858484838382828181800000FF07F3
:1023C0000000F87F51EA030C17D41CF5801F58BF9A
:1023D000BCF5801F00F10680994218BF704708BF06
:1023E0009042704707D711F5801F58BF13F5801F23
:1023F00019D499427047894270471CF5801F08D54F
:10240000BCF5801FF7D58B4218BF704708BF8242CA
:1024100070474FF4001C1CEB410F38BF1CEB430FFF
:1024200001D28B42704770B500F008F89224490041
:102430004FF000514FF08053FFF760BE0EF1020ED7
:102440002EF0030E5EF8046B364205D4012A43EBEE
:10245000030515F5001F12D8012841EB010C1CF5EE
:10246000001F0CD80ED14FEAD17C15F5001F0CEBE4
:102470004C0C0CF1020C08BF4CEBD37C04E04FF089
:10248000080C01E04FEAD37C0CEB4C0526FA05F66C
:1024900006F00706B6F1040C06D20EEB860CBDE87A
:1024A00070404CF0010C6047DFE80CF0090B0202B1
:1024B0004FF000414FF00000A1F5002170BD19461A
:1024C0001046012851EB010418BFD4F5001484BF55
:1024D000002001F0004170BD0808A0F500114FEA8E
:1024E0003101704753EA010C17D41CF5801F58BF07
:1024F000BCF5801F00F106808B4218BF704708BFF3
:102500008242704707D713F5801F58BF11F5801F0F
:1025100019D48B4270479B4270471CF5801F08D529
:10252000BCF5801FF7D5994218BF704708BF90428D
:1025300070474FF4001C1CEB430F38BF1CEB410FDE
:1025400001D2994270470FB40CBC03BCFFF76BBFBC
:1025500043004FEAD30C4FEA3C0C43401FBF4007F7
:102560000CF1605113F0FE4F70471CF0006F03D167
:1025700000200CF0004170470CF0004343EA50701B
:1025800010B540EACC0000F00EF800BF0000009249
:102590004FEA0001FFF7A0BF4FF000414FF00000ED
:1025A000A1F5002170470EF1020E2EF0030E5EF829
:1025B000044B244204D44FEA4102B2F17F4F11D8B8
:1025C0004FEA4003B3F17F4F0CD80ED14FEAD07CD5
:1025D000B2F17F4F0CEB4C0C0CF1020C08BF4CEB32
:1025E000D17C04E04FF0080C01E04FEAD17C0CEB09
:1025F0004C0324FA03F404F00704B4F1040C06D2EB
:102600000EEB840CBDE810404CF0010C6047DFE895
:102610000CF0070802024FF00040A0F5800010BD4A
:102620000846420018BFD2F1807288BF00F0004017
:1026300010BD4FF04070E1EE100A7047FDF7D7BFB4
:10264000040000080000000000000002000100007B
:102650001000000002400000000000A00000000088
:1026600005400000000000C8000000000C40000011
:102670000000409C00000000194000000020BCBE8B
:102680000000000034400000BFC91B8E00000004A1
:10269000B5400000504BCFD06607E2CF01000000EC
:1026A0006C4100003E8251AADFEEA7340100000019
:1026B000D9420000DCB5A0E23A301F97FFFFFFFFD0
:1026C000B4450000FD25A0C8E9A3C14FFFFFFFFFEF
:1026D000FF3F00000000008000000000FF3F0000FE
:1026E00000000080000000002427000800000020F7
:1026F00028000000C40100084C2700082800002022
:1027000060070000E00100081C000000430000001A
:10271000F8FFFFFF0C0000000E0000000F0000009B
:102720002E0000000000000000000000000000007B
:102730000000000000000000000000000000000099
:0C2740000102030401020304060708095B
:040000050800018965
:00000001FF
