:020000040800F2
:100000000807002031020008F50800082D08000844
:10001000F108000821050008030F00080000000097
:10002000000000000000000000000000B10A00080D
:100030005507000800000000850900084902000873
:100040004B0200084B0200084B0200084B0200085C
:100050004B0200084B0200084B0200084B0200084C
:100060004B0200084B0200084B0200084B0200083C
:100070004B0200084B0200084B0200084B0200082C
:100080004B0200084B0200084B0200084B0200081C
:100090004B0200084B0200084B0200084B0200080C
:1000A0004B0200084B0200084B0200084B020008FC
:1000B0004B0200084B0200084B0200084B020008EC
:1000C0004B0200084B0200084B0200084B020008DC
:1000D0004B020008C10C00084B0200084B0200084C
:1000E0004B0200084B0200084B0200084B020008BC
:1000F0004B0200084B0200084B0200084B020008AC
:100100004B0200084B0200084B0200084B0200089B
:100110004B0200084B0200084B0200084B0200088B
:100120004B0200084B0200084B0200084B0200087B
:100130004B0200084B0200084B0200084B0200086B
:100140004B0200084B0200084B0200084B0200085B
:100150004B0200084B0200084B0200084B0200084B
:100160004B0200084B0200084B0200084B0200083B
:100170004B0200084B0200084B0200084B0200082B
:100180004B0200084B02000800F002F800F041F8B2
:100190000AA090E8000C82448344AAF10107DA45E2
:1001A00001D100F036F8AFF2090EBAE80F0013F0F3
:1001B000010F18BFFB1A43F001031847100F00008E
:1001C000300F0000103A24BF78C878C1FAD852071F
:1001D00024BF30C830C144BF04680C6070470000C1
:1001E0000023002400250026103A28BF78C1FBD840
:1001F000520728BF30C148BF0B607047642900F028
:100200007980002070471FB500F05AFF1FBD10B560
:1002100010BD00F035F91146FFF7F5FF00F0E8FEDC
:1002200000F053F903B4FFF7F2FF03BC00F06BFEDC
:100230000948804709480047FEE7FEE7FEE7FEE77A
:10024000FEE7FEE7FEE7FEE7FEE7FEE704480549B6
:10025000054A064B70470000A10B00088901000801
:1002600008010020080700200803002008030020E0
:10027000704700000FB4044910B503AA029800F0BB
:10028000D1F810BC5DF814FB100000202DE9F041FE
:100290000E460446002020622046E168884730B3BD
:1002A000252805D0D4E901219047206A401CF2E7B7
:1002B000E168204600278847050018D0A5F14100D5
:1002C000192802D820354FF40067324629462046C7
:1002D0002760FFF793FF40B1012804D0F61D26F0F8
:1002E00007060836D8E7361DD6E72846DAE7206A3B
:1002F000BDE8F0812DE9F04106460024106875291B
:10030000314616A510D0AFF30080002802DA404233
:1003100013A507E031688A0701D512A502E0490755
:1003200004D511A5012401E0AFF3008000210A22C9
:1003300006F1240709E0B0FBF2FCB0FBF2F302FB8C
:100340001C00303078541846491C0028F3D123464D
:100350002A463046BDE8F04100F00BB8000000002E
:100360002D0000002B0000002000000070477047A7
:1003700070472DE9F0470D4699469246044600F134
:1003800024080168880604D5E06921F01001216085
:1003900000E00120A84201DD471B00E00027A16921
:1003A0007A1902EB0900081AA0612078C00602D46D
:1003B0002046AFF30080002608E0D4E901211AF8B6
:1003C00006009047206A401C761C20624E45F4DBF4
:1003D0002078C0060AD52046AFF3008006E0D4E9B5
:1003E000012130209047206A401C2062381EA7F16E
:1003F0000107F4DC07E0D4E9012118F80500904773
:10040000206A401C2062281EA5F10105F3DC20466D
:10041000AFF300802078000602D50220BDE8F08707
:100420000120FBE7074B70B50D467B4400F011F847
:100430000446284600F020F810B14FF0FF3070BDA0
:10044000204670BD9F0B000001694A1C02610878BC
:10045000704700B58FB0CDE9013100210591054904
:100460007944CDE9031011466846FFF70FFF0FB03E
:1004700000BD0000E5FFFFFF007B00F0800070473B
:10048000754600F029F8AE4605006946534620F04F
:100490000700854618B020B5FFF7D8FEBDE820401C
:1004A0004FF000064FF000074FF000084FF0000B30
:1004B00021F00701AC46ACE8C009ACE8C009ACE8E3
:1004C000C009ACE8C0098D4670470446AFF3008010
:1004D0002046FFF7A7FE000000487047A800002054
:1004E0001CB50121202000F04FFA4FF480700090DD
:1004F00001208DF8040003208DF8050002208DF8FE
:10050000070000208DF806006946034800F023F933
:100510000020024908601CBD00140240A082424233
:1005200000BFFEE70146A82908D10D4A10700D480A
:100530000D4A106005200D4A10700FE015290AD1F0
:100540001520074A107045F20820074A1060012064
:10055000064A107002E04FF0FF3070470020FCE7C1
:10056000000000204090020004000020080000204D
:100570002DE9F0470546002400260027A046A146A5
:10058000012000F0BFF800204C490860142000F062
:10059000BDFC01204A49C1F8A4021E2000F0E6FC7F
:1005A000002000F0AFF800BF0CE0601C84B2012016
:1005B00000F0DCFC41F29410844203DD4FF0FF3088
:1005C000BDE8F0873D48803800680128EDD0002460
:1005D00009E0601C84B2012000F0C8FC642C02DD3C
:1005E0006FF00100ECE73548803800680028F0D053
:1005F000002409E0601C84B2012000F0B7FC642CE8
:1006000002DD6FF00200DBE72C488038006801282B
:10061000F0D000263AE04FF00008072730E0002431
:1006200009E0601C84B2012000F0A0FC3C2C02DD3B
:100630006FF00300C4E72148803800680028F0D03C
:10064000282000F093FC1D4880380068012815D14F
:10065000B84040EA080000F0FF08002409E0601CF0
:1006600084B2012000F082FC282C02DD6FF004002F
:10067000A6E71248803800680128F0D0781E47B2FB
:10068000002FCCDA05F80680701C46B2052EC2DBBE
:10069000287869780844A9780844E97800EB0109CA
:1006A00009F0FF002979884202D06FF0050087E742
:1006B000642000F05BFC002082E70000A4024342BB
:1006C000000043421CB50121402000F05DF94FF4C9
:1006D0000070009001208DF8040003208DF80500C3
:1006E00001208DF8070000208DF8060069460348B8
:1006F00000F031F80120024908601CBD00180240DA
:10070000A40243421CB504464FF400700090012C33
:100710000CD101208DF8040003208DF80500012084
:100720008DF8070000208DF806000AE034B900209B
:100730008DF8040001208DF8070002E04FF0FF3033
:100740001CBD6946024800F006F80020F8E70000EA
:10075000001802407047F0B50A460021002300242B
:1007600000BF3DE0012505FA01F3156805EA030421
:100770009C4234D105684F000326BE40B543056056
:1007800015794E00B5400668354305601579012D91
:1007900002D01579022D16D185684F000326BE4080
:1007A000B543856055794E00B54086683543856010
:1007B000456801268E40B5434560456896798E4070
:1007C000B6B235434560C5684F000326BE40B54309
:1007D000C560D5794E00B540C6683543C560491C33
:1007E0001029BFD3F0BDF0B5002300244D07ED0E56
:1007F00002FA05F3CE1000F1200555F826504E07F9
:10080000F70E0F26BE40B543CF1000F1200646F884
:100810002750CE1000F1200555F8265045EA030474
:10082000CE1000F1200545F82640F0BD00BFFEE7E0
:100830001CB50121084600F0A7F80121102000F0A6
:10084000A3F80120009000208DF8040001208DF80D
:10085000070002208DF8050069460548FFF77BFF79
:100860001C20009069460348FFF775FF1CBD00007F
:1008700000000240001002401CB50121102000F0D1
:1008800083F80121202000F07FF84FF4C060009031
:1008900001208DF8040003208DF8050001208DF85B
:1008A000070000208DF8060069460B48FFF753FF4C
:1008B0004FF4C040009069460848FFF74CFF012004
:1008C000074908600749C1F8A802074908600749B5
:1008D000C1F8B8021CBD0000001402400010024024
:1008E000A482424200804242B4024242000042429C
:1008F00000BFFEE77047000070B5002100230F2203
:10090000C4781CB3174C246804F4E064C4F5E064B4
:10091000C4F30721C1F10404E3B20A4144789C40C6
:10092000E1B28478144021430C07210E0E4C057867
:100930006155047804F01F050124AC4005786D1161
:10094000AD0005F1E025C5F8004109E0047804F0A8
:100950001F050124AC40054D0678761145F8264068
:1009600070BD00000CED00E000E400E080E100E07C
:1009700002490143024A1160704700000000FA0575
:100980000CED00E07047000029B1064A12680243EE
:10099000044B1A6004E0034A12688243014B1A6058
:1009A000704700003038024029B1064A12680243FD
:1009B000044B1A6004E0034A12688243014B1A6038
:1009C0007047000044380240F0B5002100220024A6
:1009D000022500260223324F3F6807F00C0121B1A7
:1009E000042905D0082937D105E02E4F076036E0ED
:1009F0002D4F076033E02A4F3F1F3F68C7F38056F3
:100A0000274F3F1F3F6807F03F036EB1264FB7FBEC
:100A1000F3F7DFF88CC0ACF1040CDCF800C0CCF3C9
:100A2000881C07FB0CF40CE01E4FB7FBF3F7DFF854
:100A300070C0ACF1040CDCF800C0CCF3881C07FBE0
:100A40000CF4174F3F1F3F68C7F301477F1C7D0021
:100A5000B4FBF5F7076002E0124F076000BF00BF6C
:100A60000F4F3F6807F0F0010909104F7A5C0768E3
:100A7000D74047600A4F3F6807F4E051890A0B4F9F
:100A80007A5C4768D7408760054F3F6807F460414C
:100A9000490B064F7A5C4768D740C760F0BD00003D
:100AA000083802400024F40000127A0018000020E8
:100AB000704700000CB50020019000903448006899
:100AC00040F480303249086000BF3148006800F4CB
:100AD000003000900198401C0190009818B90198CE
:100AE000B0F5A04FF1D12A48006800F4003010B1F1
:100AF0000120009001E0002000900098012846D1DC
:100B000023484030006840F080502149403108605F
:100B10002048006840F440401E4908601C480830E6
:100B200000681B49083108600846006840F400402E
:100B300008600846006840F4A05008601648091F85
:100B40000860081F006840F08070091F086000BF3F
:100B50000F48006800F000700028F9D040F20570DE
:100B60000E4908600A480830006820F00300084970
:100B7000083108600846006840F00200086000BFC5
:100B800003480830006800F00C000828F8D10CBDBC
:100B9000003802400070004008544007003C02400A
:100BA00010B51548006840F47000134908601348F8
:100BB000006840F001001149086000200F49083129
:100BC00008600E4800680E4908400C4908600D484E
:100BD000091D0860081F006820F48020091F0860B4
:100BE000002006490C310860FFF764FF4FF00060F9
:100BF00001498039086010BD88ED00E000380240EE
:100C0000FFFFF6FE1030002410B588B00446012125
:100C10000846FFF7B9FE01211020FFF7C5FE0722A5
:100C200009212548FFF7DFFD07220A212248FFF7A7
:100C3000DAFD4FF40070069002208DF81C008DF84C
:100C40001D0000208DF81E008DF81F0006A91A480F
:100C5000FFF781FD4FF48060069006A91648FFF764
:100C60007AFD02940020ADF80C00ADF80E00ADF84E
:100C70001000ADF814000C20ADF8120002A90F48C6
:100C800000F0CCF825208DF8040000208DF8050038
:100C90008DF8060001208DF8070001A8FFF72CFE53
:100CA000012240F22551054800F092F80121034845
:100CB00000F04BF808B010BD0000024000100140E9
:100CC00010B5002440F22551144800F057F80128CF
:100CD00022D1124800F00CF9C4B211481149097828
:100CE0004454232C03D101200F49087004E00D481F
:100CF0000078401C0B4908702146084800F0FDF8B8
:100D000000BF8021054800F02CF80028F9D040F2FF
:100D10002551024800F00AF810BD00000010014003
:100D2000280000200C0000200D00002010B500223B
:100D3000002340F66A14A14200D100BF0A12012428
:100D40009440A3B2DC43048010BD21B1828942F4F7
:100D50000052828104E082894DF6FF731A4082813D
:100D6000704702460020B1F5007F00D100BF138814
:100D70000B400BB1012000E00020704770B5024627
:100D8000002400230025002040F66A16B14200D15D
:100D900000BFC1F3421501F01F03012606FA03F359
:100DA000012D02D19689334006E0022D02D1168A28
:100DB000334001E0968A33400C12012606FA04F40F
:100DC0001688344013B10CB1012000E0002070BD42
:100DD000F0B50346002400260025002040F66A17DF
:100DE000B94200D100BF1846C1F3421401F01F06FA
:100DF000012707FA06F5012C01D10C3004E0022C82
:100E000001D1103000E014301AB107682F43076099
:100E100002E00768AF430760F0BD00002DE9FF471F
:100E200005460E460024A14600BFA046B08900B189
:100E300000BF2C8A24F44054F08804432C82AC89EF
:100E400041F20C608443B0883189084371890843BA
:100E50000443AC81AC8A24F44074B0890443AC826E
:100E60006846FFF7B1FD2048854202D01F48854201
:100E700002D1DDF80C9001E0DDF80890A88900F4BB
:100E8000004040B109EBC90000EB0910316849008E
:100E9000B0FBF1F707E009EBC90000EB091031687E
:100EA0008900B0FBF1F76420B7FBF0F004012009E2
:100EB000642101FB1078A88900F4004040B1322081
:100EC00000EBC800B0FBF1F000F00700044308E0BD
:100ED000322000EB08106421B0FBF1F000F00F00AD
:100EE00004432C81BDE8FF8700100140001401403D
:100EF00001468888C0F308007047C1F30802828069
:100F0000704700BFFEE700BF00BFFEE710B5014617
:100F10000B46002220E000204FF0E0242061114821
:100F20000068401E60610020A0610F4800782061C9
:100F30000CE04FF0E020026902F4803000B106E0DE
:100F400002F0010010B94FF0FF3010BDF1E700BF13
:100F500000204FF0E02420611800A3F10103DAD152
:100F600000BFF2E7040000200800002010B5014691
:100F70000B46002220E000204FF0E02420611148C1
:100F80000078401E60610020A0610F480078206159
:100F90000CE04FF0E020026902F4803000B106E07E
:100FA00002F0010010B94FF0FF3010BDF1E700BFB3
:100FB00000204FF0E02420611800A3F10103DAD1F2
:100FC00000BFF2E7000000200800002070B50446D2
:100FD0000D46A1B20548FFF790FF00BF80210348EE
:100FE000FFF7BFFE0028F9D0204670BD0010014079
:100FF0001CB500240020009001904FF4A060FFF782
:10100000B7FCA820FFF78EFA4FF4E130FFF7FCFDA4
:10101000FFF732FCFFF764FAFFF70AFCFFF752FB19
:1010200010A0FFF727F91BE06846FFF7A1FA044676
:1010300074B99DF803209DF8021010A0FFF71AF96B
:101040009DF801209DF8001012A0FFF713F903E0AE
:10105000214616A0FFF70EF941F27070FFF756FF18
:10106000E2E7000054686973206973206468743192
:10107000312074657374210D0A000000E6B8A9E5FB
:10108000BAA6EFBC9A25642E2564E28483200D0A5B
:1010900000000000E6B9BFE5BAA6EFBC9A25642EB1
:1010A000256425255248200D0A000000E99499E89E
:1010B000AFAFE7A081EFBC9A25640D0A00000000E5
:1010C0004FF04070E1EE100A70470000EC1000088D
:1010D0000000002028000000C401000814110008CE
:1010E00028000020E0060000E001000800000000E9
:1010F00000000000000000000000000000000000F0
:1011000000000000000000000102030401020304CB
:0411100006070809BD
:040000050800018965
:00000001FF
